{
  "_format": "hh-sol-artifact-1",
  "contractName": "SuperStakeLotterySimple",
  "sourceName": "contracts/SuperStakeLotterySimple-flattened.sol",
  "abi": [
    {
      "inputs": [
        {
          "internalType": "address",
          "name": "_tokenAddress",
          "type": "address"
        },
        {
          "internalType": "uint256",
          "name": "_initialRoundDuration",
          "type": "uint256"
        }
      ],
      "stateMutability": "nonpayable",
      "type": "constructor"
    },
    {
      "inputs": [
        {
          "internalType": "address",
          "name": "owner",
          "type": "address"
        }
      ],
      "name": "OwnableInvalidOwner",
      "type": "error"
    },
    {
      "inputs": [
        {
          "internalType": "address",
          "name": "account",
          "type": "address"
        }
      ],
      "name": "OwnableUnauthorizedAccount",
      "type": "error"
    },
    {
      "inputs": [],
      "name": "ReentrancyGuardReentrantCall",
      "type": "error"
    },
    {
      "inputs": [
        {
          "internalType": "address",
          "name": "token",
          "type": "address"
        }
      ],
      "name": "SafeERC20FailedOperation",
      "type": "error"
    },
    {
      "anonymous": false,
      "inputs": [
        {
          "indexed": true,
          "internalType": "address",
          "name": "previousOwner",
          "type": "address"
        },
        {
          "indexed": true,
          "internalType": "address",
          "name": "newOwner",
          "type": "address"
        }
      ],
      "name": "OwnershipTransferred",
      "type": "event"
    },
    {
      "anonymous": false,
      "inputs": [
        {
          "indexed": true,
          "internalType": "uint256",
          "name": "roundId",
          "type": "uint256"
        },
        {
          "indexed": true,
          "internalType": "address",
          "name": "winner",
          "type": "address"
        },
        {
          "indexed": false,
          "internalType": "uint256",
          "name": "prizeAmount",
          "type": "uint256"
        },
        {
          "indexed": false,
          "internalType": "uint256",
          "name": "burnAmount",
          "type": "uint256"
        },
        {
          "indexed": false,
          "internalType": "uint256",
          "name": "rolloverAmount",
          "type": "uint256"
        },
        {
          "indexed": false,
          "internalType": "uint256",
          "name": "totalParticipants",
          "type": "uint256"
        },
        {
          "indexed": false,
          "internalType": "uint256",
          "name": "totalTickets",
          "type": "uint256"
        }
      ],
      "name": "RoundConcluded",
      "type": "event"
    },
    {
      "anonymous": false,
      "inputs": [
        {
          "indexed": false,
          "internalType": "uint256",
          "name": "oldDuration",
          "type": "uint256"
        },
        {
          "indexed": false,
          "internalType": "uint256",
          "name": "newDuration",
          "type": "uint256"
        }
      ],
      "name": "RoundDurationUpdated",
      "type": "event"
    },
    {
      "anonymous": false,
      "inputs": [
        {
          "indexed": true,
          "internalType": "uint256",
          "name": "roundId",
          "type": "uint256"
        },
        {
          "indexed": false,
          "internalType": "uint256",
          "name": "startTime",
          "type": "uint256"
        },
        {
          "indexed": false,
          "internalType": "uint256",
          "name": "endTime",
          "type": "uint256"
        },
        {
          "indexed": false,
          "internalType": "uint256",
          "name": "initialRollover",
          "type": "uint256"
        }
      ],
      "name": "RoundStarted",
      "type": "event"
    },
    {
      "anonymous": false,
      "inputs": [
        {
          "indexed": true,
          "internalType": "address",
          "name": "player",
          "type": "address"
        },
        {
          "indexed": true,
          "internalType": "uint256",
          "name": "roundId",
          "type": "uint256"
        },
        {
          "indexed": false,
          "internalType": "uint256",
          "name": "tokensDeposited",
          "type": "uint256"
        },
        {
          "indexed": false,
          "internalType": "uint256",
          "name": "ticketsReceived",
          "type": "uint256"
        }
      ],
      "name": "TicketsPurchased",
      "type": "event"
    },
    {
      "inputs": [],
      "name": "BURN_PERCENTAGE",
      "outputs": [
        {
          "internalType": "uint256",
          "name": "",
          "type": "uint256"
        }
      ],
      "stateMutability": "view",
      "type": "function"
    },
    {
      "inputs": [],
      "name": "HEX_TOKEN_ADDRESS",
      "outputs": [
        {
          "internalType": "address",
          "name": "",
          "type": "address"
        }
      ],
      "stateMutability": "view",
      "type": "function"
    },
    {
      "inputs": [],
      "name": "PRIZE_PERCENTAGE",
      "outputs": [
        {
          "internalType": "uint256",
          "name": "",
          "type": "uint256"
        }
      ],
      "stateMutability": "view",
      "type": "function"
    },
    {
      "inputs": [],
      "name": "ROLLOVER_PERCENTAGE",
      "outputs": [
        {
          "internalType": "uint256",
          "name": "",
          "type": "uint256"
        }
      ],
      "stateMutability": "view",
      "type": "function"
    },
    {
      "inputs": [],
      "name": "SUPERSTAKE_HEX_STAKE_ADDRESS",
      "outputs": [
        {
          "internalType": "address",
          "name": "",
          "type": "address"
        }
      ],
      "stateMutability": "view",
      "type": "function"
    },
    {
      "inputs": [],
      "name": "TOKENS_PER_TICKET",
      "outputs": [
        {
          "internalType": "uint256",
          "name": "",
          "type": "uint256"
        }
      ],
      "stateMutability": "view",
      "type": "function"
    },
    {
      "inputs": [],
      "name": "TOTAL_PERCENTAGE",
      "outputs": [
        {
          "internalType": "uint256",
          "name": "",
          "type": "uint256"
        }
      ],
      "stateMutability": "view",
      "type": "function"
    },
    {
      "inputs": [
        {
          "internalType": "uint256",
          "name": "amount",
          "type": "uint256"
        }
      ],
      "name": "buyTickets",
      "outputs": [],
      "stateMutability": "nonpayable",
      "type": "function"
    },
    {
      "inputs": [],
      "name": "concludeRound",
      "outputs": [],
      "stateMutability": "nonpayable",
      "type": "function"
    },
    {
      "inputs": [],
      "name": "currentRoundId",
      "outputs": [
        {
          "internalType": "uint256",
          "name": "",
          "type": "uint256"
        }
      ],
      "stateMutability": "view",
      "type": "function"
    },
    {
      "inputs": [
        {
          "internalType": "uint256",
          "name": "",
          "type": "uint256"
        }
      ],
      "name": "currentRoundPlayers",
      "outputs": [
        {
          "internalType": "address",
          "name": "",
          "type": "address"
        }
      ],
      "stateMutability": "view",
      "type": "function"
    },
    {
      "inputs": [],
      "name": "currentRoundStartTime",
      "outputs": [
        {
          "internalType": "uint256",
          "name": "",
          "type": "uint256"
        }
      ],
      "stateMutability": "view",
      "type": "function"
    },
    {
      "inputs": [
        {
          "internalType": "address",
          "name": "",
          "type": "address"
        }
      ],
      "name": "currentRoundTickets",
      "outputs": [
        {
          "internalType": "uint256",
          "name": "",
          "type": "uint256"
        }
      ],
      "stateMutability": "view",
      "type": "function"
    },
    {
      "inputs": [],
      "name": "currentRoundTotalTokens",
      "outputs": [
        {
          "internalType": "uint256",
          "name": "",
          "type": "uint256"
        }
      ],
      "stateMutability": "view",
      "type": "function"
    },
    {
      "inputs": [],
      "name": "getCurrentPlayers",
      "outputs": [
        {
          "internalType": "address[]",
          "name": "",
          "type": "address[]"
        }
      ],
      "stateMutability": "view",
      "type": "function"
    },
    {
      "inputs": [],
      "name": "getCurrentTotalTickets",
      "outputs": [
        {
          "internalType": "uint256",
          "name": "",
          "type": "uint256"
        }
      ],
      "stateMutability": "view",
      "type": "function"
    },
    {
      "inputs": [
        {
          "internalType": "address",
          "name": "player",
          "type": "address"
        }
      ],
      "name": "getPlayerTickets",
      "outputs": [
        {
          "internalType": "uint256",
          "name": "tickets",
          "type": "uint256"
        }
      ],
      "stateMutability": "view",
      "type": "function"
    },
    {
      "inputs": [
        {
          "internalType": "uint256",
          "name": "roundId",
          "type": "uint256"
        }
      ],
      "name": "getRoundHistory",
      "outputs": [
        {
          "components": [
            {
              "internalType": "uint256",
              "name": "roundId",
              "type": "uint256"
            },
            {
              "internalType": "uint256",
              "name": "totalTokens",
              "type": "uint256"
            },
            {
              "internalType": "uint256",
              "name": "totalTickets",
              "type": "uint256"
            },
            {
              "internalType": "uint256",
              "name": "participantCount",
              "type": "uint256"
            },
            {
              "internalType": "address",
              "name": "winner",
              "type": "address"
            },
            {
              "internalType": "uint256",
              "name": "prizeAmount",
              "type": "uint256"
            },
            {
              "internalType": "uint256",
              "name": "burnAmount",
              "type": "uint256"
            },
            {
              "internalType": "uint256",
              "name": "rolloverAmount",
              "type": "uint256"
            },
            {
              "internalType": "uint256",
              "name": "endTime",
              "type": "uint256"
            }
          ],
          "internalType": "struct SuperStakeLotterySimple.RoundHistory",
          "name": "",
          "type": "tuple"
        }
      ],
      "stateMutability": "view",
      "type": "function"
    },
    {
      "inputs": [],
      "name": "getRoundInfo",
      "outputs": [
        {
          "internalType": "uint256",
          "name": "roundId",
          "type": "uint256"
        },
        {
          "internalType": "uint256",
          "name": "startTime",
          "type": "uint256"
        },
        {
          "internalType": "uint256",
          "name": "endTime",
          "type": "uint256"
        },
        {
          "internalType": "uint256",
          "name": "totalTokens",
          "type": "uint256"
        },
        {
          "internalType": "uint256",
          "name": "participantCount",
          "type": "uint256"
        },
        {
          "internalType": "uint256",
          "name": "timeRemaining",
          "type": "uint256"
        }
      ],
      "stateMutability": "view",
      "type": "function"
    },
    {
      "inputs": [],
      "name": "owner",
      "outputs": [
        {
          "internalType": "address",
          "name": "",
          "type": "address"
        }
      ],
      "stateMutability": "view",
      "type": "function"
    },
    {
      "inputs": [],
      "name": "renounceOwnership",
      "outputs": [],
      "stateMutability": "nonpayable",
      "type": "function"
    },
    {
      "inputs": [],
      "name": "rolloverAmount",
      "outputs": [
        {
          "internalType": "uint256",
          "name": "",
          "type": "uint256"
        }
      ],
      "stateMutability": "view",
      "type": "function"
    },
    {
      "inputs": [],
      "name": "roundDuration",
      "outputs": [
        {
          "internalType": "uint256",
          "name": "",
          "type": "uint256"
        }
      ],
      "stateMutability": "view",
      "type": "function"
    },
    {
      "inputs": [
        {
          "internalType": "uint256",
          "name": "",
          "type": "uint256"
        }
      ],
      "name": "rounds",
      "outputs": [
        {
          "internalType": "uint256",
          "name": "roundId",
          "type": "uint256"
        },
        {
          "internalType": "uint256",
          "name": "totalTokens",
          "type": "uint256"
        },
        {
          "internalType": "uint256",
          "name": "totalTickets",
          "type": "uint256"
        },
        {
          "internalType": "uint256",
          "name": "participantCount",
          "type": "uint256"
        },
        {
          "internalType": "address",
          "name": "winner",
          "type": "address"
        },
        {
          "internalType": "uint256",
          "name": "prizeAmount",
          "type": "uint256"
        },
        {
          "internalType": "uint256",
          "name": "burnAmount",
          "type": "uint256"
        },
        {
          "internalType": "uint256",
          "name": "rolloverAmount",
          "type": "uint256"
        },
        {
          "internalType": "uint256",
          "name": "endTime",
          "type": "uint256"
        }
      ],
      "stateMutability": "view",
      "type": "function"
    },
    {
      "inputs": [],
      "name": "superstakeToken",
      "outputs": [
        {
          "internalType": "contract IERC20",
          "name": "",
          "type": "address"
        }
      ],
      "stateMutability": "view",
      "type": "function"
    },
    {
      "inputs": [],
      "name": "sweepHexTokens",
      "outputs": [],
      "stateMutability": "nonpayable",
      "type": "function"
    },
    {
      "inputs": [
        {
          "internalType": "address",
          "name": "newOwner",
          "type": "address"
        }
      ],
      "name": "transferOwnership",
      "outputs": [],
      "stateMutability": "nonpayable",
      "type": "function"
    },
    {
      "inputs": [
        {
          "internalType": "uint256",
          "name": "_newDuration",
          "type": "uint256"
        }
      ],
      "name": "updateRoundDuration",
      "outputs": [],
      "stateMutability": "nonpayable",
      "type": "function"
    },
    {
      "stateMutability": "payable",
      "type": "receive"
    }
  ],
  "bytecode": "0x60a03461029057601f6117f638819003918201601f19168301916001600160401b038311848410176102955780849260409485528339810103126102905780516001600160a01b0381169190829003610290576020015190331561027a5760008054336001600160a01b03198216811783556040519290916001600160a01b0316907f8be0079c531659141344cd1fd0a4f28419497f9722a3daafe3b4186f6b6457e09080a3600180558115610238575081156101f35760805260025560035460001981146101ab5760010160035542600455600060055560005b60075481101561012a576000805160206117d68339815191528101546001600160a01b0316600090815260086020908152604080832083905560099091529020805460ff191690556001016100da565b6007546000600755806101c1575b5060035460045460025481018082116101ab577ffd9d17e5565deea3d25918d95fc398673b9445ef0a96d12eaf3ab2b198756c65916060916006549060405192835260208301526040820152a260405161152a90816102ac82396080518181816103d6015281816108530152610ee00152f35b634e487b7160e01b600052601160045260246000fd5b60076000526000805160206117d6833981519152908101905b8181106101e75750610138565b600081556001016101da565b60405162461bcd60e51b815260206004820152601960248201527f4475726174696f6e206d75737420626520706f736974697665000000000000006044820152606490fd5b62461bcd60e51b815260206004820152601560248201527f496e76616c696420746f6b656e206164647265737300000000000000000000006044820152606490fd5b631e4fbdf760e01b600052600060045260246000fd5b600080fd5b634e487b7160e01b600052604160045260246000fdfe608080604052600436101561007b575b50361561001b57600080fd5b60405162461bcd60e51b815260206004820152603260248201527f53656e64205053534820746f6b656e73207573696e67207472616e736665722c604482015271206e6f74206e617469766520746f6b656e7360701b6064820152608490fd5b60003560e01c90816302cac05c14610bce5750806323413198146106d25780632ae3b68214610bb05780632f366637146107f8578063380dd901146107da57806340bf443114610798578063543f1a261461076957806367fd6e9e14610423578063715018a61461071057806374aaddfc146106d257806374b064aa146106b557806381449c971461069257806384bc76a61461061e5780638c65c81f146105925780638da5cb5b14610569578063936c63d91461054c5780639506a4ec146104285780639649b910146104235780639cbe5efd14610405578063a3d240da146103c0578063a438bc4d14610391578063d4114afb14610370578063dec8555a14610352578063e4bb762a1461032b578063e9337b4b1461028b578063f2fde38b146101fe578063f65b9192146101df5763f7cb789a146101bc573861000f565b346101da5760003660031901126101da576020600254604051908152f35b600080fd5b346101da5760003660031901126101da576020604051633b9aca008152f35b346101da5760203660031901126101da576004356001600160a01b038116908190036101da5761022c6110eb565b801561027557600080546001600160a01b03198116831782556001600160a01b0316907f8be0079c531659141344cd1fd0a4f28419497f9722a3daafe3b4186f6b6457e09080a3005b631e4fbdf760e01b600052600060045260246000fd5b346101da5760203660031901126101da576004356102a76110eb565b80156102e65760407ff778ba9bcbe1fdf3ea184e76a442294f5f7e51b32d06ad176168d3b5ac8df55b91600254908060025582519182526020820152a1005b60405162461bcd60e51b815260206004820152601960248201527f4475726174696f6e206d75737420626520706f736974697665000000000000006044820152606490fd5b346101da5760003660031901126101da57610344610d3e565b61034c611162565b60018055005b346101da5760003660031901126101da576020600654604051908152f35b346101da5760003660031901126101da57610389610d3e565b61034c610d75565b346101da5760003660031901126101da57602060405173dc48205df8af83c97de572241bb92db45402aa0e8152f35b346101da5760003660031901126101da576040517f00000000000000000000000000000000000000000000000000000000000000006001600160a01b03168152602090f35b346101da5760003660031901126101da576020600354604051908152f35b610cc8565b346101da5760203660031901126101da57600061010060405161044a81610ce5565b8281528260208201528260408201528260608201528260808201528260a08201528260c08201528260e08201520152600435600052600a602052610120604060002060405161049881610ce5565b81549182825260018101546020830190815260028201546040840190815260038301546060850190815260018060a01b03600485015416906080860191825260058501549260a0870193845260068601549460c08801958652610100600860078901549860e08b01998a520154980197885260405198895251602089015251604088015251606087015260018060a01b0390511660808601525160a08501525160c08401525160e083015251610100820152f35b346101da5760003660031901126101da5760206040516127108152f35b346101da5760003660031901126101da576000546040516001600160a01b039091168152602090f35b346101da5760203660031901126101da57600435600052600a60205261012060406000208054906001810154906002810154600382015460018060a01b036004840154166005840154916006850154936008600787015496015496604051988952602089015260408801526060870152608086015260a085015260c084015260e0830152610100820152f35b346101da5760003660031901126101da5760c060035460045461064360025482610d24565b61065260055460065490610d24565b60075491428111610682576000935b604051958652602086015260408501526060840152608083015260a0820152f35b61068c4282610d31565b93610661565b346101da5760003660031901126101da5760206106ad611114565b604051908152f35b346101da5760003660031901126101da5760206040516117708152f35b346101da5760203660031901126101da576004356001600160a01b038116908190036101da5760005260086020526020604060002054604051908152f35b346101da5760003660031901126101da576107296110eb565b600080546001600160a01b0319811682556001600160a01b03167f8be0079c531659141344cd1fd0a4f28419497f9722a3daafe3b4186f6b6457e08280a3005b346101da5760003660031901126101da576020604051732b591e99afe9f32eaa6214f7b7629768c40eeb398152f35b346101da5760203660031901126101da576004356007548110156101da576107c1602091610c97565b905460405160039290921b1c6001600160a01b03168152f35b346101da5760003660031901126101da576020600454604051908152f35b346101da5760203660031901126101da57600435610814610d3e565b61081c610d60565b610ba3575b61083060045460025490610d24565b421015610b70578015610b2b576040516370a0823160e01b8152306004820152907f00000000000000000000000000000000000000000000000000000000000000006001600160a01b0381169190602084602481865afa938415610ae757600094610af3575b50916108d660209260249594604051916323b872dd60e01b8684015233888401523060448401526064830152606482526108d1608483610d02565b611499565b6040516370a0823160e01b815230600482015293849182905afa8015610ae757600090610ab3575b6109089250610d31565b8015610a7957633b9aca008102818104633b9aca0003610a6357633b9aca009004908115610a1e5733600052600960205260ff60406000205416156109ad575b3360005260086020526040600020610961838254610d24565b905561096f81600554610d24565b6005556003549160405191825260208201527fc7c1448de202b1838ad1d7fae75dbd69dc79f98d656f7b30f08dc451c9ab7ff860403392a360018055005b60075468010000000000000000811015610a08578060016109d19201600755610c97565b81549060031b9033821b9160018060a01b03901b19161790553360005260096020526040600020600160ff19825416179055610948565b634e487b7160e01b600052604160045260246000fd5b60405162461bcd60e51b815260206004820152601e60248201527f496e73756666696369656e7420746f6b656e7320666f72207469636b657400006044820152606490fd5b634e487b7160e01b600052601160045260246000fd5b60405162461bcd60e51b8152602060048201526012602482015271139bc81d1bdad95b9cc81c9958d95a5d995960721b6044820152606490fd5b506020823d602011610adf575b81610acd60209383610d02565b810103126101da5761090891516108fe565b3d9150610ac0565b6040513d6000823e3d90fd5b9350916020843d602011610b23575b81610b0f60209383610d02565b810103126101da57925192916108d6610896565b3d9150610b02565b60405162461bcd60e51b815260206004820152601d60248201527f416d6f756e74206d7573742062652067726561746572207468616e20300000006044820152606490fd5b60405162461bcd60e51b815260206004820152600b60248201526a149bdd5b9908195b99195960aa1b6044820152606490fd5b610bab610d75565b610821565b346101da5760003660031901126101da576020600554604051908152f35b346101da5760003660031901126101da576007549081815260208101809260076000527fa66cc928b5edb82af9bd49922954155ab7b0942694bea4ce44661d9a8736c6889060005b818110610c785750505081610c2c910382610d02565b6040519182916020830190602084525180915260408301919060005b818110610c56575050500390f35b82516001600160a01b0316845285945060209384019390920191600101610c48565b82546001600160a01b0316845260209093019260019283019201610c16565b600754811015610cb257600760005260206000200190600090565b634e487b7160e01b600052603260045260246000fd5b346101da5760003660031901126101da5760206040516107d08152f35b610120810190811067ffffffffffffffff821117610a0857604052565b90601f8019910116810190811067ffffffffffffffff821117610a0857604052565b91908201809211610a6357565b91908203918211610a6357565b600260015414610d4f576002600155565b633ee5aeb560e01b60005260046000fd5b610d6f60045460025490610d24565b42101590565b610d7d610d60565b156110b457600354610d9460055460065490610d24565b60075415610fb057610da4611367565b91611770820282159083810461177014821715610a63576127109004906107d08402908482046107d0141715610a63577f5bcaf865ea9154433fa1bfef6556e4fdd83bfca273edd598cbb0fe827f757b5c9161271060a0920495610e1187610e0c8489610d31565b610d31565b96610e1a611114565b916008878a6007549a60405194610e3086610ce5565b838652602086019182526040860190888252606087019d8e5260808701906001808d1b03169d8e82528b8801928b845260c08901948a865260e08a019687526101008a0197428952600052600a602052604060002099518a555160018a01555160028901555160038801556001808c1b0390511660048701906001808d1b03166bffffffffffffffffffffffff8c1b82541617905551600586015551600685015551600784015551910155610f737f0000000000000000000000000000000000000000000000000000000000000000610f3360405163a9059cbb60e01b60208201528a602482015286604482015260448152610f2d606482610d02565b82611499565b60405163a9059cbb60e01b602082015273dc48205df8af83c97de572241bb92db45402aa0e602482015260448082018590528152906108d1606483610d02565b610f7b611162565b60075490604051938452602084015287604084015260608301526080820152a3600655610fa661123c565b610fae611162565b565b90600090604051610fc081610ce5565b81815260086020820185815260408301858152606084018681526080850187815260a086019088825260c087019289845260e08801948b86526101008901964288528a8c52600a60205260408c2099518a555160018a015551600289015551600388015560018060a01b03905116600487019060018060a01b03166bffffffffffffffffffffffff60a01b825416179055516005860155516006850155516007840155519101557f5bcaf865ea9154433fa1bfef6556e4fdd83bfca273edd598cbb0fe827f757b5c60a0604051848152846020820152856040820152846060820152846080820152a3600655610fa661123c565b60405162461bcd60e51b815260206004820152600f60248201526e149bdd5b99081b9bdd08195b991959608a1b6044820152606490fd5b6000546001600160a01b031633036110ff57565b63118cdaa760e01b6000523360045260246000fd5b6000806007545b80821061112757505090565b909161115a60019161113885610c97565b848060a01b0391549060031b1c16600052600860205260406000205490610d24565b92019061111b565b6040516370a0823160e01b8152306004820152602081602481732b591e99afe9f32eaa6214f7b7629768c40eeb395afa908115610ae757600091611207575b50806111aa5750565b610fae906040519063a9059cbb60e01b602083015273dc48205df8af83c97de572241bb92db45402aa0e60248301526044820152604481526111ed606482610d02565b732b591e99afe9f32eaa6214f7b7629768c40eeb39611499565b906020823d602011611234575b8161122160209383610d02565b81010312611231575051386111a1565b80fd5b3d9150611214565b6003546000198114610a635760010160035542600455600060055560005b6007548110156112a95780611270600192610c97565b838060a01b0391549060031b1c16806000526008602052600060408120556000526009602052604060002060ff1981541690550161125a565b50600754600060075580611305575b506003547ffd9d17e5565deea3d25918d95fc398673b9445ef0a96d12eaf3ab2b198756c6560606004546112ee60025482610d24565b6006549060405192835260208301526040820152a2565b60076000527fa66cc928b5edb82af9bd49922954155ab7b0942694bea4ce44661d9a8736c688017fa66cc928b5edb82af9bd49922954155ab7b0942694bea4ce44661d9a8736c6885b81811061135b57506112b8565b6000815560010161134e565b6007548015611467576000194301438111610a635760055460035460405191602083019342855244604085015240606084015260808301528360a083015260c082015260c081526113b960e082610d02565b5190206113c4611114565b90811561145157066000805b838110611404575050506000198101908111610a63576113ef90610c97565b905460039190911b1c6001600160a01b031690565b61143861141082610c97565b905460039190911b1c6001600160a01b03166000818152600860205260409020549093610d24565b9182841061144957506001016113d0565b935050505090565b634e487b7160e01b600052601260045260246000fd5b60405162461bcd60e51b815260206004820152600a6024820152694e6f20706c617965727360b01b6044820152606490fd5b906000602091828151910182855af115610ae7576000513d6114eb57506001600160a01b0381163b155b6114ca5750565b635274afe760e01b60009081526001600160a01b0391909116600452602490fd5b600114156114c356fea2646970667358221220faba6dfdafabc40bf09824be7b729d78064469582b116801708cc24646ef12f064736f6c634300081c0033a66cc928b5edb82af9bd49922954155ab7b0942694bea4ce44661d9a8736c688",
  "linkReferences": {},
  "deployedLinkReferences": {}
}