{
  "_format": "hh-sol-artifact-1",
  "contractName": "MegaMorbiusLottery",
  "sourceName": "contracts/contracts/SuperStakeLottery6of55V2.sol",
  "abi": [
    {
      "inputs": [
        {
          "internalType": "address",
          "name": "_morbiusTokenAddress",
          "type": "address"
        },
        {
          "internalType": "address",
          "name": "_wplsTokenAddress",
          "type": "address"
        },
        {
          "internalType": "address",
          "name": "_pulseXRouterAddress",
          "type": "address"
        },
        {
          "internalType": "uint256",
          "name": "_initialRoundDuration",
          "type": "uint256"
        },
        {
          "internalType": "address",
          "name": "_keeperWallet",
          "type": "address"
        },
        {
          "internalType": "address",
          "name": "_deployerWallet",
          "type": "address"
        }
      ],
      "stateMutability": "nonpayable",
      "type": "constructor"
    },
    {
      "inputs": [
        {
          "internalType": "address",
          "name": "owner",
          "type": "address"
        }
      ],
      "name": "OwnableInvalidOwner",
      "type": "error"
    },
    {
      "inputs": [
        {
          "internalType": "address",
          "name": "account",
          "type": "address"
        }
      ],
      "name": "OwnableUnauthorizedAccount",
      "type": "error"
    },
    {
      "inputs": [],
      "name": "ReentrancyGuardReentrantCall",
      "type": "error"
    },
    {
      "inputs": [
        {
          "internalType": "address",
          "name": "token",
          "type": "address"
        }
      ],
      "name": "SafeERC20FailedOperation",
      "type": "error"
    },
    {
      "anonymous": false,
      "inputs": [
        {
          "indexed": true,
          "internalType": "uint256",
          "name": "roundId",
          "type": "uint256"
        },
        {
          "indexed": false,
          "internalType": "uint256",
          "name": "bracket",
          "type": "uint256"
        },
        {
          "indexed": false,
          "internalType": "uint256",
          "name": "winnerCount",
          "type": "uint256"
        },
        {
          "indexed": false,
          "internalType": "uint256",
          "name": "poolAmount",
          "type": "uint256"
        },
        {
          "indexed": false,
          "internalType": "uint256",
          "name": "payoutPerWinner",
          "type": "uint256"
        }
      ],
      "name": "BracketResults",
      "type": "event"
    },
    {
      "anonymous": false,
      "inputs": [
        {
          "indexed": false,
          "internalType": "uint256",
          "name": "amount",
          "type": "uint256"
        }
      ],
      "name": "BurnExecuted",
      "type": "event"
    },
    {
      "anonymous": false,
      "inputs": [
        {
          "indexed": true,
          "internalType": "uint256",
          "name": "roundId",
          "type": "uint256"
        },
        {
          "indexed": false,
          "internalType": "uint256",
          "name": "bankAmount",
          "type": "uint256"
        },
        {
          "indexed": false,
          "internalType": "uint256",
          "name": "toBracket6",
          "type": "uint256"
        },
        {
          "indexed": false,
          "internalType": "uint256",
          "name": "toBracket5",
          "type": "uint256"
        }
      ],
      "name": "MegaMorbiusDistributed",
      "type": "event"
    },
    {
      "anonymous": false,
      "inputs": [
        {
          "indexed": true,
          "internalType": "address",
          "name": "donor",
          "type": "address"
        },
        {
          "indexed": false,
          "internalType": "uint256",
          "name": "amount",
          "type": "uint256"
        },
        {
          "indexed": false,
          "internalType": "uint256",
          "name": "roundId",
          "type": "uint256"
        }
      ],
      "name": "MegaMorbiusDonation",
      "type": "event"
    },
    {
      "anonymous": false,
      "inputs": [
        {
          "indexed": true,
          "internalType": "uint256",
          "name": "roundId",
          "type": "uint256"
        },
        {
          "indexed": false,
          "internalType": "uint8[6]",
          "name": "winningNumbers",
          "type": "uint8[6]"
        },
        {
          "indexed": false,
          "internalType": "uint256",
          "name": "drawBlock",
          "type": "uint256"
        }
      ],
      "name": "NumbersDrawn",
      "type": "event"
    },
    {
      "anonymous": false,
      "inputs": [
        {
          "indexed": true,
          "internalType": "address",
          "name": "previousOwner",
          "type": "address"
        },
        {
          "indexed": true,
          "internalType": "address",
          "name": "newOwner",
          "type": "address"
        }
      ],
      "name": "OwnershipTransferred",
      "type": "event"
    },
    {
      "anonymous": false,
      "inputs": [
        {
          "indexed": true,
          "internalType": "address",
          "name": "donor",
          "type": "address"
        },
        {
          "indexed": false,
          "internalType": "uint256",
          "name": "amount",
          "type": "uint256"
        },
        {
          "indexed": false,
          "internalType": "uint256",
          "name": "roundId",
          "type": "uint256"
        }
      ],
      "name": "PoolDonation",
      "type": "event"
    },
    {
      "anonymous": false,
      "inputs": [
        {
          "indexed": false,
          "internalType": "uint256",
          "name": "oldDuration",
          "type": "uint256"
        },
        {
          "indexed": false,
          "internalType": "uint256",
          "name": "newDuration",
          "type": "uint256"
        }
      ],
      "name": "RoundDurationUpdated",
      "type": "event"
    },
    {
      "anonymous": false,
      "inputs": [
        {
          "indexed": true,
          "internalType": "uint256",
          "name": "roundId",
          "type": "uint256"
        },
        {
          "indexed": false,
          "internalType": "uint8[6]",
          "name": "winningNumbers",
          "type": "uint8[6]"
        },
        {
          "indexed": false,
          "internalType": "uint256",
          "name": "totalMorbius",
          "type": "uint256"
        },
        {
          "indexed": false,
          "internalType": "uint256",
          "name": "totalTickets",
          "type": "uint256"
        },
        {
          "indexed": false,
          "internalType": "uint256",
          "name": "uniquePlayers",
          "type": "uint256"
        }
      ],
      "name": "RoundFinalized",
      "type": "event"
    },
    {
      "anonymous": false,
      "inputs": [
        {
          "indexed": true,
          "internalType": "uint256",
          "name": "roundId",
          "type": "uint256"
        },
        {
          "indexed": false,
          "internalType": "uint256",
          "name": "startTime",
          "type": "uint256"
        },
        {
          "indexed": false,
          "internalType": "uint256",
          "name": "endTime",
          "type": "uint256"
        }
      ],
      "name": "RoundStarted",
      "type": "event"
    },
    {
      "anonymous": false,
      "inputs": [
        {
          "indexed": false,
          "internalType": "uint256",
          "name": "morbiusPrice",
          "type": "uint256"
        },
        {
          "indexed": false,
          "internalType": "uint256",
          "name": "plsPrice",
          "type": "uint256"
        }
      ],
      "name": "TicketPricesUpdated",
      "type": "event"
    },
    {
      "anonymous": false,
      "inputs": [
        {
          "indexed": true,
          "internalType": "address",
          "name": "player",
          "type": "address"
        },
        {
          "indexed": true,
          "internalType": "uint256",
          "name": "roundId",
          "type": "uint256"
        },
        {
          "indexed": false,
          "internalType": "uint256",
          "name": "ticketCount",
          "type": "uint256"
        },
        {
          "indexed": false,
          "internalType": "uint256",
          "name": "freeTicketsUsed",
          "type": "uint256"
        },
        {
          "indexed": false,
          "internalType": "uint256",
          "name": "morbiusSpent",
          "type": "uint256"
        }
      ],
      "name": "TicketsPurchased",
      "type": "event"
    },
    {
      "anonymous": false,
      "inputs": [
        {
          "indexed": true,
          "internalType": "address",
          "name": "player",
          "type": "address"
        },
        {
          "indexed": false,
          "internalType": "uint256[]",
          "name": "roundIds",
          "type": "uint256[]"
        },
        {
          "indexed": false,
          "internalType": "uint256[]",
          "name": "ticketCounts",
          "type": "uint256[]"
        },
        {
          "indexed": false,
          "internalType": "uint256",
          "name": "morbiusSpent",
          "type": "uint256"
        }
      ],
      "name": "TicketsPurchasedForRounds",
      "type": "event"
    },
    {
      "anonymous": false,
      "inputs": [
        {
          "indexed": true,
          "internalType": "uint256",
          "name": "roundId",
          "type": "uint256"
        },
        {
          "indexed": false,
          "internalType": "uint256",
          "name": "bracket",
          "type": "uint256"
        },
        {
          "indexed": false,
          "internalType": "uint256",
          "name": "amount",
          "type": "uint256"
        },
        {
          "indexed": false,
          "internalType": "string",
          "name": "destination",
          "type": "string"
        }
      ],
      "name": "UnclaimedPrizeRolledOver",
      "type": "event"
    },
    {
      "anonymous": false,
      "inputs": [
        {
          "indexed": true,
          "internalType": "address",
          "name": "player",
          "type": "address"
        },
        {
          "indexed": false,
          "internalType": "uint256",
          "name": "wplsSpent",
          "type": "uint256"
        },
        {
          "indexed": false,
          "internalType": "uint256",
          "name": "morbiusReceived",
          "type": "uint256"
        }
      ],
      "name": "WPLSSwappedForTickets",
      "type": "event"
    },
    {
      "anonymous": false,
      "inputs": [
        {
          "indexed": true,
          "internalType": "address",
          "name": "player",
          "type": "address"
        },
        {
          "indexed": true,
          "internalType": "uint256",
          "name": "roundId",
          "type": "uint256"
        },
        {
          "indexed": false,
          "internalType": "uint256",
          "name": "amount",
          "type": "uint256"
        }
      ],
      "name": "WinningsClaimed",
      "type": "event"
    },
    {
      "inputs": [
        {
          "internalType": "uint256",
          "name": "",
          "type": "uint256"
        }
      ],
      "name": "BRACKET_AMOUNTS",
      "outputs": [
        {
          "internalType": "uint256",
          "name": "",
          "type": "uint256"
        }
      ],
      "stateMutability": "view",
      "type": "function"
    },
    {
      "inputs": [],
      "name": "BURN_ADDRESS",
      "outputs": [
        {
          "internalType": "address",
          "name": "",
          "type": "address"
        }
      ],
      "stateMutability": "view",
      "type": "function"
    },
    {
      "inputs": [],
      "name": "BURN_PCT",
      "outputs": [
        {
          "internalType": "uint256",
          "name": "",
          "type": "uint256"
        }
      ],
      "stateMutability": "view",
      "type": "function"
    },
    {
      "inputs": [],
      "name": "DEPLOYER_FEE_PCT",
      "outputs": [
        {
          "internalType": "uint256",
          "name": "",
          "type": "uint256"
        }
      ],
      "stateMutability": "view",
      "type": "function"
    },
    {
      "inputs": [],
      "name": "KEEPER_FEE_PCT",
      "outputs": [
        {
          "internalType": "uint256",
          "name": "",
          "type": "uint256"
        }
      ],
      "stateMutability": "view",
      "type": "function"
    },
    {
      "inputs": [],
      "name": "MAX_FUTURE_ROUND_OFFSET",
      "outputs": [
        {
          "internalType": "uint256",
          "name": "",
          "type": "uint256"
        }
      ],
      "stateMutability": "view",
      "type": "function"
    },
    {
      "inputs": [],
      "name": "MAX_NUMBER",
      "outputs": [
        {
          "internalType": "uint8",
          "name": "",
          "type": "uint8"
        }
      ],
      "stateMutability": "view",
      "type": "function"
    },
    {
      "inputs": [],
      "name": "MEGA_BANK_PCT",
      "outputs": [
        {
          "internalType": "uint256",
          "name": "",
          "type": "uint256"
        }
      ],
      "stateMutability": "view",
      "type": "function"
    },
    {
      "inputs": [],
      "name": "MIN_NUMBER",
      "outputs": [
        {
          "internalType": "uint8",
          "name": "",
          "type": "uint8"
        }
      ],
      "stateMutability": "view",
      "type": "function"
    },
    {
      "inputs": [],
      "name": "MORBIUS_TOKEN",
      "outputs": [
        {
          "internalType": "contract IERC20",
          "name": "",
          "type": "address"
        }
      ],
      "stateMutability": "view",
      "type": "function"
    },
    {
      "inputs": [],
      "name": "NUMBERS_PER_TICKET",
      "outputs": [
        {
          "internalType": "uint8",
          "name": "",
          "type": "uint8"
        }
      ],
      "stateMutability": "view",
      "type": "function"
    },
    {
      "inputs": [],
      "name": "ROLLOVER_TO_BURN_PCT",
      "outputs": [
        {
          "internalType": "uint256",
          "name": "",
          "type": "uint256"
        }
      ],
      "stateMutability": "view",
      "type": "function"
    },
    {
      "inputs": [],
      "name": "ROLLOVER_TO_MEGA_PCT",
      "outputs": [
        {
          "internalType": "uint256",
          "name": "",
          "type": "uint256"
        }
      ],
      "stateMutability": "view",
      "type": "function"
    },
    {
      "inputs": [],
      "name": "ROLLOVER_TO_NEXT_ROUND_PCT",
      "outputs": [
        {
          "internalType": "uint256",
          "name": "",
          "type": "uint256"
        }
      ],
      "stateMutability": "view",
      "type": "function"
    },
    {
      "inputs": [],
      "name": "TICKET_PRICE_DEFAULT",
      "outputs": [
        {
          "internalType": "uint256",
          "name": "",
          "type": "uint256"
        }
      ],
      "stateMutability": "view",
      "type": "function"
    },
    {
      "inputs": [],
      "name": "TOTAL_PCT",
      "outputs": [
        {
          "internalType": "uint256",
          "name": "",
          "type": "uint256"
        }
      ],
      "stateMutability": "view",
      "type": "function"
    },
    {
      "inputs": [],
      "name": "WINNERS_POOL_PCT",
      "outputs": [
        {
          "internalType": "uint256",
          "name": "",
          "type": "uint256"
        }
      ],
      "stateMutability": "view",
      "type": "function"
    },
    {
      "inputs": [],
      "name": "WPLS_SWAP_BUFFER_PCT",
      "outputs": [
        {
          "internalType": "uint256",
          "name": "",
          "type": "uint256"
        }
      ],
      "stateMutability": "view",
      "type": "function"
    },
    {
      "inputs": [],
      "name": "WPLS_TOKEN",
      "outputs": [
        {
          "internalType": "contract IWrappedPulse",
          "name": "",
          "type": "address"
        }
      ],
      "stateMutability": "view",
      "type": "function"
    },
    {
      "inputs": [
        {
          "internalType": "uint8[6][]",
          "name": "ticketNumbers",
          "type": "uint8[6][]"
        }
      ],
      "name": "buyTickets",
      "outputs": [],
      "stateMutability": "nonpayable",
      "type": "function"
    },
    {
      "inputs": [
        {
          "internalType": "uint8[6][][]",
          "name": "ticketGroups",
          "type": "uint8[6][][]"
        },
        {
          "internalType": "uint256[]",
          "name": "roundOffsets",
          "type": "uint256[]"
        }
      ],
      "name": "buyTicketsForRounds",
      "outputs": [],
      "stateMutability": "nonpayable",
      "type": "function"
    },
    {
      "inputs": [
        {
          "internalType": "uint8[6][]",
          "name": "ticketNumbers",
          "type": "uint8[6][]"
        }
      ],
      "name": "buyTicketsWithPLS",
      "outputs": [],
      "stateMutability": "payable",
      "type": "function"
    },
    {
      "inputs": [
        {
          "internalType": "uint8[6][]",
          "name": "ticketNumbers",
          "type": "uint8[6][]"
        }
      ],
      "name": "buyTicketsWithWPLS",
      "outputs": [],
      "stateMutability": "nonpayable",
      "type": "function"
    },
    {
      "inputs": [
        {
          "internalType": "uint8[6][]",
          "name": "ticketNumbers",
          "type": "uint8[6][]"
        },
        {
          "internalType": "uint256",
          "name": "extraBufferBp",
          "type": "uint256"
        }
      ],
      "name": "buyTicketsWithWPLSAndBuffer",
      "outputs": [],
      "stateMutability": "nonpayable",
      "type": "function"
    },
    {
      "inputs": [
        {
          "internalType": "uint256",
          "name": "roundId",
          "type": "uint256"
        }
      ],
      "name": "claimWinnings",
      "outputs": [],
      "stateMutability": "nonpayable",
      "type": "function"
    },
    {
      "inputs": [
        {
          "internalType": "uint256[]",
          "name": "roundIds",
          "type": "uint256[]"
        }
      ],
      "name": "claimWinningsMultiple",
      "outputs": [],
      "stateMutability": "nonpayable",
      "type": "function"
    },
    {
      "inputs": [
        {
          "internalType": "uint256",
          "name": "",
          "type": "uint256"
        },
        {
          "internalType": "address",
          "name": "",
          "type": "address"
        }
      ],
      "name": "claimableWinnings",
      "outputs": [
        {
          "internalType": "uint256",
          "name": "",
          "type": "uint256"
        }
      ],
      "stateMutability": "view",
      "type": "function"
    },
    {
      "inputs": [],
      "name": "currentRoundId",
      "outputs": [
        {
          "internalType": "uint256",
          "name": "",
          "type": "uint256"
        }
      ],
      "stateMutability": "view",
      "type": "function"
    },
    {
      "inputs": [],
      "name": "currentRoundStartTime",
      "outputs": [
        {
          "internalType": "uint256",
          "name": "",
          "type": "uint256"
        }
      ],
      "stateMutability": "view",
      "type": "function"
    },
    {
      "inputs": [],
      "name": "currentRoundState",
      "outputs": [
        {
          "internalType": "enum MegaMorbiusLottery.RoundState",
          "name": "",
          "type": "uint8"
        }
      ],
      "stateMutability": "view",
      "type": "function"
    },
    {
      "inputs": [],
      "name": "currentRoundTotalCollectedFromPlayers",
      "outputs": [
        {
          "internalType": "uint256",
          "name": "",
          "type": "uint256"
        }
      ],
      "stateMutability": "view",
      "type": "function"
    },
    {
      "inputs": [],
      "name": "currentRoundTotalMorbius",
      "outputs": [
        {
          "internalType": "uint256",
          "name": "",
          "type": "uint256"
        }
      ],
      "stateMutability": "view",
      "type": "function"
    },
    {
      "inputs": [],
      "name": "currentRoundTotalTickets",
      "outputs": [
        {
          "internalType": "uint256",
          "name": "",
          "type": "uint256"
        }
      ],
      "stateMutability": "view",
      "type": "function"
    },
    {
      "inputs": [],
      "name": "deployerWallet",
      "outputs": [
        {
          "internalType": "address",
          "name": "",
          "type": "address"
        }
      ],
      "stateMutability": "view",
      "type": "function"
    },
    {
      "inputs": [
        {
          "internalType": "uint256",
          "name": "amount",
          "type": "uint256"
        }
      ],
      "name": "donateToMegaMorbius",
      "outputs": [],
      "stateMutability": "nonpayable",
      "type": "function"
    },
    {
      "inputs": [
        {
          "internalType": "uint256",
          "name": "amount",
          "type": "uint256"
        }
      ],
      "name": "donateToPool",
      "outputs": [],
      "stateMutability": "nonpayable",
      "type": "function"
    },
    {
      "inputs": [],
      "name": "finalizeRound",
      "outputs": [],
      "stateMutability": "nonpayable",
      "type": "function"
    },
    {
      "inputs": [],
      "name": "getBracketConfig",
      "outputs": [
        {
          "internalType": "uint256[6]",
          "name": "bracketAmounts",
          "type": "uint256[6]"
        },
        {
          "internalType": "uint256",
          "name": "winnersPoolPercent",
          "type": "uint256"
        },
        {
          "internalType": "uint256",
          "name": "burnPercent",
          "type": "uint256"
        },
        {
          "internalType": "uint256",
          "name": "megaBankPercent",
          "type": "uint256"
        },
        {
          "internalType": "uint256",
          "name": "keeperFeePercent",
          "type": "uint256"
        },
        {
          "internalType": "uint256",
          "name": "deployerFeePercent",
          "type": "uint256"
        }
      ],
      "stateMutability": "view",
      "type": "function"
    },
    {
      "inputs": [
        {
          "internalType": "uint256",
          "name": "roundId",
          "type": "uint256"
        },
        {
          "internalType": "address",
          "name": "player",
          "type": "address"
        }
      ],
      "name": "getClaimableWinnings",
      "outputs": [
        {
          "internalType": "uint256",
          "name": "",
          "type": "uint256"
        }
      ],
      "stateMutability": "view",
      "type": "function"
    },
    {
      "inputs": [],
      "name": "getCurrentRoundInfo",
      "outputs": [
        {
          "internalType": "uint256",
          "name": "roundId",
          "type": "uint256"
        },
        {
          "internalType": "uint256",
          "name": "startTime",
          "type": "uint256"
        },
        {
          "internalType": "uint256",
          "name": "endTime",
          "type": "uint256"
        },
        {
          "internalType": "uint256",
          "name": "totalMorbius",
          "type": "uint256"
        },
        {
          "internalType": "uint256",
          "name": "totalTickets",
          "type": "uint256"
        },
        {
          "internalType": "uint256",
          "name": "uniquePlayers",
          "type": "uint256"
        },
        {
          "internalType": "uint256",
          "name": "timeRemaining",
          "type": "uint256"
        },
        {
          "internalType": "enum MegaMorbiusLottery.RoundState",
          "name": "state",
          "type": "uint8"
        }
      ],
      "stateMutability": "view",
      "type": "function"
    },
    {
      "inputs": [],
      "name": "getCurrentRoundTotals",
      "outputs": [
        {
          "internalType": "uint256",
          "name": "roundId",
          "type": "uint256"
        },
        {
          "internalType": "uint256",
          "name": "totalMorbius",
          "type": "uint256"
        },
        {
          "internalType": "uint256",
          "name": "totalTickets",
          "type": "uint256"
        },
        {
          "internalType": "uint256",
          "name": "uniquePlayers",
          "type": "uint256"
        },
        {
          "internalType": "uint256",
          "name": "rolloverBalance",
          "type": "uint256"
        },
        {
          "internalType": "uint256",
          "name": "megaMorbiusBalance",
          "type": "uint256"
        },
        {
          "internalType": "enum MegaMorbiusLottery.RoundState",
          "name": "state",
          "type": "uint8"
        }
      ],
      "stateMutability": "view",
      "type": "function"
    },
    {
      "inputs": [],
      "name": "getMegaMorbiusBank",
      "outputs": [
        {
          "internalType": "uint256",
          "name": "",
          "type": "uint256"
        }
      ],
      "stateMutability": "view",
      "type": "function"
    },
    {
      "inputs": [
        {
          "internalType": "uint256",
          "name": "roundId",
          "type": "uint256"
        }
      ],
      "name": "getPendingForRound",
      "outputs": [
        {
          "internalType": "uint256",
          "name": "morbiusAmount",
          "type": "uint256"
        },
        {
          "internalType": "uint256",
          "name": "ticketCount",
          "type": "uint256"
        }
      ],
      "stateMutability": "view",
      "type": "function"
    },
    {
      "inputs": [
        {
          "internalType": "address",
          "name": "player",
          "type": "address"
        }
      ],
      "name": "getPlayerLifetime",
      "outputs": [
        {
          "internalType": "uint256",
          "name": "ticketsBought",
          "type": "uint256"
        },
        {
          "internalType": "uint256",
          "name": "totalSpent",
          "type": "uint256"
        },
        {
          "internalType": "uint256",
          "name": "totalClaimed",
          "type": "uint256"
        },
        {
          "internalType": "uint256",
          "name": "totalClaimable",
          "type": "uint256"
        }
      ],
      "stateMutability": "view",
      "type": "function"
    },
    {
      "inputs": [
        {
          "internalType": "address",
          "name": "player",
          "type": "address"
        },
        {
          "internalType": "uint256",
          "name": "start",
          "type": "uint256"
        },
        {
          "internalType": "uint256",
          "name": "count",
          "type": "uint256"
        }
      ],
      "name": "getPlayerRoundHistory",
      "outputs": [
        {
          "internalType": "uint256[]",
          "name": "roundIds",
          "type": "uint256[]"
        },
        {
          "internalType": "uint256[]",
          "name": "ticketsBoughtPerRound",
          "type": "uint256[]"
        },
        {
          "internalType": "uint256[]",
          "name": "claimablePerRound",
          "type": "uint256[]"
        }
      ],
      "stateMutability": "view",
      "type": "function"
    },
    {
      "inputs": [
        {
          "internalType": "uint256",
          "name": "roundId",
          "type": "uint256"
        },
        {
          "internalType": "address",
          "name": "player",
          "type": "address"
        }
      ],
      "name": "getPlayerTickets",
      "outputs": [
        {
          "components": [
            {
              "internalType": "address",
              "name": "player",
              "type": "address"
            },
            {
              "internalType": "uint8[6]",
              "name": "numbers",
              "type": "uint8[6]"
            },
            {
              "internalType": "uint256",
              "name": "ticketId",
              "type": "uint256"
            },
            {
              "internalType": "bool",
              "name": "isFreeTicket",
              "type": "bool"
            },
            {
              "internalType": "bool",
              "name": "isHouseTicket",
              "type": "bool"
            }
          ],
          "internalType": "struct MegaMorbiusLottery.Ticket[]",
          "name": "",
          "type": "tuple[]"
        }
      ],
      "stateMutability": "view",
      "type": "function"
    },
    {
      "inputs": [],
      "name": "getRolloverState",
      "outputs": [
        {
          "internalType": "uint256",
          "name": "rolloverBalance",
          "type": "uint256"
        },
        {
          "internalType": "uint256",
          "name": "megaMorbiusBalance",
          "type": "uint256"
        }
      ],
      "stateMutability": "view",
      "type": "function"
    },
    {
      "inputs": [
        {
          "internalType": "uint256",
          "name": "roundId",
          "type": "uint256"
        }
      ],
      "name": "getRound",
      "outputs": [
        {
          "components": [
            {
              "internalType": "uint256",
              "name": "roundId",
              "type": "uint256"
            },
            {
              "internalType": "uint256",
              "name": "startTime",
              "type": "uint256"
            },
            {
              "internalType": "uint256",
              "name": "endTime",
              "type": "uint256"
            },
            {
              "internalType": "uint256",
              "name": "closingBlock",
              "type": "uint256"
            },
            {
              "internalType": "uint256",
              "name": "drawBlock",
              "type": "uint256"
            },
            {
              "internalType": "uint8[6]",
              "name": "winningNumbers",
              "type": "uint8[6]"
            },
            {
              "internalType": "uint256",
              "name": "totalMorbiusCollected",
              "type": "uint256"
            },
            {
              "internalType": "uint256",
              "name": "totalTickets",
              "type": "uint256"
            },
            {
              "internalType": "uint256",
              "name": "uniquePlayers",
              "type": "uint256"
            },
            {
              "components": [
                {
                  "internalType": "uint256",
                  "name": "matchCount",
                  "type": "uint256"
                },
                {
                  "internalType": "uint256",
                  "name": "poolAmount",
                  "type": "uint256"
                },
                {
                  "internalType": "uint256",
                  "name": "winnerCount",
                  "type": "uint256"
                },
                {
                  "internalType": "uint256",
                  "name": "payoutPerWinner",
                  "type": "uint256"
                },
                {
                  "internalType": "uint256[]",
                  "name": "winningTicketIds",
                  "type": "uint256[]"
                }
              ],
              "internalType": "struct MegaMorbiusLottery.BracketWinners[6]",
              "name": "brackets",
              "type": "tuple[6]"
            },
            {
              "internalType": "uint256",
              "name": "megaBankContribution",
              "type": "uint256"
            },
            {
              "internalType": "enum MegaMorbiusLottery.RoundState",
              "name": "state",
              "type": "uint8"
            }
          ],
          "internalType": "struct MegaMorbiusLottery.Round",
          "name": "",
          "type": "tuple"
        }
      ],
      "stateMutability": "view",
      "type": "function"
    },
    {
      "inputs": [
        {
          "internalType": "uint256",
          "name": "roundId",
          "type": "uint256"
        }
      ],
      "name": "getRoundHistoryTotals",
      "outputs": [
        {
          "internalType": "uint256",
          "name": "totalMorbius",
          "type": "uint256"
        },
        {
          "internalType": "uint256",
          "name": "totalTickets",
          "type": "uint256"
        },
        {
          "internalType": "uint256",
          "name": "winnersPoolTotal",
          "type": "uint256"
        },
        {
          "internalType": "uint256",
          "name": "burnTotal",
          "type": "uint256"
        },
        {
          "internalType": "uint256",
          "name": "megaTotal",
          "type": "uint256"
        },
        {
          "internalType": "uint256",
          "name": "totalUnclaimed",
          "type": "uint256"
        }
      ],
      "stateMutability": "view",
      "type": "function"
    },
    {
      "inputs": [],
      "name": "getTotalMorbiusClaimableAll",
      "outputs": [
        {
          "internalType": "uint256",
          "name": "",
          "type": "uint256"
        }
      ],
      "stateMutability": "view",
      "type": "function"
    },
    {
      "inputs": [],
      "name": "getTotalMorbiusEverClaimed",
      "outputs": [
        {
          "internalType": "uint256",
          "name": "",
          "type": "uint256"
        }
      ],
      "stateMutability": "view",
      "type": "function"
    },
    {
      "inputs": [],
      "name": "getTotalMorbiusEverCollected",
      "outputs": [
        {
          "internalType": "uint256",
          "name": "",
          "type": "uint256"
        }
      ],
      "stateMutability": "view",
      "type": "function"
    },
    {
      "inputs": [],
      "name": "getTotalTicketsEver",
      "outputs": [
        {
          "internalType": "uint256",
          "name": "",
          "type": "uint256"
        }
      ],
      "stateMutability": "view",
      "type": "function"
    },
    {
      "inputs": [
        {
          "internalType": "uint256",
          "name": "roundId",
          "type": "uint256"
        }
      ],
      "name": "getUnclaimedForRound",
      "outputs": [
        {
          "internalType": "uint256[]",
          "name": "poolAmounts",
          "type": "uint256[]"
        },
        {
          "internalType": "uint256[]",
          "name": "winnerCounts",
          "type": "uint256[]"
        },
        {
          "internalType": "uint256[]",
          "name": "paidPerBracket",
          "type": "uint256[]"
        },
        {
          "internalType": "uint256[]",
          "name": "unclaimedPerBracket",
          "type": "uint256[]"
        },
        {
          "internalType": "uint256",
          "name": "totalUnclaimed",
          "type": "uint256"
        },
        {
          "internalType": "uint256",
          "name": "winnersPoolTotal",
          "type": "uint256"
        },
        {
          "internalType": "uint256",
          "name": "burnTotal",
          "type": "uint256"
        },
        {
          "internalType": "uint256",
          "name": "megaTotal",
          "type": "uint256"
        }
      ],
      "stateMutability": "view",
      "type": "function"
    },
    {
      "inputs": [
        {
          "internalType": "uint256",
          "name": "",
          "type": "uint256"
        },
        {
          "internalType": "address",
          "name": "",
          "type": "address"
        }
      ],
      "name": "hasClaimed",
      "outputs": [
        {
          "internalType": "bool",
          "name": "",
          "type": "bool"
        }
      ],
      "stateMutability": "view",
      "type": "function"
    },
    {
      "inputs": [
        {
          "internalType": "uint256",
          "name": "",
          "type": "uint256"
        },
        {
          "internalType": "address",
          "name": "",
          "type": "address"
        }
      ],
      "name": "hasEnteredRound",
      "outputs": [
        {
          "internalType": "bool",
          "name": "",
          "type": "bool"
        }
      ],
      "stateMutability": "view",
      "type": "function"
    },
    {
      "inputs": [],
      "name": "keeperWallet",
      "outputs": [
        {
          "internalType": "address",
          "name": "",
          "type": "address"
        }
      ],
      "stateMutability": "view",
      "type": "function"
    },
    {
      "inputs": [],
      "name": "megaMorbiusBank",
      "outputs": [
        {
          "internalType": "uint256",
          "name": "",
          "type": "uint256"
        }
      ],
      "stateMutability": "view",
      "type": "function"
    },
    {
      "inputs": [],
      "name": "nextTicketId",
      "outputs": [
        {
          "internalType": "uint256",
          "name": "",
          "type": "uint256"
        }
      ],
      "stateMutability": "view",
      "type": "function"
    },
    {
      "inputs": [],
      "name": "owner",
      "outputs": [
        {
          "internalType": "address",
          "name": "",
          "type": "address"
        }
      ],
      "stateMutability": "view",
      "type": "function"
    },
    {
      "inputs": [
        {
          "internalType": "uint256",
          "name": "",
          "type": "uint256"
        }
      ],
      "name": "pendingRoundMorbius",
      "outputs": [
        {
          "internalType": "uint256",
          "name": "",
          "type": "uint256"
        }
      ],
      "stateMutability": "view",
      "type": "function"
    },
    {
      "inputs": [
        {
          "internalType": "uint256",
          "name": "",
          "type": "uint256"
        }
      ],
      "name": "pendingRoundTickets",
      "outputs": [
        {
          "internalType": "uint256",
          "name": "",
          "type": "uint256"
        }
      ],
      "stateMutability": "view",
      "type": "function"
    },
    {
      "inputs": [
        {
          "internalType": "address",
          "name": "",
          "type": "address"
        }
      ],
      "name": "playerOutstandingClaimable",
      "outputs": [
        {
          "internalType": "uint256",
          "name": "",
          "type": "uint256"
        }
      ],
      "stateMutability": "view",
      "type": "function"
    },
    {
      "inputs": [
        {
          "internalType": "uint256",
          "name": "",
          "type": "uint256"
        },
        {
          "internalType": "address",
          "name": "",
          "type": "address"
        },
        {
          "internalType": "uint256",
          "name": "",
          "type": "uint256"
        }
      ],
      "name": "playerTicketIds",
      "outputs": [
        {
          "internalType": "uint256",
          "name": "",
          "type": "uint256"
        }
      ],
      "stateMutability": "view",
      "type": "function"
    },
    {
      "inputs": [
        {
          "internalType": "address",
          "name": "",
          "type": "address"
        }
      ],
      "name": "playerTotals",
      "outputs": [
        {
          "internalType": "uint256",
          "name": "ticketsBought",
          "type": "uint256"
        },
        {
          "internalType": "uint256",
          "name": "totalSpent",
          "type": "uint256"
        },
        {
          "internalType": "uint256",
          "name": "totalClaimed",
          "type": "uint256"
        }
      ],
      "stateMutability": "view",
      "type": "function"
    },
    {
      "inputs": [],
      "name": "pulseXRouter",
      "outputs": [
        {
          "internalType": "contract IPulseXRouter",
          "name": "",
          "type": "address"
        }
      ],
      "stateMutability": "view",
      "type": "function"
    },
    {
      "inputs": [],
      "name": "renounceOwnership",
      "outputs": [],
      "stateMutability": "nonpayable",
      "type": "function"
    },
    {
      "inputs": [],
      "name": "rolloverReserve",
      "outputs": [
        {
          "internalType": "uint256",
          "name": "",
          "type": "uint256"
        }
      ],
      "stateMutability": "view",
      "type": "function"
    },
    {
      "inputs": [],
      "name": "roundDuration",
      "outputs": [
        {
          "internalType": "uint256",
          "name": "",
          "type": "uint256"
        }
      ],
      "stateMutability": "view",
      "type": "function"
    },
    {
      "inputs": [
        {
          "internalType": "uint256",
          "name": "",
          "type": "uint256"
        },
        {
          "internalType": "uint256",
          "name": "",
          "type": "uint256"
        }
      ],
      "name": "roundPlayers",
      "outputs": [
        {
          "internalType": "address",
          "name": "",
          "type": "address"
        }
      ],
      "stateMutability": "view",
      "type": "function"
    },
    {
      "inputs": [
        {
          "internalType": "uint256",
          "name": "",
          "type": "uint256"
        },
        {
          "internalType": "uint256",
          "name": "",
          "type": "uint256"
        }
      ],
      "name": "roundTickets",
      "outputs": [
        {
          "internalType": "address",
          "name": "player",
          "type": "address"
        },
        {
          "internalType": "uint256",
          "name": "ticketId",
          "type": "uint256"
        },
        {
          "internalType": "bool",
          "name": "isFreeTicket",
          "type": "bool"
        },
        {
          "internalType": "bool",
          "name": "isHouseTicket",
          "type": "bool"
        }
      ],
      "stateMutability": "view",
      "type": "function"
    },
    {
      "inputs": [
        {
          "internalType": "uint256",
          "name": "",
          "type": "uint256"
        }
      ],
      "name": "rounds",
      "outputs": [
        {
          "internalType": "uint256",
          "name": "roundId",
          "type": "uint256"
        },
        {
          "internalType": "uint256",
          "name": "startTime",
          "type": "uint256"
        },
        {
          "internalType": "uint256",
          "name": "endTime",
          "type": "uint256"
        },
        {
          "internalType": "uint256",
          "name": "closingBlock",
          "type": "uint256"
        },
        {
          "internalType": "uint256",
          "name": "drawBlock",
          "type": "uint256"
        },
        {
          "internalType": "uint256",
          "name": "totalMorbiusCollected",
          "type": "uint256"
        },
        {
          "internalType": "uint256",
          "name": "totalTickets",
          "type": "uint256"
        },
        {
          "internalType": "uint256",
          "name": "uniquePlayers",
          "type": "uint256"
        },
        {
          "internalType": "uint256",
          "name": "megaBankContribution",
          "type": "uint256"
        },
        {
          "internalType": "enum MegaMorbiusLottery.RoundState",
          "name": "state",
          "type": "uint8"
        }
      ],
      "stateMutability": "view",
      "type": "function"
    },
    {
      "inputs": [],
      "name": "ticketPriceMorbius",
      "outputs": [
        {
          "internalType": "uint256",
          "name": "",
          "type": "uint256"
        }
      ],
      "stateMutability": "view",
      "type": "function"
    },
    {
      "inputs": [],
      "name": "ticketPricePls",
      "outputs": [
        {
          "internalType": "uint256",
          "name": "",
          "type": "uint256"
        }
      ],
      "stateMutability": "view",
      "type": "function"
    },
    {
      "inputs": [],
      "name": "totalMorbiusClaimableOutstanding",
      "outputs": [
        {
          "internalType": "uint256",
          "name": "",
          "type": "uint256"
        }
      ],
      "stateMutability": "view",
      "type": "function"
    },
    {
      "inputs": [],
      "name": "totalMorbiusEverClaimed",
      "outputs": [
        {
          "internalType": "uint256",
          "name": "",
          "type": "uint256"
        }
      ],
      "stateMutability": "view",
      "type": "function"
    },
    {
      "inputs": [],
      "name": "totalMorbiusEverCollected",
      "outputs": [
        {
          "internalType": "uint256",
          "name": "",
          "type": "uint256"
        }
      ],
      "stateMutability": "view",
      "type": "function"
    },
    {
      "inputs": [],
      "name": "totalTicketsEver",
      "outputs": [
        {
          "internalType": "uint256",
          "name": "",
          "type": "uint256"
        }
      ],
      "stateMutability": "view",
      "type": "function"
    },
    {
      "inputs": [
        {
          "internalType": "address",
          "name": "newOwner",
          "type": "address"
        }
      ],
      "name": "transferOwnership",
      "outputs": [],
      "stateMutability": "nonpayable",
      "type": "function"
    },
    {
      "inputs": [
        {
          "internalType": "uint256",
          "name": "_newDuration",
          "type": "uint256"
        }
      ],
      "name": "updateRoundDuration",
      "outputs": [],
      "stateMutability": "nonpayable",
      "type": "function"
    },
    {
      "inputs": [
        {
          "internalType": "uint256",
          "name": "newMorbiusPrice",
          "type": "uint256"
        },
        {
          "internalType": "uint256",
          "name": "newPlsPrice",
          "type": "uint256"
        }
      ],
      "name": "updateTicketPrices",
      "outputs": [],
      "stateMutability": "nonpayable",
      "type": "function"
    }
  ],
  "bytecode": "0x60e06040523461047b57604051601f6159bb38819003918201601f19168301916001600160401b0383118484101761044f5780849260c09460405283398101031261047b5761004d81610480565b61005960208301610480565b9161006660408201610480565b9060608101519161008560a061007e60808501610480565b9301610480565b9333156104655760008054336001600160a01b0319821681178355916001600160a01b03909116907f8be0079c531659141344cd1fd0a4f28419497f9722a3daafe3b4186f6b6457e09080a36001805560405160c081016001600160401b0381118282101761044f5760405268056bc75e2d631000008152680d8d726b7177a8000060208201526828a857425466f800006040820152686c6b935b8bbd400000606082015269010f0cf064dd59200000608082015269032d26d12e980b60000060a082015260005b600681106104315750506001600160a01b03169485156103ec576001600160a01b03169081156103a7576001600160a01b031691821561036257831561031d576001600160a01b03169384156102d8576001600160a01b03169485156102935760805260a05260c052600a5560018060a01b0319600854161760085560018060a01b0319600954161760095568056bc75e2d63100000600e5560ff19600d5416600d556001600b5542600c55604051615526908161049582396080518181816106ce01528181610a0a0152818161176c01528181611da401528181612214015281816124e401528181612b1c01528181612f9c015281816131ef0152818161353e015261512c015260a05181818161160d01528181611736015281816124ae0152612ae6015260c051818181610896015281816117af015281816125280152612b610152f35b60405162461bcd60e51b815260206004820152601860248201527f496e76616c6964206465706c6f796572206164647265737300000000000000006044820152606490fd5b60405162461bcd60e51b815260206004820152601660248201527f496e76616c6964206b65657065722061646472657373000000000000000000006044820152606490fd5b60405162461bcd60e51b815260206004820152601960248201527f4475726174696f6e206d75737420626520706f736974697665000000000000006044820152606490fd5b60405162461bcd60e51b815260206004820152601660248201527f496e76616c696420726f757465722061646472657373000000000000000000006044820152606490fd5b60405162461bcd60e51b815260206004820152601460248201527f496e76616c69642057504c5320616464726573730000000000000000000000006044820152606490fd5b60405162461bcd60e51b815260206004820152601760248201527f496e76616c6964204d6f726269757320616464726573730000000000000000006044820152606490fd5b81516001600160501b0316600282015560209091019060010161014d565b634e487b7160e01b600052604160045260246000fd5b631e4fbdf760e01b600052600060045260246000fd5b600080fd5b51906001600160a01b038216820361047b5756fe6080604052600436101561001257600080fd5b6000803560e01c806306a746661461362a5780630aadbd1614611b4b5780630bc0815b146135fc57806319decb41146135d35780631b48959f146106175780631e2e7c8a146135215780631e8203251461343f57806323518968146134225780632361a26d1461303657806325131c5b146130315780632a9924c614612eb35780632d6fa0cc14612f7f5780632f93e0c81461069a5780633119ca4214612f5a578063322d61c114612f3c578063380dd90114612f1e57806343d284a414612eb85780634464e5cf14612eb35780634c6ed76414612e955780634fdeff1014612a1a578063549de0ce146129fc5780635600526614611b2d5780635d60c7be146129d35780635fce253d146123fa5780636031a52f146123dc578063625a7ee51461065357806364ce342b146123be578063671eea0114612374578063677bd9ff1461214d578063685d2531146120655780636ae4c9c114610bbc5780636e7bae8c14611d415780636ff55eaf14611ce7578063715018a614611c8d5780637169c71114611c2057806373f9afd514611be4578063747dff4214611b505780637587f06714611b4b5780637f81490e14611b2d57806380e8bfab1461163c57806381ebdc0f146115f75780638458a00c146115db578063856938601461158f578063871d729f14611571578063873f6f9e146115255780638c65c81f1461148d5780638d2cdc341461124a5780638da5cb5b146112235780638f1327c014610f2157806393a322b614610d4557806396f5acbe14610d1b5780639bfd649414610c1c5780639cbe5efd14610bfe5780639df5066a14610bda578063a28afcfa14610bbc578063a2e0ecda14610929578063adf59956146108c5578063aec9b6f414610880578063b333149e14610635578063b3b08fa314610816578063b4bb477d146107b0578063c07ce89214610702578063c41d2874146106fd578063c7d7f3f1146106fd578063d040f7ca146106b8578063d04b637d1461069a578063d2f9892b14610653578063d418bae214610635578063d82dd91d14610617578063dcbad98f146105f9578063dd8ab8f9146105dd578063ddfaf5c5146105b5578063e9337b4b14610513578063e941abfa146104da578063ed9c7d8d146104bd578063f2fde38b14610437578063f563724d1461040d578063f7cb789a146103ef578063fab14e8e146103d3578063fccc2813146103b65763fea9b5721461039857600080fd5b346103b357806003193601126103b357602060405160378152f35b80fd5b50346103b357806003193601126103b357602060405161dead8152f35b50346103b357806003193601126103b357602060405160068152f35b50346103b357806003193601126103b3576020600a54604051908152f35b50346103b35760203660031901126103b35760406020916004358152601383522054604051908152f35b50346103b35760203660031901126103b357610451613719565b61045961515c565b6001600160a01b031680156104a95781546001600160a01b03198116821783556001600160a01b03167f8be0079c531659141344cd1fd0a4f28419497f9722a3daafe3b4186f6b6457e08380a380f35b631e4fbdf760e01b82526004829052602482fd5b50346103b357806003193601126103b3576020604051613a988152f35b50346103b35760203660031901126103b3576020906040906001600160a01b03610502613719565b168152602383522054604051908152f35b50346103b35760203660031901126103b35760043561053061515c565b80156105705760407ff778ba9bcbe1fdf3ea184e76a442294f5f7e51b32d06ad176168d3b5ac8df55b91600a549080600a5582519182526020820152a180f35b60405162461bcd60e51b815260206004820152601960248201527f4475726174696f6e206d75737420626520706f736974697665000000000000006044820152606490fd5b50346103b357806003193601126103b357602060ff600d54166105db60405180926136b0565bf35b50346103b357806003193601126103b357602060405160018152f35b50346103b357806003193601126103b3576020601454604051908152f35b50346103b357806003193601126103b3576020601054604051908152f35b50346103b357806003193601126103b3576020601a54604051908152f35b50346103b35760403660031901126103b357604061066f613703565b9160043581526021602052209060018060a01b03166000526020526020604060002054604051908152f35b50346103b357806003193601126103b3576020601954604051908152f35b50346103b357806003193601126103b3576040517f00000000000000000000000000000000000000000000000000000000000000006001600160a01b03168152602090f35b6137ee565b50346103b357806003193601126103b35760c0908160405161072482826138cf565b369037604051600282825b6006821061079a575050509061074583836138cf565b6040519190825b600682106107845761016084611b58878201526103e860e08201526103e86101008201526101f46101208201526101f4610140820152f35b602080600192855181520193019101909161074c565b600160208192855481520193019101909161072f565b50346103b35760603660031901126103b3576107ca613703565b90604435916004358252601e602052604082209060018060a01b031660005260205260406000209081548310156103b35760206108078484613745565b90549060031b1c604051908152f35b50346103b35760603660031901126103b35761086061086e61087c61084961083c613719565b6044359060243590613d2c565b9193906040519586956060875260608701906137ba565b9085820360208701526137ba565b9083820360408501526137ba565b0390f35b50346103b357806003193601126103b3576040517f00000000000000000000000000000000000000000000000000000000000000006001600160a01b03168152602090f35b50346103b35760203660031901126103b3576001600160a01b036108e7613719565b16808252602460209081526040808420805460018201546002909201549486526023845294829020548251958652928501528301919091526060820152608090f35b50346103b35760203660031901126103b3576004356001600160401b038111610bb85761095a9036906004016136d3565b610962613ec3565b61096a613ee5565b610ba3575b60ff600d54166002811015610b8f5761098890156139d1565b610993811515613a0e565b6109a06064821115613a5a565b6109ac600e54826139be565b9182158015610a08575b506109c69082600b549133614c8c565b600b549160405191825283602083015260408201527f89c44c51a219608fe582e36358eeb570c24ec81f0e3d91398702ecd5a00adfee60603392a36001805580f35b7f0000000000000000000000000000000000000000000000000000000000000000610a3585303384613e7a565b6101f485028581046101f414831715610b7b576127109004916103e88602908682046103e8141715610b7b576109c69392610ab1929091612710900490610a8982610a8481818781818f613be1565b613be1565b9280151580610b5e575b610b3f575b505080151580610b31575b610b1c575b5060145461380b565b601455610ac08460155461380b565b601555610acf8460195461380b565b601955610ade8360185461380b565b601855338552602460205260408520610af884825461380b565b9055338552602460205260016040862001610b1485825461380b565b9055906109b6565b610b289060105461380b565b60105538610aa8565b610b3a826150d1565b610aa3565b600954610b57926001600160a01b0390911690615095565b3880610a98565b600854610b769083906001600160a01b031685615095565b610a93565b634e487b7160e01b87526011600452602487fd5b634e487b7160e01b84526021600452602484fd5b610bab613efa565b610bb3614b44565b61096f565b5080fd5b50346103b357806003193601126103b3576020601854604051908152f35b50346103b357806003193601126103b357602060405168056bc75e2d631000008152f35b50346103b357806003193601126103b3576020600b54604051908152f35b50346103b35760203660031901126103b357806004358152601c60205260408120916006830154916007840154611b588402908415858304611b5814811715610d07576103e88602908682046103e8141715610d075761271060099104939601955b60068110610cb3575060c0955090612710916040519586526020860152046040840152806060840152608083015260a0820152f35b610cbd8188613d18565b506001610cd360038301546002840154906139be565b910154818111610ce8575b5050600101610c7e565b95610cf9610cff9260019498613be1565b9061380b565b949038610cde565b634e487b7160e01b84526011600452602484fd5b50346103b35760203660031901126103b35760406020916004358152601283522054604051908152f35b50346103b35760203660031901126103b357806004358152601c602052604081209160e09160405192610d7881856138cf565b60068452601f19810180366020870137604051610d9583826138cf565b600681528136602083013760405190610dae84836138cf565b600682528236602084013760405192610dc785856138cf565b60068452366020850137600688015497611b588902988015818b04611b5814811715610f0d576103e882029182046103e8141715610b7b5761271090049590600901815b60068310610e825750505061271092610e5b610100989993610e4d610e6994610e3f6040519d8d8f9e8f90815201906137ba565b8c810360208e0152906137ba565b908a820360408c01526137ba565b9088820360608a01526137ba565b9460808701520460a08501528160c08501528301520390f35b909197610efb6001918a610ed681610ecd8f60038391610ea2838d613d18565b5090610eb38b830154988992613966565b528c610ec56002830154948592613966565b5201546139be565b9182918b613966565b5280821115610f0457610ee891613be1565b905b81610ef58d8b613966565b5261380b565b98019190610e0b565b50508390610eea565b634e487b7160e01b88526011600452602488fd5b50346103b35760203660031901126103b35760405190610f4082613898565b80825280602083015280604083015280606083015280608083015260c090604051610f6b83826138cf565b8236823760a084015280828401528060e08401528061010084015260405192610f9483856138cf565b815b8381106111ef57506101608185610120859401528261014082015201526004358152601c6020526040812091604051610fce81613898565b8354815260018401549260208201938452600285015492604083019384526003860154906060840191825260048701549060808501918252604051906110178260058b01613cd8565b61102181836138cf565b60a0860191825260068901549080870191825260078a01549260e0880193845260088b01549461010089019586526040519661105c886138b4565b60098d019c89895b6006821061119a5750508a9b9c9d50602860ff916101208d019a8b5261014060278201549d019c8d520154169c6101608c019d600281101561118657906110e395949392918f5260606040519e8f926020845261024084019f516020850152516040840152519101525160808d01525160a08c015251908a019061378f565b51610180880152516101a0870152516101c086015251926102206101e0860152610300850193915b6006811061112f57505050829361087c9151610200850152516102208401906136b0565b90919360208061117b60019361023f198a820301875260a060808a51805184528581015186850152604081015160408501526060810151606085015201519181608082015201906137ba565b96019301910161110b565b634e487b7160e01b8b52602160045260248bfd5b8f604051906111a882613867565b805482526001810154602083015260028101546040830152600381015460608301526004016111d690613c7c565b608082015281526020019e60050190600101909e611064565b6020906040516111fe81613867565b8481528483820152846040820152846060820152606060808201528187015201610f96565b50346103b357806003193601126103b357546040516001600160a01b039091168152602090f35b50346103b35760403660031901126103b357600435611267613703565b90808352601e6020526040832060018060a01b0383166000526020526112906040600020613c7c565b9283519161129d836138f0565b926112ab60405194856138cf565b8084526112ba601f19916138f0565b01825b8181106114415750508152601d6020526040812080546001600160a01b03909416948290815b86811080611437575b156113b057876112fc8286613773565b50546001600160a01b03161461131b575b61131690613cc9565b6112e3565b936113a86113169161132d8787613773565b5060ff60036040519261133f84613867565b80546001600160a01b0316845260405161135c8160018401613cd8565b61136760c0826138cf565b60208501526002810154604085015201548181161515606084015260081c1615156080820152611397828a613966565b526113a28189613966565b50613cc9565b94905061130d565b8583604051918291602083016020845282518091526020604085019301915b8181106113dd575050500390f35b91935091602061014060019260808751858060a01b038151168352611408858201518685019061378f565b604081015160e084015260608101511515610100840152015115156101208201520194019101918493926113cf565b50815185106112ec565b60209060409796975161145381613867565b85815260405160c061146581836138cf565b36823783820152856040820152856060820152856080820152828288010152019594956112bd565b50346103b35760203660031901126103b3576040610140916004358152601c602052206105db81549160018101549060028101546003820154600483015460068401549060078501549260088601549460ff6028602789015498015416976040519a8b5260208b015260408a01526060890152608088015260a087015260c086015260e08501526101008401526101208301906136b0565b50346103b35760403660031901126103b3576040611541613703565b9160043581526022602052209060018060a01b0316600052602052602060ff604060002054166040519015158152f35b50346103b357806003193601126103b3576020600f54604051908152f35b50346103b35760403660031901126103b35760406115ab613703565b916004358152601f602052209060018060a01b0316600052602052602060ff604060002054166040519015158152f35b50346103b357806003193601126103b357602060405160648152f35b50346103b357806003193601126103b3576040517f00000000000000000000000000000000000000000000000000000000000000006001600160a01b03168152602090f35b50346103b35760403660031901126103b3576004356001600160401b038111610bb85761166d9036906004016136d3565b60243591611679613ec3565b611681613ee5565b611b18575b60ff600d54166002811015611b045761169f90156139d1565b6116aa821515613a0e565b6116b76064831115613a5a565b6127108311611ac6576116cc600e54836139be565b9283159081156116e8575b50506109c69082600b549133614c8c565b613a98850291858304613a98141715611ab25761271001908161271011611ab257612710918261171892046139be565b04906040516117286060826138cf565b6002815260403660208301377f00000000000000000000000000000000000000000000000000000000000000006001600160a01b0316908161176982613949565b527f00000000000000000000000000000000000000000000000000000000000000006001600160a01b0316908161179f82613956565b526040516307c0329d60e21b81527f00000000000000000000000000000000000000000000000000000000000000006001600160a01b0316958990829081906117ed90869060048401613b75565b0381895afa8015611a6057611809918a91611a98575b50613949565b519261181784303384613e7a565b60405163095ea7b360e01b81526001600160a01b03871660048201526024810185905290602090829060449082908d905af18015611a6057611a6b575b506040516370a0823160e01b815230600482015294602086602481865afa958615611a60578996611a2c575b5061012c420191824211611a18579189916118b69493836040518097819582946338ed173960e01b845230908c60048601613ba7565b03925af1908115611a0d576024926020926119ed575b506040516370a0823160e01b815230600482015292839182905afa9081156119e25787916119a9575b506109c69361190391613be1565b61190f86821015613bee565b61191b8160145461380b565b60145561192a8160195461380b565b6019556119398560185461380b565b60185533875260246020526040872061195386825461380b565b905533875260246020526001604088200161196f82825461380b565b905560405191825260208201527fe6c59f5a592e6b8bc9f9531fb60a628be44498cfef9790c8ab07f6bb5c2d475860403392a290386116d7565b90506020813d6020116119da575b816119c4602093836138cf565b810103126119d557516109c66118f5565b600080fd5b3d91506119b7565b6040513d89823e3d90fd5b611a08903d808c833e611a0081836138cf565b810190613abf565b6118cc565b6040513d8a823e3d90fd5b634e487b7160e01b8a52601160045260248afd5b9095506020813d602011611a58575b81611a48602093836138cf565b810103126119d557519438611880565b3d9150611a3b565b6040513d8b823e3d90fd5b611a8c9060203d602011611a91575b611a8481836138cf565b810190613b8f565b611854565b503d611a7a565b611aac91503d808c833e611a0081836138cf565b38611803565b634e487b7160e01b86526011600452602486fd5b60405162461bcd60e51b815260206004820152601660248201527545787472612062756666657220746f6f206c6172676560501b6044820152606490fd5b634e487b7160e01b85526021600452602485fd5b611b20613efa565b611b28614b44565b611686565b50346103b357806003193601126103b3576020601b54604051908152f35b613647565b50346103b357806003193601126103b357610100906105db600b5491600c5490611b7c600a548361380b565b90601454601654908683526020805260408320549284421015600014611bd357935b60ff600d541695604051988952602089015260408801526060870152608086015260a085015260c084015260e08301906136b0565b50611bde4285613be1565b93611b9e565b50346103b35760203660031901126103b35760409081600435918281526012602052818120549281526013602052205482519182526020820152f35b50346103b357611c2f3661372f565b91908152601d602052604081209081548310156103b3576080611c528484613773565b5060ff60018060a01b0382541691600360028201549101549060405193845260208401528181161515604084015260081c1615156060820152f35b50346103b357806003193601126103b357611ca661515c565b80546001600160a01b03198116825581906001600160a01b03167f8be0079c531659141344cd1fd0a4f28419497f9722a3daafe3b4186f6b6457e08280a380f35b50346103b35760203660031901126103b3576040906001600160a01b03611d0c613719565b168152602460205220805461087c60026001840154930154604051938493846040919493926060820195825260208201520152565b50346103b35760203660031901126103b3576004356001600160401b038111610bb857611d72903690600401613664565b611d7d929192613ec3565b80156120205760328111611fdb5733928291825b818110611dda5784611dd085611dc881337f0000000000000000000000000000000000000000000000000000000000000000615095565b601a5461380b565b601a556001805580f35b611de5818385613939565b3590818652601c60205260ff6028604088200154166002811015611fc7576001611e0f9114613c3a565b818652602260205260ff60408088206000908a8252602052205416611f825781865260216020526040808720600090898252602052205415611f3d578160019287526021602052611e9160408089206000908b825260205220548097838a5260226020526040808b206000908d8252602052208660ff1982541617905561380b565b601b5490969081808210611f3557611ea891613be1565b601b55338852602360205260408820548111611f2f573388526023602052611ed48160408a2054613be1565b33895260236020526040892055338852602460205260026040892001611efb82825461380b565b90556040519081527f7472e24de4628e34b41a2aa1688ed4b46a9145b2de1cf93d74902473ccc1740d60203392a301611d91565b87611ed4565b505087611ea8565b60405162461bcd60e51b815260206004820152601f60248201527f4e6f7468696e6720746f20636c61696d20666f72207468697320726f756e64006044820152606490fd5b60405162461bcd60e51b815260206004820152601a60248201527f416c726561647920636c61696d6564207468697320726f756e640000000000006044820152606490fd5b634e487b7160e01b87526021600452602487fd5b60405162461bcd60e51b815260206004820152601760248201527f4d617820353020726f756e64732070657220636c61696d0000000000000000006044820152606490fd5b60405162461bcd60e51b815260206004820152601f60248201527f4d7573742073706563696679206174206c65617374206f6e6520726f756e64006044820152606490fd5b50346103b3576120743661372f565b61207c61515c565b81156121085780156120c357816040917fd881af4269dca5d92eca8711da0c5c270375b14f44c737bd74c5bd0785708cc493600e5580600f5582519182526020820152a180f35b60405162461bcd60e51b815260206004820152601a60248201527f504c53207072696365206d75737420626520706f7369746976650000000000006044820152606490fd5b60405162461bcd60e51b815260206004820152601e60248201527f4d6f7262697573207072696365206d75737420626520706f73697469766500006044820152606490fd5b50346103b35760203660031901126103b35760043561216a613ec3565b808252601c60205260ff60286040842001541660028110156123605760016121929114613c3a565b808252602260209081526040808420336000908152925290205460ff16612329578082526021602090815260408084203360009081529252902054156122f1578082526021602090815260408084203360008181529184528282205485875260228552838720828452909452919020805460ff191660011790556122389082907f0000000000000000000000000000000000000000000000000000000000000000615095565b601b54818082106122e95761224c91613be1565b601b5561225b81601a5461380b565b601a5533835260246020526002604084200161227882825461380b565b90553383526023602052604083205481116122e35733835260236020526122a3816040852054613be1565b338452602360205260408420556040519081527f7472e24de4628e34b41a2aa1688ed4b46a9145b2de1cf93d74902473ccc1740d60203392a36001805580f35b826122a3565b50508261224c565b60405162461bcd60e51b815260206004820152601060248201526f4e6f7468696e6720746f20636c61696d60801b6044820152606490fd5b60405162461bcd60e51b815260206004820152600f60248201526e105b1c9958591e4818db185a5b5959608a1b6044820152606490fd5b634e487b7160e01b83526021600452602483fd5b50346103b3576123833661372f565b9190815260208052604081209081548310156103b35760206123a58484613745565b905460405160039290921b1c6001600160a01b03168152f35b50346103b357806003193601126103b3576020601154604051908152f35b50346103b357806003193601126103b3576020601754604051908152f35b5060203660031901126103b3576004356001600160401b038111610bb8576124269036906004016136d3565b61242e613ec3565b612436613ee5565b6129be575b60ff600d54166002811015610b8f5761245490156139d1565b61245f811515613a0e565b61246c6064821115613a5a565b612478600e54826139be565b918215801561249157506109c69082600b549133614c8c565b604051906124a06060836138cf565b6002825260403660208401377f00000000000000000000000000000000000000000000000000000000000000006001600160a01b031690816124e184613949565b527f0000000000000000000000000000000000000000000000000000000000000000916001600160a01b0383168061251886613956565b526040516307c0329d60e21b81527f00000000000000000000000000000000000000000000000000000000000000006001600160a01b031695908a8180612563858e60048401613b75565b03818a5afa80156129295761257e918c916129aa5750613949565b51613a98810290808204613a981490151715612996576127109004612ee0810290808204612ee01490151715612996576127109004956101f487028781046101f41488151715612982576127109004936125d88589613be1565b9488340361293d576008548d918291829182916001600160a01b0316828215612934575bf11561292957803b1561292557604051630d0e30db60e41b81528c8160048189865af1801561291a57612906575b5060405163095ea7b360e01b81526001600160a01b038316600482015260248101869052906020908290818f816044810103925af180156128de576128e9575b506040516370a0823160e01b815230600482015293602085602481875afa9485156128de578c956128aa575b5061012c42019283421161289657916126ce959493918d8094604051988995869485936338ed173960e01b8552309160048601613ba7565b03925af190811561288b57602493602092612873575b506040516370a0823160e01b815230600482015293849182905afa8015611a6057899061283f575b6127169250613be1565b9161272387841015613bee565b6101f487028781046101f41483171561282b576127109004916103e88802908882046103e814171561282b576109c69594939261278f92909161271090049061277282610a848181878f613be1565b9280610b3f57505080151580610b3157610b1c575060145461380b565b60145561279e8660155461380b565b6015556127ad8660195461380b565b6019556127bc8560185461380b565b6018553387526024602052604087206127d686825461380b565b90553387526024602052600160408820016127f287825461380b565b905560405191825260208201527fe6c59f5a592e6b8bc9f9531fb60a628be44498cfef9790c8ab07f6bb5c2d475860403392a2906109b6565b634e487b7160e01b89526011600452602489fd5b506020823d60201161286b575b81612859602093836138cf565b810103126119d557612716915161270c565b3d915061284c565b612886903d808e833e611a0081836138cf565b6126e4565b6040513d8c823e3d90fd5b634e487b7160e01b8d52601160045260248dfd5b9094506020813d6020116128d6575b816128c6602093836138cf565b810103126119d557519338612696565b3d91506128b9565b6040513d8e823e3d90fd5b6129019060203d602011611a9157611a8481836138cf565b61266a565b8c612913919d929d6138cf565b9a3861262a565b6040513d8f823e3d90fd5b8b80fd5b6040513d8d823e3d90fd5b506108fc6125fc565b60405162461bcd60e51b815260206004820152601e60248201527f53656e6420657861637420504c5320616d6f756e7420726571756972656400006044820152606490fd5b634e487b7160e01b8c52601160045260248cfd5b634e487b7160e01b8b52601160045260248bfd5b611aac91503d808e833e611a0081836138cf565b6129c6613efa565b6129ce614b44565b61243b565b50346103b357806003193601126103b3576009546040516001600160a01b039091168152602090f35b50346103b357806003193601126103b3576020601654604051908152f35b50346103b35760203660031901126103b3576004356001600160401b038111610bb857612a4b9036906004016136d3565b612a53613ec3565b612a5b613ee5565b612e80575b60ff600d54166002811015610b8f57612a7990156139d1565b612a84811515613a0e565b612a916064821115613a5a565b612a9d600e54826139be565b9182158015612ab657506109c69082600b549133614c8c565b613a98840290848204613a9814811715611ab257604051612ad86060826138cf565b6002815260403660208301377f00000000000000000000000000000000000000000000000000000000000000006001600160a01b03169283612b1983613949565b527f0000000000000000000000000000000000000000000000000000000000000000916001600160a01b0383169081612b5182613956565b526040516307c0329d60e21b81527f00000000000000000000000000000000000000000000000000000000000000006001600160a01b0316938b9082908190612ba4908690612710900460048401613b75565b0381875afa801561292957612bbf918c916129aa5750613949565b51926101f484028481046101f4148515171561298257612710900496612c07612be8898761380b565b98612bf58a303386613e7a565b6008546001600160a01b031683615095565b60405163095ea7b360e01b81526001600160a01b038316600482015260248101869052906020908290818f816044810103925af180156128de57612e63575b506040516370a0823160e01b815230600482015293602085602481875afa9485156128de578c95612e2e575b5061012c4201928342116128965791612caa959493918d8094604051988995869485936338ed173960e01b8552309160048601613ba7565b03925af190811561288b57602493602092612e16575b506040516370a0823160e01b815230600482015293849182905afa8015611a60578990612dde575b612cf29250613be1565b91612cff87841015613bee565b6109c487028781046109c41482171561282b57612710612d20910488613be1565b916101f488028881046101f414831715611a18576127109004916103e88902908982046103e8141715611a1857916109c69695949391612710612d7b94049180610b3f57505080151580610b3157610b1c575060145461380b565b601455612d8a8660155461380b565b601555612d998160195461380b565b601955612da88560185461380b565b601855338752602460205260408720612dc286825461380b565b90553387526024602052600160408820016127f282825461380b565b506020823d602011612e0e575b81612df8602093836138cf565b81010312612e0a57612cf29151612ce8565b8880fd5b3d9150612deb565b612e29903d808e833e611a0081836138cf565b612cc0565b9094508b8160203d602011612e5c575b602092612e4b82846138cf565b508101031261292557519338612c72565b503d612e3e565b612e7b9060203d602011611a9157611a8481836138cf565b612c46565b612e88613efa565b612e90614b44565b612a60565b50346103b357806003193601126103b3576020600e54604051908152f35b613694565b50346103b357806003193601126103b35760e0906105db600b549160145490604060165491858152602080522054601154906010549260ff600d541694604051978852602088015260408701526060860152608085015260a084015260c08301906136b0565b50346103b357806003193601126103b3576020600c54604051908152f35b50346103b357806003193601126103b3576020601554604051908152f35b50346103b357806003193601126103b357604060115460105482519182526020820152f35b50346103b35760203660031901126103b357600435612fc08130337f0000000000000000000000000000000000000000000000000000000000000000613e7a565b612fcc8160145461380b565b601455612fdb8160195461380b565b601955338252602460205260016040832001612ff882825461380b565b9055600b5460405191825260208201527f10e8125e4d313a30949aec1902aab745e47c477416ff0f7028ba90f2b3cc872f60403392a280f35b61362a565b50346103b35760403660031901126103b3576004356001600160401b038111610bb857613067903690600401613664565b6024356001600160401b03811161341e57613086903690600401613664565b9091613090613ec3565b613098613ee5565b613409575b6130a881151561382e565b8181036133d2578493846130bb83613907565b946130c584613907565b948891600b54600e54925b8785106132a45750505050506130e781151561382e565b6101f4811161326c57856131e7575b50855b82811061315f575050509061314c7fbe50c24f28f34ee5642d05a6451b5e44fa60ec0c67182921dae227c02a2f2c6c9261313e604051936060855260608501906137ba565b9083820360208501526137ba565b9260408201528033930390a26001805580f35b8061316c60019287613966565b516131778287613966565b519061318f8161318885898961397a565b9033614c8c565b600b5481036131bb57506131a96131b191600e54906139be565b60145461380b565b6014555b016130f9565b906131c990600e54906139be565b90895260126020526131e060408a2091825461380b565b90556131b5565b6132138630337f0000000000000000000000000000000000000000000000000000000000000000613e7a565b61321f8660195461380b565b60195561322e8160185461380b565b60185533875260246020526132486040882091825461380b565b905533865260246020526001604087200161326486825461380b565b9055386130f6565b60405162461bcd60e51b815260206004820152601060248201526f546f6f206d616e79207469636b65747360801b6044820152606490fd5b90919293996132b48b8386613939565b356064811161339a576132c7908461380b565b6132d18c8c613966565b526132dd8b898961397a565b8097915015613360576064871161331b57600191610cf98761330a8f613310958f610ef58e938492613966565b996139be565b9a01939291906130d0565b60405162461bcd60e51b815260206004820152601960248201527f4d617820313030207469636b657473207065722067726f7570000000000000006044820152606490fd5b60405162461bcd60e51b81526020600482015260126024820152710456d707479207469636b65742067726f75760741b6044820152606490fd5b60405162461bcd60e51b815260206004820152601060248201526f4f666673657420746f6f206c6172676560801b6044820152606490fd5b60405162461bcd60e51b815260206004820152600f60248201526e098cadccee8d040dad2e6dac2e8c6d608b1b6044820152606490fd5b613411613efa565b613419614b44565b61309d565b8380fd5b50346103b357806003193601126103b3576020604051611b588152f35b50346103b357806003193601126103b357613458613ec3565b613460613ee5565b156134e85760ff600d541660028110156134d45761348f57613480613efa565b613488614b44565b6001805580f35b60405162461bcd60e51b815260206004820152601760248201527f526f756e6420616c72656164792066696e616c697a65640000000000000000006044820152606490fd5b634e487b7160e01b82526021600452602482fd5b60405162461bcd60e51b8152602060048201526011602482015270149bdd5b99081b9bdd08195e1c1a5c9959607a1b6044820152606490fd5b50346103b35760203660031901126103b3576004356135628130337f0000000000000000000000000000000000000000000000000000000000000000613e7a565b61356e8160105461380b565b60105561357d8160195461380b565b60195533825260246020526001604083200161359a82825461380b565b9055600b5460405191825260208201527fa680af138e3da43ee96c4f10946fc9844b63a4a3b1f1811cd4049c33cc34aa1760403392a280f35b50346103b357806003193601126103b3576008546040516001600160a01b039091168152602090f35b50346103b35760203660031901126103b3576004356006811015610bb8576020915060020154604051908152f35b346119d55760003660031901126119d55760206040516101f48152f35b346119d55760003660031901126119d55760206040516103e88152f35b9181601f840112156119d5578235916001600160401b0383116119d5576020808501948460051b0101116119d557565b346119d55760003660031901126119d557602060405160008152f35b9060028210156136bd5752565b634e487b7160e01b600052602160045260246000fd5b9181601f840112156119d5578235916001600160401b0383116119d55760208085019460c085020101116119d557565b602435906001600160a01b03821682036119d557565b600435906001600160a01b03821682036119d557565b60409060031901126119d5576004359060243590565b805482101561375d5760005260206000200190600090565b634e487b7160e01b600052603260045260246000fd5b805482101561375d5760005260206000209060021b0190600090565b906000905b600682106137a157505050565b60208060019260ff865116815201930191019091613794565b906020808351928381520192019060005b8181106137d85750505090565b82518452602093840193909201916001016137cb565b346119d55760003660031901126119d55760206040516127108152f35b9190820180921161381857565b634e487b7160e01b600052601160045260246000fd5b1561383557565b60405162461bcd60e51b815260206004820152600a6024820152694e6f207469636b65747360b01b6044820152606490fd5b60a081019081106001600160401b0382111761388257604052565b634e487b7160e01b600052604160045260246000fd5b61018081019081106001600160401b0382111761388257604052565b60c081019081106001600160401b0382111761388257604052565b90601f801991011681019081106001600160401b0382111761388257604052565b6001600160401b0381116138825760051b60200190565b90613911826138f0565b61391e60405191826138cf565b828152809261392f601f19916138f0565b0190602036910137565b919081101561375d5760051b0190565b80511561375d5760200190565b80516001101561375d5760400190565b805182101561375d5760209160051b010190565b919081101561375d5760051b81013590601e19813603018212156119d55701908135916001600160401b0383116119d55760200160c08302360381136119d5579190565b8181029291811591840414171561381857565b156139d857565b60405162461bcd60e51b815260206004820152600e60248201526d2937bab732103737ba1037b832b760911b6044820152606490fd5b15613a1557565b60405162461bcd60e51b815260206004820152601a60248201527f4d75737420627579206174206c656173742031207469636b65740000000000006044820152606490fd5b15613a6157565b60405162461bcd60e51b815260206004820152601660248201527509ac2f04062606040e8d2c6d6cae8e640e0cae440e8f60531b6044820152606490fd5b8115613aa9570490565b634e487b7160e01b600052601260045260246000fd5b6020818303126119d5578051906001600160401b0382116119d557019080601f830112156119d5578151613af2816138f0565b92613b0060405194856138cf565b81845260208085019260051b8201019283116119d557602001905b828210613b285750505090565b8151815260209182019101613b1b565b906020808351928381520192019060005b818110613b565750505090565b82516001600160a01b0316845260209384019390920191600101613b49565b604090613b8c939281528160208201520190613b38565b90565b908160209103126119d5575180151581036119d55790565b90608092613bcd919695949683526000602084015260a0604084015260a0830190613b38565b6001600160a01b0390951660608201520152565b9190820391821161381857565b15613bf557565b60405162461bcd60e51b815260206004820152601f60248201527f496e73756666696369656e74204d6f72626975732061667465722073776170006044820152606490fd5b15613c4157565b60405162461bcd60e51b8152602060048201526013602482015272149bdd5b99081b9bdd08199a5b985b1a5e9959606a1b6044820152606490fd5b906040519182815491828252602082019060005260206000209260005b818110613cb0575050613cae925003836138cf565b565b8454835260019485019487945060209093019201613c99565b60001981146138185760010190565b60ff60a091548181168452818160081c166020850152818160101c166040850152818160181c166060850152818160201c16608085015260281c16910152565b90600681101561375d576005020190600090565b6001600160a01b0316600081815260256020526040902054909281831015613e2957613d6c91613d5d84928361380b565b90808211613e21575b50613be1565b92613d7684613907565b93613d8081613907565b93613d8a82613907565b9360005b838110613d9b5750505050565b600190836000526025602052613dbf6040600020613db9838661380b565b90613745565b90549060031b1c80613dd1838c613966565b5280600052601e6020526040806000206000908782526020522054613df6838b613966565b5260005260216020526040806000206000908682526020522054613e1a8289613966565b5201613d8e565b905038613d66565b50505050602060405191613e3d82846138cf565b60008352600036813760405192613e5483856138cf565b60008452600036813760405192613e6b81856138cf565b60008452506000368137929190565b6040516323b872dd60e01b60208201526001600160a01b039283166024820152929091166044830152606480830193909352918152613cae91613ebe6084836138cf565b615185565b600260015414613ed4576002600155565b633ee5aeb560e01b60005260046000fd5b613ef4600c54600a549061380b565b42101590565b60ff600d541660028110156136bd57613f1390156139d1565b600b546000818152601c60208181526040808420858155600c54600182015542600282015543600382018190556004820155601554600682015560168054600783015583805291909420549290915260089092015554806142885750604051613f7b816138b4565b6000815260006020820152600060408201526000606082015260006080820152600060a082015281600052601c602052600560406000200160009160005b6006811061425a57505055604051613fd0816138b4565b602090604051613fe083826138cf565b60008152600036813760405190613ff682613867565b6001825260008483015260006040830152600060608301526080820152815260405161402283826138cf565b6000815260003681376040519061403882613867565b60028252600084830152600060408301526000606083015260808201528282015260405161406683826138cf565b6000815260003681376040519061407c82613867565b600382526000848301526000604083015260006060830152608082015260408201526040516140ab83826138cf565b600081526000368137604051906140c182613867565b600482526000848301526000604083015260006060830152608082015260608201526040516140f083826138cf565b6000815260003681376040519061410682613867565b6005825260008483015260006040830152600060608301526080820152608082015260405161413583826138cf565b6000815260003681376040519061414b82613867565b600682526000848301526000604083015260006060830152608082015260a082015282600052601c82526009604060002001906000905b6006821061423d57505050601c908260005252600060276040822001556141ad60145460115461380b565b6011555b6000818152601c602052604090819020602881018054600160ff199182168117909255600d8054909116909117905560068101546007820154600883015493517fa9cc37513915a78ee814de52f7f030c2a34453b7adfeeefb714b19d96a9b027f9461012094919390929161422a908590600501613cd8565b60c084015260e0830152610100820152a2565b6005848261424e600194518761521f565b01930191019091614182565b9092602061427f6001928460ff885116919060ff809160031b9316831b921b19161790565b94019101613fb9565b60c0908160405161429982826138cf565b3690374315614b3c57600019430143811161381857905b6014549060405191602083019340845243406040840152856060840152608083015260a082015242838201523260601b60e082015260d481526142f460f4826138cf565b5190206040519061430583836138cf565b823683376040519061070061431a81846138cf565b3683376000915b60068310614a455750505061433590615436565b9082600052601c6020526005604060002001829060009160005b60068110614a17575050556040518390836000825b600682106149fa5750505060e07f2e6256eccb4940952826b68d4bbc81c53f3abf38441cd9cc245407caf206b20f914385820152a282600052601d602052604060002060e090604051926143b883856138cf565b82368537604051926143ca81856138cf565b60005b8181106149ec5750508154909160015b60068111156149bf57506000905b82821061483157505050506001905b60068211156146365750505081600052601c602052600560406000200160009160005b60068110614608575050556015546000828152601c60208181526040808420600681019590955560165460078601558180529092205491526008820155818155600c546001820155426002820155436003820155601f0154158015906145ee575b6145e0575b80600052601d602052604060002060005b600681106144b657505080600052601c602052600060276040822001556141b1565b82600052601c6020526144d0816009604060002001613d18565b5060028101546144e4575b50600101614494565b919092600092600481015b80548510156145d2576145028582613745565b90549060031b1c9560005b85548110156145c6578760026145238389613773565b500154146145335760010161450d565b6001929691975061459a60038501805487600052602160205261458060408060002061455f878d613773565b505460a08a901b8a900316600090815260209190915220805490929061380b565b905561458f8154601b5461380b565b601b55549187613773565b50838060a01b0390541660005260236020526145bc604060002091825461380b565b90555b01936144ef565b509550936001906145bf565b5050926001919250906144db565b6145e9816152dd565b614483565b5080600052601c602052602460406000200154151561447e565b9092602061462d6001928460ff885116919060ff809160031b9316831b921b19161790565b9401910161441d565b6000198201949193909284861192918361381857600687101561375d57600186015461466c614665888561520e565b51826139be565b91614677888561520e565b51156147a05761469061468a898661520e565b51613907565b9960005b61469e8a8761520e565b518110156146d257808c6146cb826146c46001958f8f906146be9161520e565b51613966565b5192613966565b5201614694565b5099929097939695919894986146e8858961520e565b5193604051946146f786613867565b8686528360208701526040860152816060860152608085015289600052601c6020526009604060002001926138185761475f8a9461475961479a987fdb21cff4ba65516b5b7e172f3a62c1edcf1d5097aa66571946bf605a1cd870c796613d18565b906152ce565b61479261476c868a61520e565b519160405193849388859094939260609260808301968352602083015260408201520152565b0390a2613cc9565b906143fa565b96929594508397917fdb21cff4ba65516b5b7e172f3a62c1edcf1d5097aa66571946bf605a1cd870c79161482c61479a9694614759602091601c604051936147e881866138cf565b600085526000368137604051946147fe86613867565b8b86526000828701526000604087015260006060870152608086015289600052526009604060002001613d18565b61475f565b93929681929761485661484960019b99989488613773565b506040519b8c9101613cd8565b614860818b6138cf565b6000978892899a5b60068c10806149b5575b1561493e57935b600681108d8d838d8461491e575b505050501561489e5761489990613cc9565b614879565b97939091929a898d828b6006811093846148f6575b505050506148d1575b6148c590613cc9565b9a929190979397614868565b979960ff1660ff8114613818576148ee60016148c592019b613cc9565b9890506148bc565b60ff93945061490a614912939285926151fd565b5116936151fd565b5116148d828b8d6148b3565b60ff93945061490a614932939285926151fd565b5116118d8d838d614887565b9592949899909a5060ff919b50600193509695961680614962575b500190926143eb565b600261496e8388613773565b50015461499061497e838a61520e565b51614989848c61520e565b5190613966565b526149ae6149a76149a1838b61520e565b51613cc9565b918961520e565b5238614959565b5060068510614872565b6149e4906149cf84959395613907565b6149d9828861520e565b526113a2818761520e565b9290926143dd565b6060858201526020016143cd565b825160ff1681528794506020928301926001929092019101614364565b90926020614a3c6001928460ff885116919060ff809160031b9316831b921b19161790565b9401910161434f565b919590939460009560009660015b15614aa9575b506000956040516020810191825289604082015288606082015260608152614a826080826138cf565b519020966037880660018101809111610f0d5760ff614aa2911691613cc9565b9796614a53565b614ab660ff8216866151ec565b51151580614b32575b614a595760ff91969493989297501690614ad982846151ec565b51614b00576001614af7838294614af0858a6151fd565b52856151ec565b52019190614321565b60405162461bcd60e51b815260206004820152600a602482015269149391c819985a5b195960b21b6044820152606490fd5b5060648810614abf565b6000906142b0565b614b4f600b54613cc9565b600b5542600c5560ff19600d5416600d55601154614b7f600b54918260005260126020526040600020549061380b565b60145560006015556000601155806000526013602052604060002054601655600052601260205260006040812055600b54600052601360205260006040812055600b547fa359b664a68acd8839e42112eb50eff3408165e15074fde89ddb58a0db2e691d6040600c54614bf4600a548261380b565b82519182526020820152a2565b919081101561375d5760c0020190565b60405190614c2060c0836138cf565b819060c08101903682116119d557915b818310614c3d5750505090565b823560ff811681036119d557815260209283019201614c30565b8054600160401b81101561388257614c7491600182018155613745565b819291549060031b91821b91600019901b1916179055565b60009493915b838610614e0d5750908092939450600052601f602052604060002060018060a01b03821660005260205260ff6040600020541615614d70575b60018060a01b031680600052602660205260406000208260005260205260ff6040600020541615614d2f575b50600b548103614d135750614d0e9060165461380b565b601655565b6000526013602052614d2b604060002091825461380b565b9055565b8060005260266020526040600020826000526020526040600020600160ff198254161790556000526025602052614d6a816040600020614c57565b38614cf7565b816000526020805260406000208054600160401b81101561388257614d9a91600182018155613745565b81549060031b9060018060a01b038416821b9160018060a01b03901b191617905581600052601f602052604060002060018060a01b0382166000526020526040600020600160ff1982541617905581600052601c6020526008604060002001805490600182018092116138185755614ccb565b614e20614e1b878684614c01565b614c11565b60005b60068110614fa6575050614e43614e3e614e1b888785614c01565b615436565b956017549660405190614e5582613867565b60018060a01b0385168252602082019081526040820198895260608201916000835260808101916000835287600052601d60205260406000208054600160401b81101561388257614eab91600182018155613773565b929092614f90575182546001600160a01b0319166001600160a01b03919091161782555160009a908b5b60068110614f61575050906003916001969798999a9b87830155516002820155019151151560ff8019845416911617825551151561ff0082549160081b169061ff00191617905584600052601e602052614f48604080600020600090858060a01b03881682526020522060175490614c57565b614f53601754613cc9565b601755019493929190614c92565b909b6020614f876001928f60ff86915116919060ff809160031b9316831b921b19161790565b9d019101614ed5565b634e487b7160e01b600052600060045260246000fd5b600160ff614fb483856151fd565b511610158061507d575b156150425760018101808211613818575b60068110614fe05750600101614e23565b60ff614fec83856151fd565b511660ff614ffa83866151fd565b51161461500957600101614fcf565b60405162461bcd60e51b81526020600482015260116024820152704475706c6963617465206e756d6265727360781b6044820152606490fd5b60405162461bcd60e51b81526020600482015260136024820152724e756d626572206f7574206f662072616e676560681b6044820152606490fd5b50603760ff61508c83856151fd565b51161115614fbe565b60405163a9059cbb60e01b60208201526001600160a01b03929092166024830152604480830193909352918152613cae91613ebe6064836138cf565b80156151595760207f605c5b4f4308c1e42a024db1dc59389917ccc2058e83a1f6b672d8d60d12d7e19161515060405163a9059cbb60e01b8482015261dead60248201528260448201526044815261512a6064826138cf565b7f0000000000000000000000000000000000000000000000000000000000000000615185565b604051908152a1565b50565b6000546001600160a01b0316330361517057565b63118cdaa760e01b6000523360045260246000fd5b906000602091828151910182855af1156151e0576000513d6151d757506001600160a01b0381163b155b6151b65750565b635274afe760e01b60009081526001600160a01b0391909116600452602490fd5b600114156151af565b6040513d6000823e3d90fd5b90603881101561375d5760051b0190565b90600681101561375d5760051b0190565b90600781101561375d5760051b0190565b60046080918351815560208401516001820155604084015160028201556060840151600382015501910151908151916001600160401b03831161388257600160401b83116138825781548383558084106152a5575b5060200190600052602060002060005b8381106152915750505050565b600190602084519401938184015501615284565b8260005283602060002091820191015b8181106152c25750615274565b600081556001016152b5565b9190614f9057613cae9161521f565b601054801561543257604181028181046041036138185760649004602382029182046023036138185760647fef1a961662514dbdef51b7e167146c111d6ffe2953a5ded0b6e8091d6ed09b1d920483600052601c6020526024604060002001546153d6575b83600052601c602052601f6040600020015461537a575b60105460408051918252602082019390935291820152606090a26000601055565b83600052601c602052615395601f6040600020015482613a9f565b84600052601c6020526153b1602060406000200191825461380b565b905583600052601c602052601e6040600020016153cf82825461380b565b9055615359565b83600052601c6020526153f160246040600020015483613a9f565b84600052601c60205261540d602560406000200191825461380b565b905583600052601c602052602360406000200161542b83825461380b565b9055615342565b5050565b60c060405161544582826138cf565b369037600560005b81811061545957505090565b90919260005b6154698385613be1565b8110156154e45760ff61547c82876151fd565b511690600181018082116138185760019260ff615499838a6151fd565b5116106154a8575b500161545f565b60006154d260ff6154b9848b6151fd565b51169260ff6154c8868c6151fd565b51169250896151fd565b526154dd82886151fd565b52386154a1565b5092919060010161544d56fea264697066735822122084b3c5fa556bf40c063e6258d932c981177f9ce446425b86dbdc0e455842696c64736f6c634300081c0033",
  "linkReferences": {},
  "deployedLinkReferences": {}
}