{
  "_format": "hh-sol-artifact-1",
  "contractName": "CryptoKeno",
  "sourceName": "contracts/contracts/CryptoKeno.sol",
  "abi": [
    {
      "inputs": [
        {
          "internalType": "address",
          "name": "token_",
          "type": "address"
        },
        {
          "internalType": "uint8",
          "name": "maxSpot_",
          "type": "uint8"
        },
        {
          "internalType": "uint256",
          "name": "roundDuration_",
          "type": "uint256"
        },
        {
          "internalType": "uint256",
          "name": "feeBps_",
          "type": "uint256"
        },
        {
          "internalType": "address",
          "name": "feeRecipient_",
          "type": "address"
        },
        {
          "internalType": "uint256",
          "name": "",
          "type": "uint256"
        },
        {
          "internalType": "address",
          "name": "wrappedPulse_",
          "type": "address"
        },
        {
          "internalType": "address",
          "name": "pulseXRouter_",
          "type": "address"
        }
      ],
      "stateMutability": "nonpayable",
      "type": "constructor"
    },
    {
      "inputs": [],
      "name": "AlreadyClaimed",
      "type": "error"
    },
    {
      "inputs": [],
      "name": "ClaimExpired",
      "type": "error"
    },
    {
      "inputs": [],
      "name": "EnforcedPause",
      "type": "error"
    },
    {
      "inputs": [],
      "name": "ExpectedPause",
      "type": "error"
    },
    {
      "inputs": [],
      "name": "InvalidAddonFlags",
      "type": "error"
    },
    {
      "inputs": [],
      "name": "InvalidNumbers",
      "type": "error"
    },
    {
      "inputs": [],
      "name": "InvalidSpotSize",
      "type": "error"
    },
    {
      "inputs": [
        {
          "internalType": "address",
          "name": "owner",
          "type": "address"
        }
      ],
      "name": "OwnableInvalidOwner",
      "type": "error"
    },
    {
      "inputs": [
        {
          "internalType": "address",
          "name": "account",
          "type": "address"
        }
      ],
      "name": "OwnableUnauthorizedAccount",
      "type": "error"
    },
    {
      "inputs": [],
      "name": "RandomnessNotReady",
      "type": "error"
    },
    {
      "inputs": [],
      "name": "ReentrancyGuardReentrantCall",
      "type": "error"
    },
    {
      "inputs": [],
      "name": "RoundAlreadyFinalized",
      "type": "error"
    },
    {
      "inputs": [],
      "name": "RoundNotFinalized",
      "type": "error"
    },
    {
      "inputs": [],
      "name": "RoundNotOpen",
      "type": "error"
    },
    {
      "inputs": [],
      "name": "RoundStillActive",
      "type": "error"
    },
    {
      "inputs": [
        {
          "internalType": "address",
          "name": "token",
          "type": "address"
        }
      ],
      "name": "SafeERC20FailedOperation",
      "type": "error"
    },
    {
      "inputs": [],
      "name": "WagerTooHigh",
      "type": "error"
    },
    {
      "inputs": [],
      "name": "ZeroWeightDistribution",
      "type": "error"
    },
    {
      "anonymous": false,
      "inputs": [
        {
          "indexed": false,
          "internalType": "uint256",
          "name": "multiplierCost",
          "type": "uint256"
        },
        {
          "indexed": false,
          "internalType": "uint256",
          "name": "bullsEyeCost",
          "type": "uint256"
        }
      ],
      "name": "AddonCostsUpdated",
      "type": "event"
    },
    {
      "anonymous": false,
      "inputs": [
        {
          "indexed": true,
          "internalType": "address",
          "name": "player",
          "type": "address"
        },
        {
          "indexed": false,
          "internalType": "bool",
          "name": "enabled",
          "type": "bool"
        }
      ],
      "name": "AutoClaimEnabled",
      "type": "event"
    },
    {
      "anonymous": false,
      "inputs": [
        {
          "indexed": true,
          "internalType": "uint256",
          "name": "roundId",
          "type": "uint256"
        },
        {
          "indexed": true,
          "internalType": "uint256",
          "name": "ticketId",
          "type": "uint256"
        },
        {
          "indexed": true,
          "internalType": "address",
          "name": "player",
          "type": "address"
        },
        {
          "indexed": false,
          "internalType": "uint256",
          "name": "prize",
          "type": "uint256"
        }
      ],
      "name": "AutoClaimProcessed",
      "type": "event"
    },
    {
      "anonymous": false,
      "inputs": [
        {
          "indexed": false,
          "internalType": "uint8",
          "name": "spotSize",
          "type": "uint8"
        },
        {
          "indexed": false,
          "internalType": "uint8",
          "name": "hits",
          "type": "uint8"
        },
        {
          "indexed": false,
          "internalType": "uint256",
          "name": "multiplier",
          "type": "uint256"
        }
      ],
      "name": "BullsEyePaytableUpdated",
      "type": "event"
    },
    {
      "anonymous": false,
      "inputs": [
        {
          "indexed": false,
          "internalType": "uint256",
          "name": "amount",
          "type": "uint256"
        }
      ],
      "name": "BurnExecuted",
      "type": "event"
    },
    {
      "anonymous": false,
      "inputs": [
        {
          "indexed": false,
          "internalType": "uint256",
          "name": "oldThreshold",
          "type": "uint256"
        },
        {
          "indexed": false,
          "internalType": "uint256",
          "name": "newThreshold",
          "type": "uint256"
        }
      ],
      "name": "BurnThresholdUpdated",
      "type": "event"
    },
    {
      "anonymous": false,
      "inputs": [
        {
          "indexed": false,
          "internalType": "uint256",
          "name": "feeBps",
          "type": "uint256"
        },
        {
          "indexed": false,
          "internalType": "address",
          "name": "recipient",
          "type": "address"
        }
      ],
      "name": "FeeUpdated",
      "type": "event"
    },
    {
      "anonymous": false,
      "inputs": [
        {
          "indexed": false,
          "internalType": "uint256",
          "name": "maxWagerPerDraw",
          "type": "uint256"
        }
      ],
      "name": "MaxWagerUpdated",
      "type": "event"
    },
    {
      "anonymous": false,
      "inputs": [
        {
          "indexed": false,
          "internalType": "uint256[]",
          "name": "values",
          "type": "uint256[]"
        },
        {
          "indexed": false,
          "internalType": "uint256[]",
          "name": "weights",
          "type": "uint256[]"
        }
      ],
      "name": "MultiplierDistributionUpdated",
      "type": "event"
    },
    {
      "anonymous": false,
      "inputs": [
        {
          "indexed": true,
          "internalType": "address",
          "name": "previousOwner",
          "type": "address"
        },
        {
          "indexed": true,
          "internalType": "address",
          "name": "newOwner",
          "type": "address"
        }
      ],
      "name": "OwnershipTransferred",
      "type": "event"
    },
    {
      "anonymous": false,
      "inputs": [
        {
          "indexed": false,
          "internalType": "address",
          "name": "account",
          "type": "address"
        }
      ],
      "name": "Paused",
      "type": "event"
    },
    {
      "anonymous": false,
      "inputs": [
        {
          "indexed": false,
          "internalType": "uint8",
          "name": "spotSize",
          "type": "uint8"
        },
        {
          "indexed": false,
          "internalType": "uint8",
          "name": "hits",
          "type": "uint8"
        },
        {
          "indexed": false,
          "internalType": "uint256",
          "name": "multiplier",
          "type": "uint256"
        }
      ],
      "name": "PaytableUpdated",
      "type": "event"
    },
    {
      "anonymous": false,
      "inputs": [
        {
          "indexed": true,
          "internalType": "uint256",
          "name": "roundId",
          "type": "uint256"
        },
        {
          "indexed": true,
          "internalType": "uint256",
          "name": "ticketId",
          "type": "uint256"
        },
        {
          "indexed": true,
          "internalType": "address",
          "name": "player",
          "type": "address"
        },
        {
          "indexed": false,
          "internalType": "uint256",
          "name": "basePrize",
          "type": "uint256"
        },
        {
          "indexed": false,
          "internalType": "uint256",
          "name": "bullsEyePrize",
          "type": "uint256"
        },
        {
          "indexed": false,
          "internalType": "uint256",
          "name": "multiplierApplied",
          "type": "uint256"
        },
        {
          "indexed": false,
          "internalType": "uint256",
          "name": "paidPrize",
          "type": "uint256"
        }
      ],
      "name": "PrizeClaimed",
      "type": "event"
    },
    {
      "anonymous": false,
      "inputs": [
        {
          "indexed": true,
          "internalType": "uint256",
          "name": "roundId",
          "type": "uint256"
        },
        {
          "indexed": true,
          "internalType": "uint256",
          "name": "ticketId",
          "type": "uint256"
        },
        {
          "indexed": false,
          "internalType": "uint256",
          "name": "owed",
          "type": "uint256"
        },
        {
          "indexed": false,
          "internalType": "uint256",
          "name": "paid",
          "type": "uint256"
        }
      ],
      "name": "PrizeShortfall",
      "type": "event"
    },
    {
      "anonymous": false,
      "inputs": [
        {
          "indexed": false,
          "internalType": "uint256",
          "name": "baseSeed",
          "type": "uint256"
        },
        {
          "indexed": false,
          "internalType": "uint256",
          "name": "costPerDraw",
          "type": "uint256"
        },
        {
          "indexed": false,
          "internalType": "uint256",
          "name": "feeBps",
          "type": "uint256"
        }
      ],
      "name": "ProgressiveConfigUpdated",
      "type": "event"
    },
    {
      "anonymous": false,
      "inputs": [
        {
          "indexed": false,
          "internalType": "uint256",
          "name": "newAmount",
          "type": "uint256"
        },
        {
          "indexed": false,
          "internalType": "uint256",
          "name": "totalCollected",
          "type": "uint256"
        }
      ],
      "name": "ProgressivePoolUpdated",
      "type": "event"
    },
    {
      "anonymous": false,
      "inputs": [
        {
          "indexed": true,
          "internalType": "uint256",
          "name": "roundId",
          "type": "uint256"
        },
        {
          "indexed": true,
          "internalType": "uint256",
          "name": "ticketId",
          "type": "uint256"
        },
        {
          "indexed": true,
          "internalType": "address",
          "name": "player",
          "type": "address"
        },
        {
          "indexed": false,
          "internalType": "uint256",
          "name": "jackpotAmount",
          "type": "uint256"
        },
        {
          "indexed": false,
          "internalType": "uint256",
          "name": "shareAmount",
          "type": "uint256"
        }
      ],
      "name": "ProgressiveWon",
      "type": "event"
    },
    {
      "anonymous": false,
      "inputs": [
        {
          "indexed": true,
          "internalType": "uint256",
          "name": "roundId",
          "type": "uint256"
        },
        {
          "indexed": false,
          "internalType": "bytes32",
          "name": "commitment",
          "type": "bytes32"
        }
      ],
      "name": "RandomnessCommitted",
      "type": "event"
    },
    {
      "anonymous": false,
      "inputs": [
        {
          "indexed": false,
          "internalType": "address",
          "name": "provider",
          "type": "address"
        }
      ],
      "name": "RandomnessProviderUpdated",
      "type": "event"
    },
    {
      "anonymous": false,
      "inputs": [
        {
          "indexed": true,
          "internalType": "uint256",
          "name": "roundId",
          "type": "uint256"
        },
        {
          "indexed": false,
          "internalType": "bytes32",
          "name": "seed",
          "type": "bytes32"
        }
      ],
      "name": "RandomnessRevealed",
      "type": "event"
    },
    {
      "anonymous": false,
      "inputs": [
        {
          "indexed": true,
          "internalType": "uint256",
          "name": "roundId",
          "type": "uint256"
        }
      ],
      "name": "RoundClosed",
      "type": "event"
    },
    {
      "anonymous": false,
      "inputs": [
        {
          "indexed": false,
          "internalType": "uint256",
          "name": "newDuration",
          "type": "uint256"
        }
      ],
      "name": "RoundDurationUpdated",
      "type": "event"
    },
    {
      "anonymous": false,
      "inputs": [
        {
          "indexed": true,
          "internalType": "uint256",
          "name": "roundId",
          "type": "uint256"
        },
        {
          "indexed": false,
          "internalType": "uint8[20]",
          "name": "winningNumbers",
          "type": "uint8[20]"
        },
        {
          "indexed": false,
          "internalType": "uint8",
          "name": "bullsEyeIndex",
          "type": "uint8"
        },
        {
          "indexed": false,
          "internalType": "uint256",
          "name": "multiplierOutcome",
          "type": "uint256"
        }
      ],
      "name": "RoundFinalized",
      "type": "event"
    },
    {
      "anonymous": false,
      "inputs": [
        {
          "indexed": true,
          "internalType": "uint256",
          "name": "roundId",
          "type": "uint256"
        },
        {
          "indexed": false,
          "internalType": "bytes32",
          "name": "requestId",
          "type": "bytes32"
        }
      ],
      "name": "RoundRandomnessRequested",
      "type": "event"
    },
    {
      "anonymous": false,
      "inputs": [
        {
          "indexed": true,
          "internalType": "uint256",
          "name": "roundId",
          "type": "uint256"
        },
        {
          "indexed": false,
          "internalType": "uint64",
          "name": "startTime",
          "type": "uint64"
        },
        {
          "indexed": false,
          "internalType": "uint64",
          "name": "endTime",
          "type": "uint64"
        }
      ],
      "name": "RoundStarted",
      "type": "event"
    },
    {
      "anonymous": false,
      "inputs": [
        {
          "indexed": true,
          "internalType": "address",
          "name": "player",
          "type": "address"
        },
        {
          "indexed": true,
          "internalType": "uint256",
          "name": "ticketId",
          "type": "uint256"
        },
        {
          "indexed": true,
          "internalType": "uint256",
          "name": "firstRoundId",
          "type": "uint256"
        },
        {
          "indexed": false,
          "internalType": "uint8",
          "name": "draws",
          "type": "uint8"
        },
        {
          "indexed": false,
          "internalType": "uint8",
          "name": "spotSize",
          "type": "uint8"
        },
        {
          "indexed": false,
          "internalType": "uint16",
          "name": "addons",
          "type": "uint16"
        },
        {
          "indexed": false,
          "internalType": "uint256",
          "name": "wagerPerDraw",
          "type": "uint256"
        },
        {
          "indexed": false,
          "internalType": "uint256",
          "name": "grossCost",
          "type": "uint256"
        }
      ],
      "name": "TicketPurchased",
      "type": "event"
    },
    {
      "anonymous": false,
      "inputs": [
        {
          "indexed": false,
          "internalType": "address",
          "name": "account",
          "type": "address"
        }
      ],
      "name": "Unpaused",
      "type": "event"
    },
    {
      "inputs": [],
      "name": "ADDON_BULLSEYE",
      "outputs": [
        {
          "internalType": "uint16",
          "name": "",
          "type": "uint16"
        }
      ],
      "stateMutability": "view",
      "type": "function"
    },
    {
      "inputs": [],
      "name": "ADDON_MULTIPLIER",
      "outputs": [
        {
          "internalType": "uint16",
          "name": "",
          "type": "uint16"
        }
      ],
      "stateMutability": "view",
      "type": "function"
    },
    {
      "inputs": [],
      "name": "ADDON_PLUS3",
      "outputs": [
        {
          "internalType": "uint16",
          "name": "",
          "type": "uint16"
        }
      ],
      "stateMutability": "view",
      "type": "function"
    },
    {
      "inputs": [],
      "name": "ADDON_PROGRESSIVE",
      "outputs": [
        {
          "internalType": "uint16",
          "name": "",
          "type": "uint16"
        }
      ],
      "stateMutability": "view",
      "type": "function"
    },
    {
      "inputs": [],
      "name": "BPS_DENOMINATOR",
      "outputs": [
        {
          "internalType": "uint256",
          "name": "",
          "type": "uint256"
        }
      ],
      "stateMutability": "view",
      "type": "function"
    },
    {
      "inputs": [],
      "name": "CLAIM_DEADLINE",
      "outputs": [
        {
          "internalType": "uint256",
          "name": "",
          "type": "uint256"
        }
      ],
      "stateMutability": "view",
      "type": "function"
    },
    {
      "inputs": [],
      "name": "DRAWN",
      "outputs": [
        {
          "internalType": "uint8",
          "name": "",
          "type": "uint8"
        }
      ],
      "stateMutability": "view",
      "type": "function"
    },
    {
      "inputs": [],
      "name": "MIN_SPOT",
      "outputs": [
        {
          "internalType": "uint8",
          "name": "",
          "type": "uint8"
        }
      ],
      "stateMutability": "view",
      "type": "function"
    },
    {
      "inputs": [],
      "name": "NUMBERS",
      "outputs": [
        {
          "internalType": "uint8",
          "name": "",
          "type": "uint8"
        }
      ],
      "stateMutability": "view",
      "type": "function"
    },
    {
      "inputs": [],
      "name": "PLUS3_DRAWN",
      "outputs": [
        {
          "internalType": "uint8",
          "name": "",
          "type": "uint8"
        }
      ],
      "stateMutability": "view",
      "type": "function"
    },
    {
      "inputs": [
        {
          "internalType": "uint256",
          "name": "roundId",
          "type": "uint256"
        },
        {
          "internalType": "uint256",
          "name": "ticketId",
          "type": "uint256"
        },
        {
          "internalType": "address",
          "name": "player",
          "type": "address"
        }
      ],
      "name": "_safeProcessClaim",
      "outputs": [],
      "stateMutability": "nonpayable",
      "type": "function"
    },
    {
      "inputs": [
        {
          "internalType": "uint16",
          "name": "addons",
          "type": "uint16"
        },
        {
          "internalType": "uint256",
          "name": "wagerPerDraw",
          "type": "uint256"
        }
      ],
      "name": "addonCost",
      "outputs": [
        {
          "internalType": "uint256",
          "name": "",
          "type": "uint256"
        }
      ],
      "stateMutability": "view",
      "type": "function"
    },
    {
      "inputs": [
        {
          "internalType": "address",
          "name": "",
          "type": "address"
        }
      ],
      "name": "autoClaimEnabled",
      "outputs": [
        {
          "internalType": "bool",
          "name": "",
          "type": "bool"
        }
      ],
      "stateMutability": "view",
      "type": "function"
    },
    {
      "inputs": [],
      "name": "bullsEyeCostPerDraw",
      "outputs": [
        {
          "internalType": "uint256",
          "name": "",
          "type": "uint256"
        }
      ],
      "stateMutability": "view",
      "type": "function"
    },
    {
      "inputs": [
        {
          "internalType": "uint8",
          "name": "",
          "type": "uint8"
        },
        {
          "internalType": "uint256",
          "name": "",
          "type": "uint256"
        }
      ],
      "name": "bullsEyePaytable",
      "outputs": [
        {
          "internalType": "uint256",
          "name": "",
          "type": "uint256"
        }
      ],
      "stateMutability": "view",
      "type": "function"
    },
    {
      "inputs": [],
      "name": "burnThreshold",
      "outputs": [
        {
          "internalType": "uint256",
          "name": "",
          "type": "uint256"
        }
      ],
      "stateMutability": "view",
      "type": "function"
    },
    {
      "inputs": [
        {
          "internalType": "uint256",
          "name": "roundId",
          "type": "uint256"
        },
        {
          "internalType": "uint8[]",
          "name": "numbers",
          "type": "uint8[]"
        },
        {
          "internalType": "uint8",
          "name": "spotSize",
          "type": "uint8"
        },
        {
          "internalType": "uint8",
          "name": "draws",
          "type": "uint8"
        },
        {
          "internalType": "uint16",
          "name": "addons",
          "type": "uint16"
        },
        {
          "internalType": "uint256",
          "name": "wagerPerDraw",
          "type": "uint256"
        }
      ],
      "name": "buyTicket",
      "outputs": [],
      "stateMutability": "nonpayable",
      "type": "function"
    },
    {
      "inputs": [
        {
          "internalType": "uint256",
          "name": "roundId",
          "type": "uint256"
        },
        {
          "internalType": "uint8[]",
          "name": "numbers",
          "type": "uint8[]"
        },
        {
          "internalType": "uint8",
          "name": "spotSize",
          "type": "uint8"
        },
        {
          "internalType": "uint8",
          "name": "draws",
          "type": "uint8"
        },
        {
          "internalType": "uint16",
          "name": "addons",
          "type": "uint16"
        },
        {
          "internalType": "uint256",
          "name": "wagerPerDraw",
          "type": "uint256"
        }
      ],
      "name": "buyTicketWithPLS",
      "outputs": [],
      "stateMutability": "payable",
      "type": "function"
    },
    {
      "inputs": [
        {
          "internalType": "uint256",
          "name": "roundId",
          "type": "uint256"
        },
        {
          "internalType": "uint256",
          "name": "ticketId",
          "type": "uint256"
        }
      ],
      "name": "claim",
      "outputs": [],
      "stateMutability": "nonpayable",
      "type": "function"
    },
    {
      "inputs": [
        {
          "internalType": "uint256[]",
          "name": "roundIds",
          "type": "uint256[]"
        },
        {
          "internalType": "uint256[]",
          "name": "ticketIds",
          "type": "uint256[]"
        }
      ],
      "name": "claimMultiple",
      "outputs": [],
      "stateMutability": "nonpayable",
      "type": "function"
    },
    {
      "inputs": [
        {
          "internalType": "uint256",
          "name": "",
          "type": "uint256"
        },
        {
          "internalType": "uint256",
          "name": "",
          "type": "uint256"
        }
      ],
      "name": "claimed",
      "outputs": [
        {
          "internalType": "bool",
          "name": "",
          "type": "bool"
        }
      ],
      "stateMutability": "view",
      "type": "function"
    },
    {
      "inputs": [
        {
          "internalType": "uint256",
          "name": "roundId",
          "type": "uint256"
        },
        {
          "internalType": "bytes32",
          "name": "commitment",
          "type": "bytes32"
        }
      ],
      "name": "commitRandom",
      "outputs": [],
      "stateMutability": "nonpayable",
      "type": "function"
    },
    {
      "inputs": [
        {
          "internalType": "uint256",
          "name": "",
          "type": "uint256"
        }
      ],
      "name": "committedHash",
      "outputs": [
        {
          "internalType": "bytes32",
          "name": "",
          "type": "bytes32"
        }
      ],
      "stateMutability": "view",
      "type": "function"
    },
    {
      "inputs": [],
      "name": "currentRoundId",
      "outputs": [
        {
          "internalType": "uint256",
          "name": "",
          "type": "uint256"
        }
      ],
      "stateMutability": "view",
      "type": "function"
    },
    {
      "inputs": [
        {
          "internalType": "uint256",
          "name": "roundId",
          "type": "uint256"
        }
      ],
      "name": "distributeProgressive",
      "outputs": [],
      "stateMutability": "nonpayable",
      "type": "function"
    },
    {
      "inputs": [],
      "name": "feeBps",
      "outputs": [
        {
          "internalType": "uint256",
          "name": "",
          "type": "uint256"
        }
      ],
      "stateMutability": "view",
      "type": "function"
    },
    {
      "inputs": [],
      "name": "feeRecipient",
      "outputs": [
        {
          "internalType": "address",
          "name": "",
          "type": "address"
        }
      ],
      "stateMutability": "view",
      "type": "function"
    },
    {
      "inputs": [
        {
          "internalType": "uint256",
          "name": "roundId",
          "type": "uint256"
        }
      ],
      "name": "finalizeRound",
      "outputs": [],
      "stateMutability": "nonpayable",
      "type": "function"
    },
    {
      "inputs": [],
      "name": "flushBurn",
      "outputs": [],
      "stateMutability": "nonpayable",
      "type": "function"
    },
    {
      "inputs": [
        {
          "internalType": "uint256",
          "name": "roundId",
          "type": "uint256"
        },
        {
          "internalType": "bytes32",
          "name": "randomSeed",
          "type": "bytes32"
        }
      ],
      "name": "fulfillRandomness",
      "outputs": [],
      "stateMutability": "nonpayable",
      "type": "function"
    },
    {
      "inputs": [
        {
          "internalType": "address",
          "name": "player",
          "type": "address"
        }
      ],
      "name": "getAllPlayerTickets",
      "outputs": [
        {
          "internalType": "uint256[]",
          "name": "",
          "type": "uint256[]"
        }
      ],
      "stateMutability": "view",
      "type": "function"
    },
    {
      "inputs": [],
      "name": "getGlobalStats",
      "outputs": [
        {
          "internalType": "uint256",
          "name": "totalWagered",
          "type": "uint256"
        },
        {
          "internalType": "uint256",
          "name": "totalWon",
          "type": "uint256"
        },
        {
          "internalType": "uint256",
          "name": "ticketCount",
          "type": "uint256"
        },
        {
          "internalType": "uint256",
          "name": "activeRoundId",
          "type": "uint256"
        }
      ],
      "stateMutability": "view",
      "type": "function"
    },
    {
      "inputs": [
        {
          "internalType": "address",
          "name": "player",
          "type": "address"
        }
      ],
      "name": "getPlayerStats",
      "outputs": [
        {
          "internalType": "uint256",
          "name": "totalWagered",
          "type": "uint256"
        },
        {
          "internalType": "uint256",
          "name": "totalWon",
          "type": "uint256"
        },
        {
          "internalType": "uint256",
          "name": "ticketCount",
          "type": "uint256"
        },
        {
          "internalType": "uint256",
          "name": "winCount",
          "type": "uint256"
        },
        {
          "internalType": "uint256",
          "name": "winRateBps",
          "type": "uint256"
        },
        {
          "internalType": "int256",
          "name": "netPnL",
          "type": "int256"
        }
      ],
      "stateMutability": "view",
      "type": "function"
    },
    {
      "inputs": [
        {
          "internalType": "address",
          "name": "player",
          "type": "address"
        },
        {
          "internalType": "uint256",
          "name": "offset",
          "type": "uint256"
        },
        {
          "internalType": "uint256",
          "name": "limit",
          "type": "uint256"
        }
      ],
      "name": "getPlayerTickets",
      "outputs": [
        {
          "internalType": "uint256[]",
          "name": "",
          "type": "uint256[]"
        }
      ],
      "stateMutability": "view",
      "type": "function"
    },
    {
      "inputs": [
        {
          "internalType": "address",
          "name": "player",
          "type": "address"
        }
      ],
      "name": "getPlayerUnclaimedWinnings",
      "outputs": [
        {
          "internalType": "uint256",
          "name": "totalUnclaimed",
          "type": "uint256"
        }
      ],
      "stateMutability": "view",
      "type": "function"
    },
    {
      "inputs": [],
      "name": "getProgressiveStats",
      "outputs": [
        {
          "internalType": "uint256",
          "name": "currentPool",
          "type": "uint256"
        },
        {
          "internalType": "uint256",
          "name": "baseSeed",
          "type": "uint256"
        },
        {
          "internalType": "uint256",
          "name": "costPerDraw",
          "type": "uint256"
        },
        {
          "internalType": "uint256",
          "name": "totalCollected",
          "type": "uint256"
        },
        {
          "internalType": "uint256",
          "name": "totalPaid",
          "type": "uint256"
        },
        {
          "internalType": "uint256",
          "name": "winCount",
          "type": "uint256"
        },
        {
          "internalType": "uint256",
          "name": "lastWinRound",
          "type": "uint256"
        }
      ],
      "stateMutability": "view",
      "type": "function"
    },
    {
      "inputs": [
        {
          "internalType": "uint256",
          "name": "roundId",
          "type": "uint256"
        }
      ],
      "name": "getRound",
      "outputs": [
        {
          "components": [
            {
              "internalType": "uint256",
              "name": "id",
              "type": "uint256"
            },
            {
              "internalType": "uint64",
              "name": "startTime",
              "type": "uint64"
            },
            {
              "internalType": "uint64",
              "name": "endTime",
              "type": "uint64"
            },
            {
              "internalType": "enum CryptoKeno.RoundState",
              "name": "state",
              "type": "uint8"
            },
            {
              "internalType": "bytes32",
              "name": "requestId",
              "type": "bytes32"
            },
            {
              "internalType": "bytes32",
              "name": "randomSeed",
              "type": "bytes32"
            },
            {
              "internalType": "uint8",
              "name": "bullsEyeIndex",
              "type": "uint8"
            },
            {
              "internalType": "uint8",
              "name": "bullsEyeNumber",
              "type": "uint8"
            },
            {
              "internalType": "uint8[20]",
              "name": "winningNumbers",
              "type": "uint8[20]"
            },
            {
              "internalType": "uint8[3]",
              "name": "plus3Numbers",
              "type": "uint8[3]"
            },
            {
              "internalType": "uint256",
              "name": "drawnMultiplier",
              "type": "uint256"
            },
            {
              "internalType": "uint256",
              "name": "totalBaseWager",
              "type": "uint256"
            },
            {
              "internalType": "uint256",
              "name": "poolBalance",
              "type": "uint256"
            },
            {
              "internalType": "uint256",
              "name": "totalMultiplierAddon",
              "type": "uint256"
            },
            {
              "internalType": "uint256",
              "name": "totalBullsEyeAddon",
              "type": "uint256"
            },
            {
              "internalType": "uint256",
              "name": "totalPlus3Addon",
              "type": "uint256"
            },
            {
              "internalType": "uint256",
              "name": "totalProgressiveAddon",
              "type": "uint256"
            },
            {
              "internalType": "uint256[]",
              "name": "progressiveWinners",
              "type": "uint256[]"
            }
          ],
          "internalType": "struct CryptoKeno.Round",
          "name": "",
          "type": "tuple"
        }
      ],
      "stateMutability": "view",
      "type": "function"
    },
    {
      "inputs": [
        {
          "internalType": "uint256[]",
          "name": "roundIds",
          "type": "uint256[]"
        }
      ],
      "name": "getRounds",
      "outputs": [
        {
          "components": [
            {
              "internalType": "uint256",
              "name": "id",
              "type": "uint256"
            },
            {
              "internalType": "uint64",
              "name": "startTime",
              "type": "uint64"
            },
            {
              "internalType": "uint64",
              "name": "endTime",
              "type": "uint64"
            },
            {
              "internalType": "enum CryptoKeno.RoundState",
              "name": "state",
              "type": "uint8"
            },
            {
              "internalType": "bytes32",
              "name": "requestId",
              "type": "bytes32"
            },
            {
              "internalType": "bytes32",
              "name": "randomSeed",
              "type": "bytes32"
            },
            {
              "internalType": "uint8",
              "name": "bullsEyeIndex",
              "type": "uint8"
            },
            {
              "internalType": "uint8",
              "name": "bullsEyeNumber",
              "type": "uint8"
            },
            {
              "internalType": "uint8[20]",
              "name": "winningNumbers",
              "type": "uint8[20]"
            },
            {
              "internalType": "uint8[3]",
              "name": "plus3Numbers",
              "type": "uint8[3]"
            },
            {
              "internalType": "uint256",
              "name": "drawnMultiplier",
              "type": "uint256"
            },
            {
              "internalType": "uint256",
              "name": "totalBaseWager",
              "type": "uint256"
            },
            {
              "internalType": "uint256",
              "name": "poolBalance",
              "type": "uint256"
            },
            {
              "internalType": "uint256",
              "name": "totalMultiplierAddon",
              "type": "uint256"
            },
            {
              "internalType": "uint256",
              "name": "totalBullsEyeAddon",
              "type": "uint256"
            },
            {
              "internalType": "uint256",
              "name": "totalPlus3Addon",
              "type": "uint256"
            },
            {
              "internalType": "uint256",
              "name": "totalProgressiveAddon",
              "type": "uint256"
            },
            {
              "internalType": "uint256[]",
              "name": "progressiveWinners",
              "type": "uint256[]"
            }
          ],
          "internalType": "struct CryptoKeno.Round[]",
          "name": "",
          "type": "tuple[]"
        }
      ],
      "stateMutability": "view",
      "type": "function"
    },
    {
      "inputs": [
        {
          "internalType": "uint256",
          "name": "ticketId",
          "type": "uint256"
        }
      ],
      "name": "getTicket",
      "outputs": [
        {
          "components": [
            {
              "internalType": "address",
              "name": "player",
              "type": "address"
            },
            {
              "internalType": "uint64",
              "name": "firstRoundId",
              "type": "uint64"
            },
            {
              "internalType": "uint8",
              "name": "draws",
              "type": "uint8"
            },
            {
              "internalType": "uint8",
              "name": "spotSize",
              "type": "uint8"
            },
            {
              "internalType": "uint16",
              "name": "addons",
              "type": "uint16"
            },
            {
              "internalType": "uint8",
              "name": "drawsRemaining",
              "type": "uint8"
            },
            {
              "internalType": "uint256",
              "name": "wagerPerDraw",
              "type": "uint256"
            },
            {
              "internalType": "uint256",
              "name": "numbersBitmap",
              "type": "uint256"
            }
          ],
          "internalType": "struct CryptoKeno.Ticket",
          "name": "",
          "type": "tuple"
        }
      ],
      "stateMutability": "view",
      "type": "function"
    },
    {
      "inputs": [
        {
          "internalType": "uint256[]",
          "name": "ticketIds",
          "type": "uint256[]"
        }
      ],
      "name": "getTickets",
      "outputs": [
        {
          "components": [
            {
              "internalType": "address",
              "name": "player",
              "type": "address"
            },
            {
              "internalType": "uint64",
              "name": "firstRoundId",
              "type": "uint64"
            },
            {
              "internalType": "uint8",
              "name": "draws",
              "type": "uint8"
            },
            {
              "internalType": "uint8",
              "name": "spotSize",
              "type": "uint8"
            },
            {
              "internalType": "uint16",
              "name": "addons",
              "type": "uint16"
            },
            {
              "internalType": "uint8",
              "name": "drawsRemaining",
              "type": "uint8"
            },
            {
              "internalType": "uint256",
              "name": "wagerPerDraw",
              "type": "uint256"
            },
            {
              "internalType": "uint256",
              "name": "numbersBitmap",
              "type": "uint256"
            }
          ],
          "internalType": "struct CryptoKeno.Ticket[]",
          "name": "",
          "type": "tuple[]"
        }
      ],
      "stateMutability": "view",
      "type": "function"
    },
    {
      "inputs": [],
      "name": "globalTicketCount",
      "outputs": [
        {
          "internalType": "uint256",
          "name": "",
          "type": "uint256"
        }
      ],
      "stateMutability": "view",
      "type": "function"
    },
    {
      "inputs": [],
      "name": "globalTotalWagered",
      "outputs": [
        {
          "internalType": "uint256",
          "name": "",
          "type": "uint256"
        }
      ],
      "stateMutability": "view",
      "type": "function"
    },
    {
      "inputs": [],
      "name": "globalTotalWon",
      "outputs": [
        {
          "internalType": "uint256",
          "name": "",
          "type": "uint256"
        }
      ],
      "stateMutability": "view",
      "type": "function"
    },
    {
      "inputs": [
        {
          "internalType": "uint256",
          "name": "ticketId",
          "type": "uint256"
        },
        {
          "internalType": "uint256",
          "name": "roundId",
          "type": "uint256"
        }
      ],
      "name": "isWinningTicket",
      "outputs": [
        {
          "internalType": "bool",
          "name": "isWinner",
          "type": "bool"
        },
        {
          "internalType": "uint256",
          "name": "prize",
          "type": "uint256"
        }
      ],
      "stateMutability": "view",
      "type": "function"
    },
    {
      "inputs": [],
      "name": "lastProgressiveWinRound",
      "outputs": [
        {
          "internalType": "uint256",
          "name": "",
          "type": "uint256"
        }
      ],
      "stateMutability": "view",
      "type": "function"
    },
    {
      "inputs": [],
      "name": "maxSpot",
      "outputs": [
        {
          "internalType": "uint8",
          "name": "",
          "type": "uint8"
        }
      ],
      "stateMutability": "view",
      "type": "function"
    },
    {
      "inputs": [],
      "name": "maxWagerPerDraw",
      "outputs": [
        {
          "internalType": "uint256",
          "name": "",
          "type": "uint256"
        }
      ],
      "stateMutability": "view",
      "type": "function"
    },
    {
      "inputs": [],
      "name": "multiplierCostPerDraw",
      "outputs": [
        {
          "internalType": "uint256",
          "name": "",
          "type": "uint256"
        }
      ],
      "stateMutability": "view",
      "type": "function"
    },
    {
      "inputs": [
        {
          "internalType": "uint256",
          "name": "",
          "type": "uint256"
        }
      ],
      "name": "multiplierValues",
      "outputs": [
        {
          "internalType": "uint256",
          "name": "",
          "type": "uint256"
        }
      ],
      "stateMutability": "view",
      "type": "function"
    },
    {
      "inputs": [
        {
          "internalType": "uint256",
          "name": "",
          "type": "uint256"
        }
      ],
      "name": "multiplierWeights",
      "outputs": [
        {
          "internalType": "uint256",
          "name": "",
          "type": "uint256"
        }
      ],
      "stateMutability": "view",
      "type": "function"
    },
    {
      "inputs": [],
      "name": "nextTicketId",
      "outputs": [
        {
          "internalType": "uint256",
          "name": "",
          "type": "uint256"
        }
      ],
      "stateMutability": "view",
      "type": "function"
    },
    {
      "inputs": [],
      "name": "owner",
      "outputs": [
        {
          "internalType": "address",
          "name": "",
          "type": "address"
        }
      ],
      "stateMutability": "view",
      "type": "function"
    },
    {
      "inputs": [],
      "name": "pause",
      "outputs": [],
      "stateMutability": "nonpayable",
      "type": "function"
    },
    {
      "inputs": [],
      "name": "paused",
      "outputs": [
        {
          "internalType": "bool",
          "name": "",
          "type": "bool"
        }
      ],
      "stateMutability": "view",
      "type": "function"
    },
    {
      "inputs": [
        {
          "internalType": "uint8",
          "name": "",
          "type": "uint8"
        },
        {
          "internalType": "uint256",
          "name": "",
          "type": "uint256"
        }
      ],
      "name": "paytable",
      "outputs": [
        {
          "internalType": "uint256",
          "name": "",
          "type": "uint256"
        }
      ],
      "stateMutability": "view",
      "type": "function"
    },
    {
      "inputs": [],
      "name": "pendingBurnToken",
      "outputs": [
        {
          "internalType": "uint256",
          "name": "",
          "type": "uint256"
        }
      ],
      "stateMutability": "view",
      "type": "function"
    },
    {
      "inputs": [
        {
          "internalType": "address",
          "name": "",
          "type": "address"
        }
      ],
      "name": "playerTicketCount",
      "outputs": [
        {
          "internalType": "uint256",
          "name": "",
          "type": "uint256"
        }
      ],
      "stateMutability": "view",
      "type": "function"
    },
    {
      "inputs": [
        {
          "internalType": "address",
          "name": "",
          "type": "address"
        },
        {
          "internalType": "uint256",
          "name": "",
          "type": "uint256"
        }
      ],
      "name": "playerTickets",
      "outputs": [
        {
          "internalType": "uint256",
          "name": "",
          "type": "uint256"
        }
      ],
      "stateMutability": "view",
      "type": "function"
    },
    {
      "inputs": [
        {
          "internalType": "address",
          "name": "",
          "type": "address"
        }
      ],
      "name": "playerTotalWagered",
      "outputs": [
        {
          "internalType": "uint256",
          "name": "",
          "type": "uint256"
        }
      ],
      "stateMutability": "view",
      "type": "function"
    },
    {
      "inputs": [
        {
          "internalType": "address",
          "name": "",
          "type": "address"
        }
      ],
      "name": "playerTotalWon",
      "outputs": [
        {
          "internalType": "uint256",
          "name": "",
          "type": "uint256"
        }
      ],
      "stateMutability": "view",
      "type": "function"
    },
    {
      "inputs": [
        {
          "internalType": "address",
          "name": "",
          "type": "address"
        }
      ],
      "name": "playerWinCount",
      "outputs": [
        {
          "internalType": "uint256",
          "name": "",
          "type": "uint256"
        }
      ],
      "stateMutability": "view",
      "type": "function"
    },
    {
      "inputs": [],
      "name": "progressiveBaseSeed",
      "outputs": [
        {
          "internalType": "uint256",
          "name": "",
          "type": "uint256"
        }
      ],
      "stateMutability": "view",
      "type": "function"
    },
    {
      "inputs": [],
      "name": "progressiveCostPerDraw",
      "outputs": [
        {
          "internalType": "uint256",
          "name": "",
          "type": "uint256"
        }
      ],
      "stateMutability": "view",
      "type": "function"
    },
    {
      "inputs": [],
      "name": "progressiveFeeBps",
      "outputs": [
        {
          "internalType": "uint256",
          "name": "",
          "type": "uint256"
        }
      ],
      "stateMutability": "view",
      "type": "function"
    },
    {
      "inputs": [],
      "name": "progressivePool",
      "outputs": [
        {
          "internalType": "uint256",
          "name": "",
          "type": "uint256"
        }
      ],
      "stateMutability": "view",
      "type": "function"
    },
    {
      "inputs": [],
      "name": "progressiveTotalCollected",
      "outputs": [
        {
          "internalType": "uint256",
          "name": "",
          "type": "uint256"
        }
      ],
      "stateMutability": "view",
      "type": "function"
    },
    {
      "inputs": [],
      "name": "progressiveTotalPaid",
      "outputs": [
        {
          "internalType": "uint256",
          "name": "",
          "type": "uint256"
        }
      ],
      "stateMutability": "view",
      "type": "function"
    },
    {
      "inputs": [],
      "name": "progressiveWinCount",
      "outputs": [
        {
          "internalType": "uint256",
          "name": "",
          "type": "uint256"
        }
      ],
      "stateMutability": "view",
      "type": "function"
    },
    {
      "inputs": [],
      "name": "pulseXRouter",
      "outputs": [
        {
          "internalType": "contract IPulseXRouter",
          "name": "",
          "type": "address"
        }
      ],
      "stateMutability": "view",
      "type": "function"
    },
    {
      "inputs": [],
      "name": "randomnessProvider",
      "outputs": [
        {
          "internalType": "contract IRandomProvider",
          "name": "",
          "type": "address"
        }
      ],
      "stateMutability": "view",
      "type": "function"
    },
    {
      "inputs": [
        {
          "internalType": "uint256",
          "name": "roundId",
          "type": "uint256"
        }
      ],
      "name": "reclaimExpiredPrizes",
      "outputs": [],
      "stateMutability": "nonpayable",
      "type": "function"
    },
    {
      "inputs": [],
      "name": "renounceOwnership",
      "outputs": [],
      "stateMutability": "nonpayable",
      "type": "function"
    },
    {
      "inputs": [
        {
          "internalType": "uint256",
          "name": "roundId",
          "type": "uint256"
        },
        {
          "internalType": "bytes32",
          "name": "seed",
          "type": "bytes32"
        }
      ],
      "name": "revealRandom",
      "outputs": [],
      "stateMutability": "nonpayable",
      "type": "function"
    },
    {
      "inputs": [
        {
          "internalType": "uint256",
          "name": "",
          "type": "uint256"
        }
      ],
      "name": "revealedSeed",
      "outputs": [
        {
          "internalType": "bytes32",
          "name": "",
          "type": "bytes32"
        }
      ],
      "stateMutability": "view",
      "type": "function"
    },
    {
      "inputs": [],
      "name": "roundDuration",
      "outputs": [
        {
          "internalType": "uint256",
          "name": "",
          "type": "uint256"
        }
      ],
      "stateMutability": "view",
      "type": "function"
    },
    {
      "inputs": [
        {
          "internalType": "uint256",
          "name": "",
          "type": "uint256"
        }
      ],
      "name": "rounds",
      "outputs": [
        {
          "internalType": "uint256",
          "name": "id",
          "type": "uint256"
        },
        {
          "internalType": "uint64",
          "name": "startTime",
          "type": "uint64"
        },
        {
          "internalType": "uint64",
          "name": "endTime",
          "type": "uint64"
        },
        {
          "internalType": "enum CryptoKeno.RoundState",
          "name": "state",
          "type": "uint8"
        },
        {
          "internalType": "bytes32",
          "name": "requestId",
          "type": "bytes32"
        },
        {
          "internalType": "bytes32",
          "name": "randomSeed",
          "type": "bytes32"
        },
        {
          "internalType": "uint8",
          "name": "bullsEyeIndex",
          "type": "uint8"
        },
        {
          "internalType": "uint8",
          "name": "bullsEyeNumber",
          "type": "uint8"
        },
        {
          "internalType": "uint256",
          "name": "drawnMultiplier",
          "type": "uint256"
        },
        {
          "internalType": "uint256",
          "name": "totalBaseWager",
          "type": "uint256"
        },
        {
          "internalType": "uint256",
          "name": "poolBalance",
          "type": "uint256"
        },
        {
          "internalType": "uint256",
          "name": "totalMultiplierAddon",
          "type": "uint256"
        },
        {
          "internalType": "uint256",
          "name": "totalBullsEyeAddon",
          "type": "uint256"
        },
        {
          "internalType": "uint256",
          "name": "totalPlus3Addon",
          "type": "uint256"
        },
        {
          "internalType": "uint256",
          "name": "totalProgressiveAddon",
          "type": "uint256"
        }
      ],
      "stateMutability": "view",
      "type": "function"
    },
    {
      "inputs": [
        {
          "internalType": "uint256",
          "name": "amount",
          "type": "uint256"
        }
      ],
      "name": "seedProgressivePool",
      "outputs": [],
      "stateMutability": "nonpayable",
      "type": "function"
    },
    {
      "inputs": [
        {
          "internalType": "uint256",
          "name": "multiplierCost",
          "type": "uint256"
        },
        {
          "internalType": "uint256",
          "name": "bullsEyeCost",
          "type": "uint256"
        }
      ],
      "name": "setAddonCosts",
      "outputs": [],
      "stateMutability": "nonpayable",
      "type": "function"
    },
    {
      "inputs": [
        {
          "internalType": "bool",
          "name": "enabled",
          "type": "bool"
        }
      ],
      "name": "setAutoClaim",
      "outputs": [],
      "stateMutability": "nonpayable",
      "type": "function"
    },
    {
      "inputs": [
        {
          "internalType": "uint8",
          "name": "spotSize",
          "type": "uint8"
        },
        {
          "internalType": "uint8",
          "name": "hits",
          "type": "uint8"
        },
        {
          "internalType": "uint256",
          "name": "multiplier_",
          "type": "uint256"
        }
      ],
      "name": "setBullsEyePaytable",
      "outputs": [],
      "stateMutability": "nonpayable",
      "type": "function"
    },
    {
      "inputs": [
        {
          "internalType": "uint256",
          "name": "feeBps_",
          "type": "uint256"
        },
        {
          "internalType": "address",
          "name": "recipient",
          "type": "address"
        }
      ],
      "name": "setFee",
      "outputs": [],
      "stateMutability": "nonpayable",
      "type": "function"
    },
    {
      "inputs": [
        {
          "internalType": "uint256",
          "name": "maxWager",
          "type": "uint256"
        }
      ],
      "name": "setMaxWagerPerDraw",
      "outputs": [],
      "stateMutability": "nonpayable",
      "type": "function"
    },
    {
      "inputs": [
        {
          "internalType": "uint256[]",
          "name": "values",
          "type": "uint256[]"
        },
        {
          "internalType": "uint256[]",
          "name": "weights",
          "type": "uint256[]"
        }
      ],
      "name": "setMultiplierDistribution",
      "outputs": [],
      "stateMutability": "nonpayable",
      "type": "function"
    },
    {
      "inputs": [
        {
          "internalType": "uint8",
          "name": "spotSize",
          "type": "uint8"
        },
        {
          "internalType": "uint8",
          "name": "hits",
          "type": "uint8"
        },
        {
          "internalType": "uint256",
          "name": "multiplier_",
          "type": "uint256"
        }
      ],
      "name": "setPaytable",
      "outputs": [],
      "stateMutability": "nonpayable",
      "type": "function"
    },
    {
      "inputs": [
        {
          "internalType": "uint256",
          "name": "baseSeed",
          "type": "uint256"
        },
        {
          "internalType": "uint256",
          "name": "costPerDraw",
          "type": "uint256"
        },
        {
          "internalType": "uint256",
          "name": "feeBps_",
          "type": "uint256"
        }
      ],
      "name": "setProgressiveConfig",
      "outputs": [],
      "stateMutability": "nonpayable",
      "type": "function"
    },
    {
      "inputs": [
        {
          "internalType": "address",
          "name": "provider",
          "type": "address"
        }
      ],
      "name": "setRandomnessProvider",
      "outputs": [],
      "stateMutability": "nonpayable",
      "type": "function"
    },
    {
      "inputs": [
        {
          "internalType": "uint256",
          "name": "newDuration",
          "type": "uint256"
        }
      ],
      "name": "setRoundDuration",
      "outputs": [],
      "stateMutability": "nonpayable",
      "type": "function"
    },
    {
      "inputs": [],
      "name": "startNextRound",
      "outputs": [],
      "stateMutability": "nonpayable",
      "type": "function"
    },
    {
      "inputs": [
        {
          "internalType": "uint256",
          "name": "",
          "type": "uint256"
        }
      ],
      "name": "tickets",
      "outputs": [
        {
          "internalType": "address",
          "name": "player",
          "type": "address"
        },
        {
          "internalType": "uint64",
          "name": "firstRoundId",
          "type": "uint64"
        },
        {
          "internalType": "uint8",
          "name": "draws",
          "type": "uint8"
        },
        {
          "internalType": "uint8",
          "name": "spotSize",
          "type": "uint8"
        },
        {
          "internalType": "uint16",
          "name": "addons",
          "type": "uint16"
        },
        {
          "internalType": "uint8",
          "name": "drawsRemaining",
          "type": "uint8"
        },
        {
          "internalType": "uint256",
          "name": "wagerPerDraw",
          "type": "uint256"
        },
        {
          "internalType": "uint256",
          "name": "numbersBitmap",
          "type": "uint256"
        }
      ],
      "stateMutability": "view",
      "type": "function"
    },
    {
      "inputs": [
        {
          "internalType": "uint256",
          "name": "",
          "type": "uint256"
        },
        {
          "internalType": "uint256",
          "name": "",
          "type": "uint256"
        }
      ],
      "name": "ticketsByRound",
      "outputs": [
        {
          "internalType": "uint256",
          "name": "",
          "type": "uint256"
        }
      ],
      "stateMutability": "view",
      "type": "function"
    },
    {
      "inputs": [],
      "name": "token",
      "outputs": [
        {
          "internalType": "contract IERC20",
          "name": "",
          "type": "address"
        }
      ],
      "stateMutability": "view",
      "type": "function"
    },
    {
      "inputs": [
        {
          "internalType": "address",
          "name": "newOwner",
          "type": "address"
        }
      ],
      "name": "transferOwnership",
      "outputs": [],
      "stateMutability": "nonpayable",
      "type": "function"
    },
    {
      "inputs": [],
      "name": "unpause",
      "outputs": [],
      "stateMutability": "nonpayable",
      "type": "function"
    },
    {
      "inputs": [
        {
          "internalType": "uint256",
          "name": "newThreshold",
          "type": "uint256"
        }
      ],
      "name": "updateBurnThreshold",
      "outputs": [],
      "stateMutability": "nonpayable",
      "type": "function"
    },
    {
      "inputs": [
        {
          "internalType": "uint256",
          "name": "amount",
          "type": "uint256"
        },
        {
          "internalType": "address",
          "name": "to",
          "type": "address"
        }
      ],
      "name": "withdrawBankroll",
      "outputs": [],
      "stateMutability": "nonpayable",
      "type": "function"
    },
    {
      "inputs": [],
      "name": "wrappedPulse",
      "outputs": [
        {
          "internalType": "contract IWrappedPulse",
          "name": "",
          "type": "address"
        }
      ],
      "stateMutability": "view",
      "type": "function"
    }
  ],
  "bytecode": "0x610100604052346113e857617702610100813803918261001e816113ed565b9384928339810103126113e85761003481611412565b9060208101519160ff8316928381036113e85760408301519160608401519361005f60808201611412565b9061007860e061007160c08401611412565b9201611412565b9133156113d25760008054336001600160a01b0319821681178355604051969290916001600160a01b0316907f8be0079c531659141344cd1fd0a4f28419497f9722a3daafe3b4186f6b6457e09080a3600180805560055569152d02c7e14af68000006026556001600160a01b031693841561139f57506001600160a01b031696871561135a576001811015908161134e575b5015611318576001600160a01b03169081156112d3576001600160a01b031691821561129c5760805260a05260c090815260e09190915260039182556006928355600780546001600160a01b0319169490941790935566038d7ea4c6800060098190556601c6bf52634000600a90815565e35fa931a000600b908155600c92835569152d02c7e14af68000006010819055600f90815561213460115560027f4c4dc693d7db52f85fe052106f4b4b920e78e8ef37dee82878a60ab8585faf4a557fcaff291fe014adc6b72a172705750b4cabe8f8667664d2924a166caab288564a91909155601b7ff06d282f967055cb1eee17e04aa005b9682a620f4bbcfaee55ba78607a3d87b15560017ff06d282f967055cb1eee17e04aa005b9682a620f4bbcfaee55ba78607a3d87b081905560787fec061709de2491458f4c981032059d7d19b0e55f45018bac6b3e660bdc959a5d557fec061709de2491458f4c981032059d7d19b0e55f45018bac6b3e660bdc959a5c85905560007fec061709de2491458f4c981032059d7d19b0e55f45018bac6b3e660bdc959a5b8190556102587f5696377e725b42a372ecc45f0fbdab5e9555865aef54619ad9381892f667bbf555601e7f5696377e725b42a372ecc45f0fbdab5e9555865aef54619ad9381892f667bbf48190557f5696377e725b42a372ecc45f0fbdab5e9555865aef54619ad9381892f667bbf3929092556106727fc6a239f207aea309a1b4879cb5411b8facfc2bc1e4cc4717ff2598676c399b6555605a7fc6a239f207aea309a1b4879cb5411b8facfc2bc1e4cc4717ff2598676c399b64557fc6a239f207aea309a1b4879cb5411b8facfc2bc1e4cc4717ff2598676c399b63949094557fc6a239f207aea309a1b4879cb5411b8facfc2bc1e4cc4717ff2598676c399b628490556107d07f5c9294642c77fdf0ce4b0f45159c977165b1ec2ef3bb94ee3e2a496634c781ef81905560967f5c9294642c77fdf0ce4b0f45159c977165b1ec2ef3bb94ee3e2a496634c781ee81905560127f5c9294642c77fdf0ce4b0f45159c977165b1ec2ef3bb94ee3e2a496634c781ed81905560087f5c9294642c77fdf0ce4b0f45159c977165b1ec2ef3bb94ee3e2a496634c781ec8190557f5c9294642c77fdf0ce4b0f45159c977165b1ec2ef3bb94ee3e2a496634c781eb8890556127107f5d722ae86c7aff0f95f426cf86f75793e8cd1a526603df14563c190f75fd2efb5561012c7f5d722ae86c7aff0f95f426cf86f75793e8cd1a526603df14563c190f75fd2efa81905560507f5d722ae86c7aff0f95f426cf86f75793e8cd1a526603df14563c190f75fd2ef95560197f5d722ae86c7aff0f95f426cf86f75793e8cd1a526603df14563c190f75fd2ef8557f5d722ae86c7aff0f95f426cf86f75793e8cd1a526603df14563c190f75fd2ef78a90556161a87f650982f08e47212452de30f662e413cf6044e641dedc09b52c1617e804a26127557f650982f08e47212452de30f662e413cf6044e641dedc09b52c1617e804a261269490945560647f650982f08e47212452de30f662e413cf6044e641dedc09b52c1617e804a261255560237f650982f08e47212452de30f662e413cf6044e641dedc09b52c1617e804a26124557f650982f08e47212452de30f662e413cf6044e641dedc09b52c1617e804a26123557f650982f08e47212452de30f662e413cf6044e641dedc09b52c1617e804a26122889055620186a07fd5b9797c47f98351da0d9dc8805f06430ade47345ddb9b2bd6f346a04809cc4b556113887fd5b9797c47f98351da0d9dc8805f06430ade47345ddb9b2bd6f346a04809cc4a556101f47fd5b9797c47f98351da0d9dc8805f06430ade47345ddb9b2bd6f346a04809cc495560327fd5b9797c47f98351da0d9dc8805f06430ade47345ddb9b2bd6f346a04809cc48557fd5b9797c47f98351da0d9dc8805f06430ade47345ddb9b2bd6f346a04809cc475560047fd5b9797c47f98351da0d9dc8805f06430ade47345ddb9b2bd6f346a04809cc465560057fd5b9797c47f98351da0d9dc8805f06430ade47345ddb9b2bd6f346a04809cc415560176020527ff36d6bc9642eb6fb6ee9998b09ce990566df752ab06e11f8de7ab633bbd57b9088905560217fc52df653038b2ad477d8d97f1ddd63cfd138847b628ad8a7b89c109c3f8782cc81905560517fd8b2bced50346359af71f91110b86cdf684b6ab1c6ca64a7583c044d5c24de5f557fd8b2bced50346359af71f91110b86cdf684b6ab1c6ca64a7583c044d5c24de5e89905560d87f68052a315987b3c92fe6f7df77391bc5a825cabe4950d34f36f8f4e8a6abcb51557f68052a315987b3c92fe6f7df77391bc5a825cabe4950d34f36f8f4e8a6abcb508590557f68052a315987b3c92fe6f7df77391bc5a825cabe4950d34f36f8f4e8a6abcb4f8890556104ce7f70266c3d5b8b2375fded59c72bf5f0d74bbb12fdf645a4c8630629f0191fb31c5560367f70266c3d5b8b2375fded59c72bf5f0d74bbb12fdf645a4c8630629f0191fb31b557f70266c3d5b8b2375fded59c72bf5f0d74bbb12fdf645a4c8630629f0191fb31a899055610ce47fdba639bd458ad7aa817aa5e381ad7ed79ea3aeac2e3d9b2d7c51df9a922970a35560ab7fdba639bd458ad7aa817aa5e381ad7ed79ea3aeac2e3d9b2d7c51df9a922970a25560157fdba639bd458ad7aa817aa5e381ad7ed79ea3aeac2e3d9b2d7c51df9a922970a1557fdba639bd458ad7aa817aa5e381ad7ed79ea3aeac2e3d9b2d7c51df9a922970a08890556117707ffae2f3cf7832fe1c3d9af0d1138f3108106a06e0c9fcfc402be937e37ff7af6d8190557ffae2f3cf7832fe1c3d9af0d1138f3108106a06e0c9fcfc402be937e37ff7af6c8490557ffae2f3cf7832fe1c3d9af0d1138f3108106a06e0c9fcfc402be937e37ff7af6b919091557ffae2f3cf7832fe1c3d9af0d1138f3108106a06e0c9fcfc402be937e37ff7af6a8590557ffae2f3cf7832fe1c3d9af0d1138f3108106a06e0c9fcfc402be937e37ff7af69979097556175307ff573626183c54e3dd8eb68c6c0266a90101d76d98ec703822e6a139999dd765d556103847ff573626183c54e3dd8eb68c6c0266a90101d76d98ec703822e6a139999dd765c557ff573626183c54e3dd8eb68c6c0266a90101d76d98ec703822e6a139999dd765b819055602d7ff573626183c54e3dd8eb68c6c0266a90101d76d98ec703822e6a139999dd765a557ff573626183c54e3dd8eb68c6c0266a90101d76d98ec703822e6a139999dd7659889055620124f87f0480f894719e4db46f2c51c98cf5b891889d59db5c7f94573597494ddc8d4aea557f0480f894719e4db46f2c51c98cf5b891889d59db5c7f94573597494ddc8d4ae9969096557f0480f894719e4db46f2c51c98cf5b891889d59db5c7f94573597494ddc8d4ae855603c7f0480f894719e4db46f2c51c98cf5b891889d59db5c7f94573597494ddc8d4ae7557f0480f894719e4db46f2c51c98cf5b891889d59db5c7f94573597494ddc8d4ae68290557f0480f894719e4db46f2c51c98cf5b891889d59db5c7f94573597494ddc8d4ae586905591909252620493e07fd01a1030c3796725449ebf72d73ac5540c8aa9c83f796ef75dcf19a390d0383655613a987fd01a1030c3796725449ebf72d73ac5540c8aa9c83f796ef75dcf19a390d03835556105dc7fd01a1030c3796725449ebf72d73ac5540c8aa9c83f796ef75dcf19a390d03834557fd01a1030c3796725449ebf72d73ac5540c8aa9c83f796ef75dcf19a390d03833929092557fd01a1030c3796725449ebf72d73ac5540c8aa9c83f796ef75dcf19a390d03832919091557fd01a1030c3796725449ebf72d73ac5540c8aa9c83f796ef75dcf19a390d03831919091557fd01a1030c3796725449ebf72d73ac5540c8aa9c83f796ef75dcf19a390d0382c55610c4c816113ed565b600581526020810160a0368237610c62836113ed565b9060058252602082019260a03685376001610c7c82611426565b526002610c8882611449565b526003610c9482611459565b526005610ca082611469565b52600a610cac82611479565b52603c610cb884611426565b526019610cc484611449565b52600a610cd084611459565b526004610cdc84611469565b526001610ce884611479565b5251906001600160401b0382116111d2576801000000000000000082116111d257600d5482600d55808310611261575b50600d600052602060002060005b83811061124d5750509151929150506001600160401b0382116111d2576801000000000000000082116111d257600e5482600e55808310611212575b50600e600052602060002060005b8381106111fe578460016004556003544201908142116111e85761028091610d97836113ed565b9236843760005b601460ff82161015610dc357600160ff916000611fe08260051b168701520116610d9e565b5090606091610dd1836113ed565b928036853760005b600360ff82161015610dfe57600160ff916000611fe08260051b168801520116610dd9565b50909193602093610e0e856113ed565b906000825260003681376040519261024084016001600160401b038111858210176111d2576040526001845260018060401b0342168785015260018060401b038616604085015260008585015260006080850152600060a0850152600088850152600060e085015261010084015261012083015260006101408301526000610160830152600061018083015260006101a083015260006101c083015260006101e0830152600061020083015261022082015260016000526018845260406000208151815560018060401b0385830151169260018201549068010000000000000000600160801b03604085015160401b16908401519460038610156111bc5760009560ff60801b9060801b169260018060881b03191617171760018201556080820151600282015560a082015160038201556004810160ff878401511681549061ff0060e086015160081b169161ffff1916171790556101008201518390845b87601482106111975750505060058201556101208201518390845b87600382106111725750505060068201556101408201516007820155610160820151600882015561018082015160098201556101a0820151600a8201556101c0820151600b8201556101e0820151600c820155610200820151600d82015561022090910151805192600e90920191906001600160401b03841161115e5768010000000000000000841161115e5785908354858555808610611144575b5001918152848120905b83811061113257600454604080516001600160401b0342811682528816898201528992917fb9574e0faab8124549420ceb05e8203d89eacae04d747d51d12d373b600dbe9b91a260405161626191826114a18339608051828181610456015281816110b40152818161150301528181611bea01528181611fd8015281816121900152818161226f01528181612f6d015281816158560152615fba015260a051828181611c4101528181611f8f01528181612074015281816120b7015261213e015251818181610e1c01528181612028015281816120fc015261221e015260e05181818161071a0152818161140e0152818161278001528181612cec0152612f060152f35b8251828201559185019160010161102e565b848452828420611158918101908701611489565b88611024565b634e487b7160e01b82526041600452602482fd5b82519293919260019260ff600386901b81811b199092169216901b1793019101610f88565b82519293919260019260ff600386901b81811b199092169216901b1793019101610f6d565b634e487b7160e01b600052602160045260246000fd5b634e487b7160e01b600052604160045260246000fd5b634e487b7160e01b600052601160045260246000fd5b600190602084519401938184015501610d70565b600e600052611247907fbb7b4a454dc3493923482f07822329ed19e8244eff582cc204f8554c3620c3fd908101908401611489565b38610d62565b600190602084519401938184015501610d26565b600d600052611296907fd7b6990105719101dabeb77144f2a3385c8033acd3af97e9423a695e81ad1eb5908101908401611489565b38610d18565b60405162461bcd60e51b815260206004820152600f60248201526e1c9bdd5d195c881c995c5d5a5c9959608a1b6044820152606490fd5b60405162461bcd60e51b815260206004820152601460248201527f7772617070656420504c532072657175697265640000000000000000000000006044820152606490fd5b60405162461bcd60e51b815260206004820152600e60248201526d6d617853706f7420626f756e647360901b6044820152606490fd5b6014915011153861010b565b60405162461bcd60e51b815260206004820152601660248201527f66656520726563697069656e74207265717569726564000000000000000000006044820152606490fd5b62461bcd60e51b815260206004820152600e60248201526d1d1bdad95b881c995c5d5a5c995960921b6044820152606490fd5b631e4fbdf760e01b600052600060045260246000fd5b600080fd5b6040519190601f01601f191682016001600160401b038111838210176111d257604052565b51906001600160a01b03821682036113e857565b8051156114335760200190565b634e487b7160e01b600052603260045260246000fd5b8051600110156114335760400190565b8051600210156114335760600190565b8051600310156114335760800190565b8051600410156114335760a00190565b818110611494575050565b6000815560010161148956fe608080604052600436101561001357600080fd5b600090813560e01c90816303975ad314613672575080630476828a146134fe5780630656db82146134bd57806309f6528b14613453578063127873f71461333f57806319688f731461332357806324a9d8531461330557806324fd1439146130d957806328ca6b591461309e5780633146726014613080578063325f95d5146130645780633469f6e214612fc557806334efa8e514612f2a5780633614e8dc14612eec57806336c92c3f14612e9e5780633c3ccc4414612d575780633d2dec4e14612d165780633f29039014612c6c5780633f4ba83a14612c045780633fbf2bad14611b1657806342f8158014612be657806344d855f114612b9e57806345af8d9914612b8057806345e8ae1a14612b585780634690484014612b2f5780634f6d38d014612b115780634fd66eae14612a2357806350b447121461299757806353d8bb3a146128c857806357db6e1d146128255780635b1d29d6146128095780635c975abb146127e65780636031a52f146127c8578063643082e2146127aa57806368863e1a14611ebc57806369ef5e5914611e9e5780636b4169c314611e645780636c09066d14611e465780636f1ae09814611e28578063715018a614611dce5780637170378e14611d5a5780637439771b14611c7057806377ba9c6a14611c2b5780637cfcf16814611ba05780637dc379fa14611b5d57806380891ad214611b3257806383f7c92c14611b165780638456cb5914611abb578063868730c714611a505780638866833814611a32578063895cea5e146119f157806389930d43146119d55780638adac0361461199c5780638c65c81f146118b25780638d949f201461184f5780638da5cb5b146118285780638ed2b47e146117f05780638f1327c0146116b957806390199aa51461169d578063901f03221461147e5780639c2167cf146114535780639cbe5efd146114355780639e20499414610fbb578063a361b84a14610f9d578063a48f066d14610ef6578063a54ab45714610ec4578063a56d760114610e87578063a8a6283114610e69578063ae45439314610e4b578063aec9b6f414610e06578063b15fbc1414610d98578063b4f2e8b814610ccc578063c2a2321614610c32578063c349026314610beb578063c4aaefc514610bac578063ce9bf5ac14610b83578063cee3b9b914610b4a578063d0074c1314610b2e578063d14825c014610add578063d38ab26314610ab3578063d453648114610a63578063d51fb0ae14610a45578063d78a36ec14610a27578063db2e583b14610813578063db2f6283146107f5578063dc2e450c14610744578063dce9afba14610659578063ddf6d6fb14610618578063e1a45218146105fb578063e1a9888e146105d1578063e49abc93146105b3578063e534f6521461057a578063f2fde38b146104f4578063f6f1f897146104a6578063f7cb789a146104885763fc0c546a1461044157600080fd5b346104855780600319360112610485576040517f00000000000000000000000000000000000000000000000000000000000000006001600160a01b03168152602090f35b80fd5b50346104855780600319360112610485576020600354604051908152f35b5034610485576020366003190112610485577f2842cf99332cf44653926376c4c0f5d0f91b749469ac9999bb1c6c9d728b1ba860206004356104e6614426565b80600955604051908152a180f35b50346104855760203660031901126104855761050e6138cd565b610516614426565b6001600160a01b031680156105665781546001600160a01b03198116821783556001600160a01b03167f8be0079c531659141344cd1fd0a4f28419497f9722a3daafe3b4186f6b6457e08380a380f35b631e4fbdf760e01b82526004829052602482fd5b5034610485576020366003190112610485576020906040906001600160a01b036105a26138cd565b168152601f83522054604051908152f35b50346104855780600319360112610485576020600c54604051908152f35b50346104855760203660031901126104855760406020916004358152601c83522054604051908152f35b503461048557806003193601126104855760206040516127108152f35b5034610485576106273661384e565b91908152601a6020526040812090815483101561048557602061064a84846139cd565b90549060031b1c604051908152f35b5034610485577f7c636c44ca37fb8b4482d3e2bf0ac721f3252e0fcb6ee01411019deae2f584eb61071161068c36613969565b610697939193614426565b60ff8316600181101580610717575b6106af90613ec3565b6106be8160ff87161115613f03565b865260176020526106ef816106d68660408a20613943565b90919082549060031b91821b91600019901b1916179055565b6040519384938460ff6040929594938160608401971683521660208201520152565b0390a180f35b507f000000000000000000000000000000000000000000000000000000000000000060ff168111156106a6565b5034610485576107533661384e565b6008549091906001600160a01b031633036107e6578083526018602052604083209160ff600184015460801c1660038110156107d2576002146107a057600361079d93015561588d565b80f35b60405162461bcd60e51b815260206004820152600a602482015269726f756e6420646f6e6560b01b6044820152606490fd5b634e487b7160e01b85526021600452602485fd5b637b91e42d60e11b8352600483fd5b50346104855780600319360112610485576020600a54604051908152f35b503461048557610822366139e5565b61082f9493929194614426565b61083a8183146140a9565b83845b828110610a075750156109f8576001600160401b03821161097657600160401b821161097657600d5482600d558083106109be575b5082600d8552845b83811061098a5750506001600160401b03811161097657600160401b811161097657600e5481600e5580821061093c575b5084600e8552845b8281106109085750507f6b0e7669182bc03c544cb21580a41bae7373cae7514b6f8aa92e2a1fa866e9cf9394610711916108fa604051958695604087526040870191614375565b918483036020860152614375565b60019060208335930192817fbb7b4a454dc3493923482f07822329ed19e8244eff582cc204f8554c3620c3fd0155016108b3565b600e8552610970907fbb7b4a454dc3493923482f07822329ed19e8244eff582cc204f8554c3620c3fd908101908301614253565b386108ab565b634e487b7160e01b84526041600452602484fd5b60019060208335930192817fd7b6990105719101dabeb77144f2a3385c8033acd3af97e9423a695e81ad1eb501550161087a565b600d85526109f2907fd7b6990105719101dabeb77144f2a3385c8033acd3af97e9423a695e81ad1eb5908101908401614253565b38610872565b635ddc0d0560e01b8452600484fd5b90610a20600191610a1984868b613bd3565b3590613e65565b910161083d565b50346104855780600319360112610485576020602454604051908152f35b50346104855780600319360112610485576020602554604051908152f35b5034610485577fcda926b273cdda34d70f34eec47ed98ffa88633adf73ab9d60f5d278944e743c6040610a953661384e565b610a9d614426565b81600a5580600b5582519182526020820152a180f35b50346104855760203660031901126104855760406020916004358152601d83522054604051908152f35b503461048557806003193601126104855760e0600f54601054600c54601254601354906014549260155494604051968752602087015260408601526060850152608084015260a083015260c0820152f35b5034610485578060031936011261048557602060405160028152f35b5034610485576020366003190112610485576020906040906001600160a01b03610b726138cd565b168152602183522054604051908152f35b50346104855780600319360112610485576008546040516001600160a01b039091168152602090f35b50346104855760203660031901126104855760209060ff906040906001600160a01b03610bd76138cd565b168152602884522054166040519015158152f35b503461048557610c2b610bfd3661384e565b610c0561455e565b610c0d61457b565b8184526018602052610c2460408520541515613d7d565b3391614b86565b6001805580f35b503461048557602036600319011261048557600435610c4f614426565b8015610c8f5760407fdccd5e5a7174d9072e757e4a3d08cae5ad16b7c3d60bf2ab73abb6a0495d287a91602654908060265582519182526020820152a180f35b60405162461bcd60e51b815260206004820152601560248201527405468726573686f6c64206d757374206265203e203605c1b6044820152606490fd5b503461048557604036600319011261048557600435610ce96138e3565b610cf1614426565b6001600160a01b03168015610d5e5781604091610d336127107f7cfad8b150be9751a5386cc4e0f549618032ff63d14fab4f77cd4b0aaaedc2429511156141dc565b81600655806bffffffffffffffffffffffff60a01b600754161760075582519182526020820152a180f35b60405162461bcd60e51b81526020600482015260126024820152711c9958da5c1a595b9d081c995c5d5a5c995960721b6044820152606490fd5b5034610485576020366003190112610485577f87b050f471f7331bfd8fc9347cd54894f2ae6663e3339e49ca0d8b2dbe792eb26020610dd56138cd565b610ddd614426565b600880546001600160a01b0319166001600160a01b03929092169182179055604051908152a180f35b50346104855780600319360112610485576040517f00000000000000000000000000000000000000000000000000000000000000006001600160a01b03168152602090f35b50346104855780600319360112610485576020601454604051908152f35b50346104855780600319360112610485576020600f54604051908152f35b503461048557606036600319011261048557610ec0610eb4610ea76138cd565b604435906024359061429e565b604051918291826138f9565b0390f35b50346104855760ff6040602092610eda3661384e565b908252601b855282822090825284522054166040519015158152f35b5034610485576060366003190112610485576044356001600160a01b038116906024359060043590838103610f9957303303610f6457610f37908383614b86565b7f5ba6ae1472fa1f95a2f30d31b71199a65d64245b831cffe47667ebe85debeae46020604051868152a480f35b60405162461bcd60e51b815260206004820152600d60248201526c696e7465726e616c206f6e6c7960981b6044820152606490fd5b8480fd5b50346104855780600319360112610485576020602354604051908152f35b503461048557610fff610fcd36613a35565b969093919495610fdb61455e565b610fe361457b565b8089526018602052610ffa60408a20541515613d7d565b614f3e565b9560ff831695600187108015611409575b6113fa5760ff86169283156113eb5760095480151590816113e1575b506113d25783918583926110408a8d615388565b61104989614399565b611052926156f8565b9761105d84886143ba565b6110679085613e65565b6006546110749082613e88565b61271090049061108482826140e7565b9361108e91613e88565b9561109891613e88565b6110a28484613e88565b906110ac90615783565b6110d89030337f00000000000000000000000000000000000000000000000000000000000000006157af565b600554986110e58a6141aa565b600555898c8c8a604051956110f987613ac9565b3387526001600160401b03909216602080880191825260408089018b815260608a0195865261ffff90941660808a0190815260a0808b018d815260c08c018f815260e0808e019c8d529a8a52601990955292909720995193519451955190519490961b67ffffffffffffffff60a01b166001600160a01b0393909316929092179390951b60ff60e01b169290921760e89390931b60ff60e81b169290921760f09290921b6001600160f01b031916919091178455516001808501805460ff191660ff9390931692909217909155905160028085019190915591516003909301929092559087161515906008881615159060048916151590891615158d808d8f5b8984106112cf579192508d7fecc7a5b32957f4be7b9653484d7f9aec9d5b017fa0dbbff4899ec4cb9df0334f8e8e6112c58f8f338a52601e6020526112418860408c206141b9565b338a52602160205260408a2061125781546141aa565b9055338a52601f60205260408a20611270838254613e65565b905561127d6025546141aa565b60255561128c82602354613e65565b6023556040519485943398869160809360ff61ffff9298979693988160a087019a16865216602085015216604083015260608201520152565b0390a46001805580f35b8686868a60408f95976009976112fc6112eb8c60019d9c613e65565b91828452601a6020528484206141b9565b81526018602052209461131460088701918254613e65565b90556113b9575b6113a0575b61138a575b611341575b01611336888254613e65565b9055018e8d8f6111f9565b600c54611353600d8301918254613e65565b905561138261271061136a600c5460115490613e88565b0461137781600f54613e65565b600f55601254613e65565b60125561132a565b600c82016113998d8254613e65565b9055611325565b600b546113b2600b8501918254613e65565b9055611320565b600a546113cb600a8601918254613e65565b905561131b565b63cfc0057560e01b8a5260048afd5b905083113861102c565b631d2fd6ad60e11b8a5260048afd5b63dcf35d5160e01b8952600489fd5b5060ff7f0000000000000000000000000000000000000000000000000000000000000000168711611010565b50346104855780600319360112610485576020600454604051908152f35b50346104855760203660031901126104855760043590600d5482101561048557602061064a836139b2565b50346104855760203660031901126104855760043561149b61455e565b6114a361457b565b80825260186020526114ba60408320541515613d7d565b80825260186020526040822060ff600182015460801c16600381101561168957906114e96002600e9314614217565b01908154801561165757600f54906115018183614089565b7f0000000000000000000000000000000000000000000000000000000000000000865b8381106115b5575050505061153b90601354613e65565b6013556115496014546141aa565b601455601555601054600f5580548282558061159b575b827e40c0e3f46f76397857d4a8a57bc7716d70dfc76d1ab3f23decc9208b5834c56040600f5460125482519182526020820152a16001805580f35b6115ae9183526020832090810190614253565b3880611560565b806115c2600192896139cd565b90549060031b1c808a52601960205260408a206115e886858060a01b03835416876147d3565b838060a01b038154168b526020805260408b20611606878254613e65565b905561161486602454613e65565b602455838060a01b0390541690887f2eb6ee5835c4d14c2b95c6f3d9e30619a306083c0562030e7d84755854e5e306604080518b8152896020820152a401611524565b60405162461bcd60e51b815260206004820152600a6024820152696e6f2077696e6e65727360b01b6044820152606490fd5b634e487b7160e01b84526021600452602484fd5b5034610485578060031936011261048557602060405160048152f35b5034610485576020366003190112610485576040610ec0916116d9613b1d565b5060043581526018602052206117d6600e604051926116f784613a97565b8054845261173360ff60018301546001600160401b03811660208801526001600160401b038160401c16604088015260801c1660608601613c04565b60028101546080850152600381015460a085015260ff600482015481811660c087015260081c1660e085015261176b60058201613c10565b61010085015261177d60068201613d06565b610120850152600781015461014085015260088101546101608501526009810154610180850152600a8101546101a0850152600b8101546101c0850152600c8101546101e0850152600d81015461020085015201613d32565b6102208201526040519182916020835260208301906136e1565b5034610485576020366003190112610485576020906040906001600160a01b036118186138cd565b1681528280522054604051908152f35b5034610485578060031936011261048557546040516001600160a01b039091168152602090f35b503461048557806003193601126104855761186861457b565b6027546026541161187b57610c2b6157f3565b60405162461bcd60e51b815260206004820152600f60248201526e10995b1bddc81d1a1c995cda1bdb19608a1b6044820152606490fd5b50346104855760203660031901126104855760043581526018602052604090208054906001810154906002810154600382015460048301546007840154600885015490600986015492600a87015494600b88015496600c89015498600d0154996040519b8c526001600160401b03811660208d01528060401c6001600160401b031660408d015260608c019060801c60ff169061194e916136be565b60808b015260a08a015260ff811660c08a015260081c60ff1660e08901526101008801526101208701526101408601526101608501526101808401526101a08301526101c08201526101e090f35b5034610485576020366003190112610485576020906040906001600160a01b036119c46138cd565b168152602283522054604051908152f35b5034610485578060031936011261048557602060405160508152f35b503461048557604036600319011261048557611a0b613933565b60ff16815260176020526040812060243591601083101561048557602061064a8484613943565b50346104855780600319360112610485576020601154604051908152f35b503461048557602036600319011261048557600435801515809103611ab75733825260286020526040822060ff1981541660ff83161790556040519081527fe8d1e64f2bcd39338b4e01da5a5b075ca0c23648ee7e603e08f4740a94554dfc60203392a280f35b5080fd5b5034610485578060031936011261048557611ad4614426565b611adc61455e565b600160ff1960025416176002557f62e78cea01bee320cd4e420270b5ea74000d11b0c9f74754ebdbfc544b05a2586020604051338152a180f35b5034610485578060031936011261048557602060405160018152f35b50346104855760203660031901126104855760043590600e5482101561048557602061064a83613997565b503461048557602036600319011261048557611b91604061010092611b80613db9565b506004358152601960205220613df6565b611b9e6040518092613864565bf35b5034610485576020366003190112610485577e40c0e3f46f76397857d4a8a57bc7716d70dfc76d1ab3f23decc9208b5834c56040611c16600435611be2614426565b611c0e8130337f00000000000000000000000000000000000000000000000000000000000000006157af565b600f54613e65565b80600f5560125482519182526020820152a180f35b50346104855780600319360112610485576040517f00000000000000000000000000000000000000000000000000000000000000006001600160a01b03168152602090f35b503461048557602036600319011261048557600435611c8d614426565b611c9561457b565b8082526018602052611cac60408320541515613d7d565b81526018602052600160408220015460ff8160801c166003811015611d465790611ce060026001600160401b039314614217565b60401c1662ed4e008101809111611d3257421115611cff576001805580f35b60405162461bcd60e51b815260206004820152600b60248201526a1b9bdd08195e1c1a5c995960aa1b6044820152606490fd5b634e487b7160e01b82526011600452602482fd5b634e487b7160e01b83526021600452602483fd5b5034610485576060366003190112610485577fea23a808c77d9c1bfece65b21a325d1ec2d926633c1c7a8b219dc89f3858cfc06060600435604435602435611da0614426565b611dae6127108311156141dc565b8260105580600c558160115560405192835260208301526040820152a180f35b5034610485578060031936011261048557611de7614426565b80546001600160a01b03198116825581906001600160a01b03167f8be0079c531659141344cd1fd0a4f28419497f9722a3daafe3b4186f6b6457e08280a380f35b50346104855780600319360112610485576020601554604051908152f35b50346104855780600319360112610485576020600b54604051908152f35b5034610485578060031936011261048557602354602454602554600454604080519485526020850193909352918301526060820152608090f35b50346104855780600319360112610485576020601354604051908152f35b50611ed9611ec936613a35565b9295610fdb97919492959761455e565b95600160ff871610801561277b575b61276c5760ff85161561275d576009548015159081612753575b5061274457611f25918691611f17878a615388565b611f2086614399565b6156f8565b90611f39611f3382856143ba565b82613e65565b90612710611f4960065484613e88565b0491611f71611f66611f5b85846140e7565b9260ff891690613e88565b9360ff881690613e88565b9360405190611f81606083613ae5565b6002825260403660208401377f00000000000000000000000000000000000000000000000000000000000000006001600160a01b0316611fc083613be3565b52815160011015612730576040820160018060a01b037f00000000000000000000000000000000000000000000000000000000000000001690526040516307c0329d60e21b8152856004820152604060248201528b8180612024604482018761416d565b03817f00000000000000000000000000000000000000000000000000000000000000006001600160a01b03165afa801561272557612069918d9161270b575b50613be3565b51918234106126d3577f00000000000000000000000000000000000000000000000000000000000000006001600160a01b03163b156126cf57604051630d0e30db60e41b81528c81600481877f00000000000000000000000000000000000000000000000000000000000000006001600160a01b03165af18015612678576126bb575b5060405163095ea7b360e01b81527f00000000000000000000000000000000000000000000000000000000000000006001600160a01b03166004820152602481018490526020818e81806044810103917f00000000000000000000000000000000000000000000000000000000000000006001600160a01b03165af1801561267857612683575b506040516370a0823160e01b8152306004820152906020826024817f00000000000000000000000000000000000000000000000000000000000000006001600160a01b03165afa918215612678578d92612644575b5061012c4201421161263057906122098d8093604051809381926338ed173960e01b835289600484015284602484015260a0604484015260a483019061416d565b3060648301524261012c0160848301520381837f00000000000000000000000000000000000000000000000000000000000000006001600160a01b03165af1801561260557612610575b506040516370a0823160e01b81523060048201526020816024817f00000000000000000000000000000000000000000000000000000000000000006001600160a01b03165afa908115612605578893916125c7575b50906122b3916140e7565b1061258f578895828c93341161254e575b50908160039261253f575b508460ff8a8d8b6005549e8f926122e5846141aa565b600555604080519a8b956122f887613ac9565b3387526001600160401b0360208801941684528860a084890198828b168a5282606082019816885261ffff6080820199168952019816885260c08d01998a5260e08d019a8b5281526019602052209960018060a01b039060018060a01b03905116166bffffffffffffffffffffffff60a01b8b5416178a55518954938660e01b905160e01b16918660e81b905160e81b169261ffff60f01b905160f01b169360018060f01b03916001600160401b0360a01b9060a01b169069ffffffffffffffffffff60a01b191617161717178655511660ff60018601911660ff19825416179055516002840155519101558890600186161515600287161515928a898d8c60048c1615159360088d161515955b60ff85168110612450575091927fecc7a5b32957f4be7b9653484d7f9aec9d5b017fa0dbbff4899ec4cb9df0334f8d8d6112c58e8e338a52601e6020526112418860408c206141b9565b60018160098a8a8f8f8c908b61247d8c604061246e60ff9d8f613e65565b93848152601a602052206141b9565b8c52601860205260408c209460088601612498858254613e65565b9055612526575b61250d575b6124f6575b506124c5575b016124bb8c8254613e65565b9055019050612406565b600c546124d7600d8301918254613e65565b90556124ee61271061136a600c5460115490613e88565b6012556124af565b612505600c8401918254613e65565b90558f6124a9565b600b5461251f600b8601918254613e65565b90556124a4565b600a54612538600a8701918254613e65565b905561249f565b61254890615783565b386122cf565b838080939499506125608193346140e7565b818115612586575b3390f11561257957948895386122c4565b50604051903d90823e3d90fd5b506108fc612568565b60405162461bcd60e51b815260206004820152601060248201526f14ddd85c081d5b99195c999d5b99195960821b6044820152606490fd5b919250506020813d6020116125fd575b816125e460209383613ae5565b810103126125f857518691906122b36122a8565b600080fd5b3d91506125d7565b6040513d85823e3d90fd5b61262b903d8085833e6126238183613ae5565b8101906140f4565b612253565b634e487b7160e01b8d52601160045260248dfd5b9091506020813d602011612670575b8161266060209383613ae5565b810103126125f8575190386121c8565b3d9150612653565b6040513d8f823e3d90fd5b6020813d6020116126b3575b8161269c60209383613ae5565b810103126126af57518015158114612173575b8c80fd5b3d915061268f565b8c6126c8919d929d613ae5565b9a386120ec565b8b80fd5b60405162461bcd60e51b815260206004820152601060248201526f496e73756666696369656e7420504c5360801b6044820152606490fd5b61271f91503d808f833e6126238183613ae5565b38612063565b6040513d8e823e3d90fd5b634e487b7160e01b8b52603260045260248bfd5b63cfc0057560e01b8852600488fd5b9050831138611f02565b631d2fd6ad60e11b8852600488fd5b63dcf35d5160e01b8852600488fd5b5060ff7f00000000000000000000000000000000000000000000000000000000000000001660ff871611611ee8565b50346104855780600319360112610485576020600954604051908152f35b50346104855780600319360112610485576020600554604051908152f35b5034610485578060031936011261048557602060ff600254166040519015158152f35b5034610485578060031936011261048557602060405160038152f35b503461048557612834366139e5565b909161283e61455e565b61284661457b565b6128518282146140a9565b801561289457845b81811061286857856001805580f35b8061288e6128796001938589613bd3565b35339061288784888a613bd3565b3590614b86565b01612859565b60405162461bcd60e51b815260206004820152600c60248201526b656d7074792061727261797360a01b6044820152606490fd5b5034610485576128d73661384e565b6128df614426565b81835260186020526128f660408420541515613d7d565b818352601c602052604083205460405160208101908382526020815261291d604082613ae5565b519020036129605760207f4704c5ba8acad9b83e07ffdd1fd6cf6192c8abd0611e3c8251b6fbd867d5787691838552601d8252806040862055604051908152a280f35b60405162461bcd60e51b815260206004820152600f60248201526e0c6dedadad2e840dad2e6dac2e8c6d608b1b6044820152606490fd5b503461048557602036600319011261048557604061010091600435815260196020522080549060ff6001820154169060036002820154910154916040519360018060a01b03811685526001600160401b038160a01c16602086015260ff8160e01c16604086015260ff8160e81c16606086015260f01c608085015260a084015260c083015260e0820152f35b5034610485576020366003190112610485576001600160a01b03612a456138cd565b16808252601f602052604082205490808352602080526040832054908084526021602052604084205490845260226020526040842054811515600014612b0a5761271081028181046127101482151715612af65782612aa391614089565b915b8484039386861281861281169082871390151617612ae25760c09650604051958652602086015260408501526060840152608083015260a0820152f35b634e487b7160e01b87526011600452602487fd5b634e487b7160e01b86526011600452602486fd5b8491612aa5565b50346104855780600319360112610485576020602654604051908152f35b50346104855780600319360112610485576007546040516001600160a01b039091168152602090f35b5034610485576040612b72612b6c3661384e565b90613f43565b825191151582526020820152f35b50346104855780600319360112610485576020601054604051908152f35b503461048557604036600319011261048557612bb86138cd565b6001600160a01b03168152601e602052604081208054602435929083101561048557602061064a84846139cd565b5034610485578060031936011261048557602060405162ed4e008152f35b5034610485578060031936011261048557612c1d614426565b60025460ff811615612c5d5760ff19166002557f5db9ee0a495bf2e6ff9c91a7834c1ba4fdd244a5e8aa4e537bd38aeae4b073aa6020604051338152a180f35b638dfc202b60e01b8252600482fd5b5034610485577f226c035c58a3af0339491203d91bfea130eb356c2c1c1834d5bd479fcd327920610711612c9f36613969565b612caa939193614426565b60ff8316600181101580612ce9575b612cc290613ec3565b612cd18160ff87161115613f03565b865260166020526106ef816106d68660408a20613943565b507f000000000000000000000000000000000000000000000000000000000000000060ff16811115612cb9565b503461048557604036600319011261048557612d30613933565b60ff16815260166020526040812060243591601083101561048557602061064a8484613943565b5034610485578060031936011261048557612d7061455e565b612d78614426565b612d83600454614814565b60045460018101809111611d32578082526018602052604082205415612e935780825260186020526001600160401b0360016040842001541615612e38575b80600455808252601860205260008051602061620c8339815191526001600160401b0360016040852001541682845260186020526001600160401b03600160408620015460401c1690612e32604051928392839092916001600160401b0360209181604085019616845216910152565b0390a280f35b8082526018602052600160408320016001600160401b03804216166001600160401b0319825416179055612e8e6001600160401b03612e7960035442613e65565b16828452601860205260016040852001613e9b565b612dc2565b61079d904290614871565b5034610485576020366003190112610485577fa43b887135e50a579b92d986f6a117baa67f560bee7c2f4bcfded56317d4e5556020600435612ede614426565b80600355604051908152a180f35b5034610485578060031936011261048557602060405160ff7f0000000000000000000000000000000000000000000000000000000000000000168152f35b503461048557604036600319011261048557612f446138e3565b612f4c614426565b612f5461457b565b6001600160a01b03811615612f9157610c2b90600435907f00000000000000000000000000000000000000000000000000000000000000006147d3565b60405162461bcd60e51b815260206004820152600c60248201526b7a65726f206164647265737360a01b6044820152606490fd5b503461048557602036600319011261048557600435612fe261455e565b612fea61457b565b808252601860205261300160408320541515613d7d565b80825260186020526040822090600182015460ff8160801c1660038110156107d2576002146130555760401c6001600160401b031642106130465790610c2b916145c1565b63280ae12160e21b8352600483fd5b630653ad9b60e31b8452600484fd5b5034610485578060031936011261048557602060405160088152f35b50346104855780600319360112610485576020601254604051908152f35b503461048557602036600319011261048557610ec090610eb4906040906001600160a01b036130cb6138cd565b168152601e60205220613d32565b5034610485576020366003190112610485576130f36138cd565b6001600160a01b03168152601e6020526040812080548291825b82811061311f57602084604051908152f35b61312981836139cd565b90549060031b1c8086526019602052604086208690805460ff8160e01c16926001600160401b038260a01c16905b84811061316c5750505050505060010161310d565b6131768183613e65565b808c52601860205260408c209060ff600183015460801c1660038110156132f15760021490816132cf575b506131b0575b50600101613157565b61325a906001929b8d8660f01c92856132446131fb60038c015460ff600486015460081c166131e160058701613c10565b9160048a161515926131f560068901613d06565b91614484565b9060028d015460ff8d60e81c1691828852601660205261322e6132218260408b20613943565b90549060031b1c83613e88565b928894806132c3575b613292575b505050613e65565b9416151580613289575b613261575b5050613e65565b99906131a7565b60070154919261327b929091508061328357508490613e88565b908d38613253565b90613e88565b5083151561324e565b6132ba939450906132ad918952601760205260408920613943565b90549060031b1c90613e88565b9038808061323c565b5060028b161515613237565b90508c52601b60205260408c20878d5260205260ff60408d20541615386131a1565b634e487b7160e01b8e52602160045260248efd5b50346104855780600319360112610485576020600654604051908152f35b5034610485578060031936011261048557602060405160148152f35b5034610485576020366003190112610485576004356001600160401b038111611ab75761337090369060040161368e565b9061337a82613b06565b916133886040519384613ae5565b808352601f1961339782613b06565b01845b81811061343c575050835b8181106133fe578385604051918291602083016020845282518091526020604085019301915b8181106133d9575050500390f35b919350916020610100826133f06001948851613864565b0194019101918493926133cb565b8061340c6001928486613bd3565b358652601960205261342060408720613df6565b61342a8287613bf0565b526134358186613bf0565b50016133a5565b602090613447613db9565b8282880101520161339a565b50346104855760207fcf522dc435d37dc8c46f84c4d158065e47451f0a0b8d1168dc5b5ad30608e66c6134853661384e565b613490939193614426565b838552601882526134a660408620541515613d7d565b838552601c8252806040862055604051908152a280f35b5034610485576040366003190112610485576004359061ffff821682036104855760206134f6836134ed81614399565b602435906143ba565b604051908152f35b5034610485576020366003190112610485576004356001600160401b038111611ab75761352f90369060040161368e565b9061353982613b06565b916135476040519384613ae5565b808352601f1961355682613b06565b01845b81811061365b575050835b8181106135d25783856040519182916020830160208452825180915260408401602060408360051b870101940192905b8282106135a357505050500390f35b919360019193955060206135c28192603f198a820301865288516136e1565b9601920192018594939192613594565b806135e06001928486613bd3565b358652601860205260408620613639600e604051926135fe84613a97565b8054845261173360ff878301546001600160401b03811660208801526001600160401b038160401c16604088015260801c1660608601613c04565b6102208201526136498287613bf0565b526136548186613bf0565b5001613564565b602090613666613b1d565b82828801015201613559565b905034611ab75781600319360112611ab7576020906027548152f35b9181601f840112156125f8578235916001600160401b0383116125f8576020808501948460051b0101116125f857565b9060038210156136cb5752565b634e487b7160e01b600052602160045260246000fd5b6104e0820190805183526001600160401b0360208201511660208401526001600160401b036040820151166040840152613723606082015160608501906136be565b6080810151608084015260a081015160a084015260ff60c08201511660c084015260ff60e08201511660e084015261010081015161010084016000905b6014821061383557505050610120810151600061038085015b6003821061381c575050506105006102208261014060209401516103e08701526101608101516104008701526101808101516104208701526101a08101516104408701526101c08101516104608701526101e08101516104808701526102008101516104a08701520151936104e06104c082015284518094520192019060005b8181106138065750505090565b82518452602093840193909201916001016137f9565b60208060019260ff865116815201930191019091613779565b60208060019260ff865116815201930191019091613760565b60409060031901126125f8576004359060243590565b60e0809160018060a01b0381511684526001600160401b03602082015116602085015260ff604082015116604085015260ff606082015116606085015261ffff608082015116608085015260ff60a08201511660a085015260c081015160c08501520151910152565b600435906001600160a01b03821682036125f857565b602435906001600160a01b03821682036125f857565b602060408183019282815284518094520192019060005b81811061391d5750505090565b8251845260209384019390920191600101613910565b6004359060ff821682036125f857565b6010821015613953570190600090565b634e487b7160e01b600052603260045260246000fd5b60609060031901126125f85760043560ff811681036125f8579060243560ff811681036125f8579060443590565b600e5481101561395357600e60005260206000200190600090565b600d5481101561395357600d60005260206000200190600090565b80548210156139535760005260206000200190600090565b60406003198201126125f8576004356001600160401b0381116125f85781613a0f9160040161368e565b92909291602435906001600160401b0382116125f857613a319160040161368e565b9091565b9060c06003198301126125f85760043591602435906001600160401b0382116125f857613a649160040161368e565b909160443560ff811681036125f8579060643560ff811681036125f8579060843561ffff811681036125f8579060a43590565b61024081019081106001600160401b03821117613ab357604052565b634e487b7160e01b600052604160045260246000fd5b61010081019081106001600160401b03821117613ab357604052565b90601f801991011681019081106001600160401b03821117613ab357604052565b6001600160401b038111613ab35760051b60200190565b60405190613b2a82613a97565b816000815260006020820152600060408201526000606082015260006080820152600060a0820152600060c0820152600060e082015261028060405190613b718183613ae5565b368237610100820152610220606091604051613b8d8482613ae5565b8336823761012082015260006101408201526000610160820152600061018082015260006101a082015260006101c082015260006101e082015260006102008201520152565b91908110156139535760051b0190565b8051156139535760200190565b80518210156139535760209160051b010190565b60038210156136cb5752565b9060ff60405192548181168452818160081c166020850152818160101c166040850152818160181c166060850152818160201c166080850152818160281c1660a0850152818160301c1660c0850152818160381c1660e0850152818160401c16610100850152818160481c16610120850152818160501c16610140850152818160581c16610160850152818160601c16610180850152818160681c166101a0850152818160701c166101c0850152818160781c166101e0850152818160801c16610200850152818160881c16610220850152818160901c1661024085015260981c16610260830152613d0461028083613ae5565b565b9060ff60405192548181168452818160081c16602085015260101c166040830152613d04606083613ae5565b906040519182815491828252602082019060005260206000209260005b818110613d64575050613d0492500383613ae5565b8454835260019485019487945060209093019201613d4f565b15613d8457565b60405162461bcd60e51b815260206004820152600d60248201526c726f756e64206d697373696e6760981b6044820152606490fd5b60405190613dc682613ac9565b600060e0838281528260208201528260408201528260608201528260808201528260a08201528260c08201520152565b90604051613e0381613ac9565b60e060038294805460018060a01b03811685526001600160401b038160a01c16602086015260ff81851c16604086015260ff8160e81c16606086015260f01c608085015260ff60018201541660a0850152600281015460c08501520154910152565b91908201809211613e7257565b634e487b7160e01b600052601160045260246000fd5b81810292918115918404141715613e7257565b9067ffffffffffffffff60401b82549160401b169067ffffffffffffffff60401b1916179055565b15613eca57565b60405162461bcd60e51b815260206004820152601160248201527073706f74206f7574206f662072616e676560781b6044820152606490fd5b15613f0a57565b60405162461bcd60e51b815260206004820152601160248201527068697473206f7574206f662072616e676560781b6044820152606490fd5b81600052601860205260406000209060ff600183015460801c1660038110156136cb5760020361407e576000526019602052613f8c604060002092613f8784613df6565b614b46565b1561407457600161400f60028454948560f01c9560ff613fd460038401548260048a015460081c16613fc060058b01613c10565b9160048c161515926131f560068d01613d06565b94909301549160e81c1691826000526016602052613ff9613221826040600020613943565b9260009480614068575b61404b57505050613e65565b9216151580614042575b614025575b5080151591565b6007015461403c9190806132835750600190613e88565b3861401e565b50811515614019565b6132ba939450906132ad9160005260176020526040600020613943565b50600289161515614003565b5050600090600090565b505050600090600090565b8115614093570490565b634e487b7160e01b600052601260045260246000fd5b156140b057565b60405162461bcd60e51b815260206004820152600f60248201526e0d8cadccee8d040dad2e6dac2e8c6d608b1b6044820152606490fd5b91908203918211613e7257565b6020818303126125f8578051906001600160401b0382116125f857019080601f830112156125f857815161412781613b06565b926141356040519485613ae5565b81845260208085019260051b8201019283116125f857602001905b82821061415d5750505090565b8151815260209182019101614150565b906020808351928381520192019060005b81811061418b5750505090565b82516001600160a01b031684526020938401939092019160010161417e565b6000198114613e725760010190565b90815491600160401b831015613ab357826106d6916001613d04950181556139cd565b156141e357565b60405162461bcd60e51b815260206004820152600c60248201526b0cccaca40e8dede40d0d2ced60a31b6044820152606490fd5b1561421e57565b60405162461bcd60e51b815260206004820152600d60248201526c1b9bdd08199a5b985b1a5e9959609a1b6044820152606490fd5b81811061425e575050565b60008155600101614253565b90600160401b8111613ab35781549080835581811061428857505050565b613d049260005260206000209182019101614253565b6001600160a01b03166000908152601e602052604090208054919290919081841015614357576142e2916142d3859283613e65565b9080821161434f575b506140e7565b906142ec82613b06565b926142fa6040519485613ae5565b828452601f1961430984613b06565b0136602086013760005b838110614321575050505090565b8061433761433160019385613e65565b856139cd565b90549060031b1c6143488288613bf0565b5201614313565b9050386142dc565b50505050604051614369602082613ae5565b60008152600036813790565b81835290916001600160fb1b0383116125f85760209260051b809284830137010190565b61ffff600f80921716036143a957565b6308aacfc360e31b60005260046000fd5b600092916001821661441c575b60028216614408575b600482166143f4575b506008166143e357565b906143f190600c5490613e65565b90565b6144019060089294613e65565b92906143d9565b9261441690600b5490613e65565b926143d0565b600a5493506143c7565b6000546001600160a01b0316330361443a57565b63118cdaa760e01b6000523360045260246000fd5b9060148110156139535760051b0190565b60ff6000199116019060ff8211613e7257565b9060038110156139535760051b0190565b9291939060009560009060005b60ff811660148110156144f2576144aa60ff918661444f565b5116600160ff6144b983614460565b161b88166144ce575b5060010160ff16614491565b986144d8906141aa565b9860ff8716146144e9575b386144c2565b600192506144e3565b505093509491905061450357509050565b60005b60ff811660038110156145575760ff61452c8161452560019487614473565b5116614460565b161b8416614540575b60010160ff16614506565b94600161454e60ff926141aa565b96915050614535565b5050509050565b60ff6002541661456a57565b63d93c066560e01b60005260046000fd5b60026001541461458c576002600155565b633ee5aeb560e01b60005260046000fd5b9060038110156136cb57815460ff60801b191660809190911b60ff60801b16179055565b60018201805460801c60ff1693929060038510156136cb57600285146145575760009415614797575b506003810190815415614605575b5050613d0491925061588d565b60085485906001600160a01b03168015158061478b575b6146c65750839052601c60205260408520541515806146b1575b15614658575060408483613d04959652601d602052205490555b8291386145f8565b600019430190438211612af6579460406008613d049697015491858152601a602052205460405191602083019340845285604084015260608301526080820152608081526146a760a082613ae5565b5190209055614650565b50828552601d60205260408520541515614636565b8460208392602460405180968193637363ae1f60e01b83528660048401525af192831561478057829361472d575b507e5ad2040ac867410a5ddf8877ff0229f6d92669359e59c28426092325ebfc716020600494604051908152a2637b91e42d60e11b8152fd5b92506020833d602011614778575b8161474860209383613ae5565b81010312611ab7579151917e5ad2040ac867410a5ddf8877ff0229f6d92669359e59c28426092325ebfc716146f4565b3d915061473b565b6040513d84823e3d90fd5b5060028301541561461c565b805460ff60801b1916600160801b179055817fe9f7d7fd0b133404f0ccff737d6f3594748e04bc5507adfaed35835ef98937118580a2386145ea565b60405163a9059cbb60e01b60208201526001600160a01b03929092166024830152604480830193909352918152613d049161480f606483613ae5565b615e86565b80600052601860205260406000208054158015614854575b614850576001600160401b03600182015460401c16421061485057613d04916145c1565b5050565b5060ff600182015460801c1660038110156136cb5760021461482c565b906001600160401b0361488660035483613e65565b1661488f615eed565b614897615f30565b604051602092916148a88483613ae5565b600082526000368137604051926148be84613a97565b8784526001600160401b038716858501528560408501526000606085015260006080850152600060a0850152600060c0850152600060e085015261010084015261012083015260006101408301526000610160830152600061018083015260006101a083015260006101c083015260006101e083015260006102008301526102208201528460005260188252604060002081518155600181016001600160401b03808585015116166001600160401b031982541617815561498c6001600160401b0360408501511682613e9b565b606083015160038110156136cb576149a39161459d565b6080820151600282015560a082015160038201556149ee6004820160ff8060c0860151161660ff1982541617815560ff60e08501511661ff0082549160081b169061ff001916179055565b61010082015160009060005b8560148210614b2157505050600582015561012082015160009060005b8560038210614afc5750505081600e9160066102209401556101408401516007820155610160840151600882015561018084015160098201556101a0840151600a8201556101c0840151600b8201556101e0840151600c820155610200840151600d82015501910151918251926001600160401b038411613ab3578190614a9e858561426a565b0191600052806000209060005b848110614aea5750505060048590555050604080516001600160401b03938416815291909216602082015260008051602061620c8339815191529190a2565b83518382015592810192600101614aab565b82519293919260019260ff600386901b81811b199092169216901b1793019101614a17565b82519293919260019260ff600386901b81811b199092169216901b17930191016149fa565b6001600160401b03602082015116808310614b7e5760ff6040614b6c9301511690613e65565b600019810191908211613e7257111590565b505050600090565b806000526018602052604060002092600184015460ff8160801c1660038110156136cb57600203614eeb576001600160401b039060401c1662ed4e008101809111613e72574211614f2d576000838152601960205260409020805490916001600160a01b03918216911603614efc57614c0282613f8783613df6565b15614eeb5781600052601b60205260406000208360005260205260ff60406000205416614eda5781600052601b6020526040600020836000526020526040600020600160ff198254161790556001810160ff81541680614ebe575b505080548060f01c94614c99600384015460ff600484015460081c16614c8560058501613c10565b9160048a161515926131f560068701613d06565b93909160ff60028301549460e81c1693846000526016602052614cd0614cc3856040600020613943565b90549060031b1c82613e88565b9460009680614eb2575b614e8e575b5050614ceb8585613e65565b6001809916151580614e85575b614e1f575b918188614d32614d8995827ff0c5530862e9fcfa7ebbce4bd4344ad74ec0dd820319df07ce8b1130270f3de89a999896615f6d565b9383549060088260f01c1615159182614e0a575b5081614dfe575b50614deb575b505081614d8e575b60018060a01b0390541697604051948594859094939260609260808301968352602083015260408201520152565b0390a4565b60018060a01b03815416600052602080526040600020614daf838254613e65565b905580546001600160a01b031660009081526022602052604090208054614dd5906141aa565b9055614de382602454613e65565b602455614d5b565b600e614df792016141b9565b3888614d53565b60099150101538614d4d565b600991925060ff9060e81c1610159038614d46565b975091614d8991838860077ff0c5530862e9fcfa7ebbce4bd4344ad74ec0dd820319df07ce8b1130270f3de898979601548015600014614e795750614d32614e6a60015b809d613e88565b93955050509193949550614cfd565b614e6a614d3291614e63565b50801515614cf8565b614eaa92965060005260176020526132ad846040600020613943565b933880614cdf565b5060028a161515614cda565b614ec960ff91614460565b1660ff198254161790553880614c5d565b630c8d9eab60e31b60005260046000fd5b633562af9d60e11b60005260046000fd5b60405162461bcd60e51b81526020600482015260096024820152683737ba1037bbb732b960b91b6044820152606490fd5b6341524ecf60e11b60005260046000fd5b80600052601860205260406000205415615033575b614f5c81614814565b80600052601860205260016040600020015460ff8160801c1660038110156136cb5715908161501d575b506143f1576004549081600052601860205260406000205415615015575b50614fae81614814565b80600052601860205260ff60016040600020015460801c1660038110156136cb571580614fef575b6143f15760018101809111613e72576143f14282614871565b508060005260186020526001600160401b0360016040600020015460401c164210614fd6565b905038614fa4565b6001600160401b03915060401c16421038614f86565b60005b600181106150445750614f53565b61504e8183613e65565b8060005260186020526040600020541561506c575b50600101615036565b6000198101818111613e725760005260186020526001600160401b0360016040600020015460401c1642811060001461537a57506001600160401b03425b166001600160401b036150bf60035483613e65565b16906150c9615eed565b6150d1615f30565b604051602092916150e28483613ae5565b600082526000368137604051926150f884613a97565b87845285858501528660408501526000606085015260006080850152600060a0850152600060c0850152600060e085015261010084015261012083015260006101408301526000610160830152600061018083015260006101a083015260006101c083015260006101e083015260006102008301526102208201528460005260188252604060002081518155600181016001600160401b03808585015116166001600160401b03198254161781556151bd6001600160401b0360408501511682613e9b565b606083015160038110156136cb576151d49161459d565b6080820151600282015560a0820151600382015561521f6004820160ff8060c0860151161660ff1982541617815560ff60e08501511661ff0082549160081b169061ff001916179055565b610100820151600090815b8560148210615355575050506005820155610120820151600090815b85600382106153305750505081600e9160066102209401556101408401516007820155610160840151600882015561018084015160098201556101a0840151600a8201556101c0840151600b8201556101e0840151600c820155610200840151600d82015501910151918251926001600160401b038411613ab35781906152cd858561426a565b0191600052806000209060005b84811061531e575050604080516001600160401b03958616815295909416602086015250600195949360008051602061620c8339815191529392509050a290615063565b835183820155928101926001016152da565b82519293919260019260ff600386901b81811b199092169216901b1793019101615246565b82519293919260019260ff600386901b81811b199092169216901b179301910161522a565b6001600160401b03906150aa565b60005b60ff8316811061539a57505050565b6153a48183613e65565b806000526018602052604060002054156153c2575b5060010161538b565b6000198101818111613e725760005260186020526001600160401b0360016040600020015460401c164281106000146156f35750425b6001600160401b0361540e600354828416613e65565b16615417615eed565b61541f615f30565b604051602092916154308483613ae5565b6000825260003681376040519261544684613a97565b8784526001600160401b038716858501528560408501526000606085015260006080850152600060a0850152600060c0850152600060e085015261010084015261012083015260006101408301526000610160830152600061018083015260006101a083015260006101c083015260006101e0830152600061020083015261022082015284600052601882526040600020815181556001600160401b03808484015116166001600160401b03196001830154161760018201556155196001600160401b0360408401511660018301613e9b565b606082015160038110156136cb57615534906001830161459d565b6080820151600282015560a0820151600382015561557f6004820160ff8060c0860151161660ff1982541617815560ff60e08501511661ff0082549160081b169061ff001916179055565b610100820151600090815b85601482106156ce575050506005820155610120820151600090815b85600382106156a95750505081600e9160066102209401556101408401516007820155610160840151600882015561018084015160098201556101a0840151600a8201556101c0840151600b8201556101e0840151600c820155610200840151600d82015501910151918251926001600160401b038411613ab357819061562d858561426a565b0191600052806000209060005b8481106156975750505050509160008051602061620c8339815191526001600160401b0360ff959361568d60019660405193849316839092916001600160401b0360209181604085019616845216910152565b0390a291506153b9565b8351838201559281019260010161563a565b82519293919260019260ff600386901b81811b199092169216901b17930191016155a6565b82519293919260019260ff600386901b81811b199092169216901b179301910161558a565b6153f8565b91929060ff6000941681036157675790916000915b80831061571957505050565b90929193615728858386613bd3565b3560ff81168082036125f8578015908115615778575b506157675760ff615750600192614460565b161b8082166157675760019117940191929061570d565b631d2fd6ad60e11b60005260046000fd5b60509150113861573e565b80156157ac5761579590602754613e65565b8060275560265411156157a457565b613d046157f3565b50565b6040516323b872dd60e01b60208201526001600160a01b039283166024820152929091166044830152606480830193909352918152613d049161480f608483613ae5565b60275480156157ac5760207f605c5b4f4308c1e42a024db1dc59389917ccc2058e83a1f6b672d8d60d12d7e191600060275561587a60405163a9059cbb60e01b8482015261dead602482015282604482015260448152615854606482613ae5565b7f0000000000000000000000000000000000000000000000000000000000000000615e86565b604051908152a1565b8115614093570690565b908160005260186020526040600020916003830154928315615e5257600181019060ff825460801c1660038110156136cb5760021461455757604051610280956158d78783613ae5565b8636833760405195610a006158ec8189613ae5565b36883760005b60ff8116605081101561592757600181019160ff8311613e725760ff928361591c6001948d616074565b9116905201166158f2565b5050919395969490929460005b60ff811660148110156159e857604080516020810188815260ff85169282019290925261596e81606081015b03601f198101835282613ae5565b51902091816050039160ff8311613e72576159e060ff6159d7838f6159a261599c859a8660019b1690615883565b83613e65565b6159d1856159b08585616074565b511691866159be8286616074565b51166159ca8686616074565b5283616074565b52616074565b5116918a61444f565b520116615934565b50509396509390948660009060005b60148110615e24575050600583015560048201805460ff191660ff6014860681169182178355615a4191615a2b908b61444f565b51835461ff001916911660081b61ff0016178255565b615a4a84616085565b6007840190815560609360405191615a628684613ae5565b85368437600098895b60ff8b166014811015615a9a5760ff9160018f615a8e856145258496829461444f565b161b179b011699615a6b565b50989b909294969a9193959799506107809b8c615aba6040519e8f613ae5565b368e3760009a60018e5b60ff82169060508211615b52578d600160ff615adf86614460565b161b1615615b1a575b50509060ff9d615b0460509e9d9c9b9a999897969594936161e9565b9192939495969798999a9b9c9d509d508e615ac4565b919d9c9b9a999897969594939291615b318e6161e9565b9d60ff16615b3e916161fa565b52909192939495969798999a9b388f615ae8565b5050509295989a50929598509295996005604051916020830193845260408084015282015264706c75733360d81b608082015260808152615b9460a082613ae5565b519020603c9990959060005b60ff8116906003821015615c4b5760408051602081018b815260ff8416928201929092528e9392918391615bd78160608101615960565b51902093039260ff8411613e72578f8360ff8f93600196615c4394615c0661599c615c3b9486809d1690615883565b615c3585615c1485856161fa565b51169186615c2282866161fa565b5116615c2e86866161fa565b52836161fa565b526161fa565b511692614473565b520116615ba0565b5050949a50945094909589979298509060009160005b60038110615de457505060060155805460ff60801b1916600160811b17905554905460405193909260ff9290921691906000855b60148210615dc7575050508301526102a08201527f7a1a4d7e1f853bde9ea898de81ccfe2567585af3eb0bfe687475b1ff8eec4e91906102c090a281600052601a602052604060002060005b8154811080615dbb575b15615db557615cfa81836139cd565b90549060031b1c9081600052601960205260018060a01b03604060002054169182600052602860205260ff6040600020541680615d90575b615d47575b50615d4291506141aa565b615ce1565b303b156125f857615d42926040519163a48f066d60e01b83528760048401526024830152604482015260008160648183305af115615d37576000615d8a91613ae5565b38615d37565b5085600052601b60205260406000208160005260205260ff6040600020541615615d32565b50509050565b5062030d405a11615ceb565b825160ff1681528997506020928301926001929092019101615c95565b91928194959697989950615e116020918460ff6001955116919060ff809160031b9316831b921b19161790565b94019101908a9897969594939291615c61565b90916020615e496001928460ff875116919060ff809160031b9316831b921b19161790565b930191016159f7565b60405162461bcd60e51b815260206004820152600c60248201526b73656564206d697373696e6760a01b6044820152606490fd5b906000602091828151910182855af115615ee1576000513d615ed857506001600160a01b0381163b155b615eb75750565b635274afe760e01b60009081526001600160a01b0391909116600452602490fd5b60011415615eb0565b6040513d6000823e3d90fd5b60405190610280615efe8184613ae5565b3683378160005b60ff81166014811015615f2b5760ff916000615f236001938661444f565b520116615f05565b505050565b604051906060615f408184613ae5565b3683378160005b60ff81166003811015615f2b5760ff916000615f6560019386614473565b520116615f47565b9291801561606c576009840190815494851561602e578582116160275781925b615f988480986140e7565b9055600084815260196020526040902054615fde9084906001600160a01b03167f00000000000000000000000000000000000000000000000000000000000000006147d3565b818310615fec575b50505050565b7f68baffa75719c6abf244ca6a3760e5bfb793ce43443454a7234f2aec1bd5fc4591604091549382519182526020820152a338808080615fe6565b8592615f8d565b604091939495507f68baffa75719c6abf244ca6a3760e5bfb793ce43443454a7234f2aec1bd5fc4592505492815190815260006020820152a3600090565b506000925050565b9060508110156139535760051b0190565b600d5490811561616d5760008091600e545b80841061615257506160ec92506040516020810191825260408082015260116060820152706d756c7469706c6965722d637573746f6d60781b6080820152608081526160e460a082613ae5565b519020615883565b600090815b83831061611a575050506000198101908111613e7257616110906139b2565b90549060031b1c90565b6161349061612784613997565b90549060031b1c90613e65565b9182821061614557600101916160f1565b91505061611091506139b2565b909161616360019161612786613997565b9301929190616097565b6064915060405160208101918252604080820152600a60608201526936bab63a34b83634b2b960b11b6080820152608081526161aa60a082613ae5565b51902006603c81106161e357605581106161dd57605f81106161d7576063116161d257600a90565b600590565b50600390565b50600290565b50600190565b60ff1660ff8114613e725760010190565b90603c8110156139535760051b019056feb9574e0faab8124549420ceb05e8203d89eacae04d747d51d12d373b600dbe9ba2646970667358221220f87e43385ea9d13f23879c1a51322fc221c3bb622b5185c86001eb68241d725364736f6c634300081c0033",
  "linkReferences": {},
  "deployedLinkReferences": {}
}